{
  "address": "0xF9E73e7B52FC97462e86340246Db1513d4708979",
  "abi": [
    {
      "inputs": [
        {
          "internalType": "string",
          "name": "name",
          "type": "string"
        },
        {
          "internalType": "string",
          "name": "symbol",
          "type": "string"
        }
      ],
      "stateMutability": "nonpayable",
      "type": "constructor"
    },
    {
      "anonymous": false,
      "inputs": [
        {
          "indexed": true,
          "internalType": "address",
          "name": "owner",
          "type": "address"
        },
        {
          "indexed": true,
          "internalType": "address",
          "name": "approved",
          "type": "address"
        },
        {
          "indexed": true,
          "internalType": "uint256",
          "name": "tokenId",
          "type": "uint256"
        }
      ],
      "name": "Approval",
      "type": "event"
    },
    {
      "anonymous": false,
      "inputs": [
        {
          "indexed": true,
          "internalType": "address",
          "name": "owner",
          "type": "address"
        },
        {
          "indexed": true,
          "internalType": "address",
          "name": "operator",
          "type": "address"
        },
        {
          "indexed": false,
          "internalType": "bool",
          "name": "approved",
          "type": "bool"
        }
      ],
      "name": "ApprovalForAll",
      "type": "event"
    },
    {
      "anonymous": false,
      "inputs": [
        {
          "indexed": true,
          "internalType": "address",
          "name": "from",
          "type": "address"
        },
        {
          "indexed": true,
          "internalType": "address",
          "name": "to",
          "type": "address"
        },
        {
          "indexed": true,
          "internalType": "uint256",
          "name": "tokenId",
          "type": "uint256"
        }
      ],
      "name": "Transfer",
      "type": "event"
    },
    {
      "inputs": [
        {
          "internalType": "uint256",
          "name": "BidId",
          "type": "uint256"
        }
      ],
      "name": "BidURI",
      "outputs": [
        {
          "internalType": "string",
          "name": "",
          "type": "string"
        }
      ],
      "stateMutability": "view",
      "type": "function"
    },
    {
      "inputs": [],
      "name": "_EventTokenSearchIds",
      "outputs": [
        {
          "internalType": "uint256",
          "name": "",
          "type": "uint256"
        }
      ],
      "stateMutability": "view",
      "type": "function"
    },
    {
      "inputs": [
        {
          "internalType": "uint256",
          "name": "",
          "type": "uint256"
        },
        {
          "internalType": "uint256",
          "name": "",
          "type": "uint256"
        }
      ],
      "name": "_SearchedStore",
      "outputs": [
        {
          "internalType": "string",
          "name": "",
          "type": "string"
        }
      ],
      "stateMutability": "view",
      "type": "function"
    },
    {
      "inputs": [
        {
          "internalType": "uint256",
          "name": "_tokenId",
          "type": "uint256"
        }
      ],
      "name": "_getSearchedTokenURI",
      "outputs": [
        {
          "internalType": "string",
          "name": "",
          "type": "string"
        }
      ],
      "stateMutability": "view",
      "type": "function"
    },
    {
      "inputs": [
        {
          "internalType": "uint256",
          "name": "bidId",
          "type": "uint256"
        },
        {
          "internalType": "string",
          "name": "_bidURI",
          "type": "string"
        }
      ],
      "name": "_setBidURI",
      "outputs": [],
      "stateMutability": "nonpayable",
      "type": "function"
    },
    {
      "inputs": [
        {
          "internalType": "uint256",
          "name": "eventId",
          "type": "uint256"
        },
        {
          "internalType": "string",
          "name": "_eventURI",
          "type": "string"
        }
      ],
      "name": "_setEventURI",
      "outputs": [],
      "stateMutability": "nonpayable",
      "type": "function"
    },
    {
      "inputs": [
        {
          "internalType": "uint256",
          "name": "TokenBidId",
          "type": "uint256"
        },
        {
          "internalType": "uint256",
          "name": "TokenId",
          "type": "uint256"
        },
        {
          "internalType": "string",
          "name": "_BidURI",
          "type": "string"
        }
      ],
      "name": "_setTokenBid",
      "outputs": [],
      "stateMutability": "nonpayable",
      "type": "function"
    },
    {
      "inputs": [
        {
          "internalType": "uint256",
          "name": "EventTokenId",
          "type": "uint256"
        },
        {
          "internalType": "uint256",
          "name": "EventId",
          "type": "uint256"
        },
        {
          "internalType": "string",
          "name": "_tokenURI",
          "type": "string"
        }
      ],
      "name": "_setTokenEvent",
      "outputs": [],
      "stateMutability": "nonpayable",
      "type": "function"
    },
    {
      "inputs": [
        {
          "internalType": "uint256",
          "name": "tokenId",
          "type": "uint256"
        },
        {
          "internalType": "string",
          "name": "_tokenURI",
          "type": "string"
        }
      ],
      "name": "_setTokenURI",
      "outputs": [],
      "stateMutability": "nonpayable",
      "type": "function"
    },
    {
      "inputs": [
        {
          "internalType": "address",
          "name": "to",
          "type": "address"
        },
        {
          "internalType": "uint256",
          "name": "tokenId",
          "type": "uint256"
        }
      ],
      "name": "approve",
      "outputs": [],
      "stateMutability": "nonpayable",
      "type": "function"
    },
    {
      "inputs": [
        {
          "internalType": "address",
          "name": "owner",
          "type": "address"
        }
      ],
      "name": "balanceOf",
      "outputs": [
        {
          "internalType": "uint256",
          "name": "",
          "type": "uint256"
        }
      ],
      "stateMutability": "view",
      "type": "function"
    },
    {
      "inputs": [
        {
          "internalType": "address",
          "name": "_claimer",
          "type": "address"
        },
        {
          "internalType": "string",
          "name": "_tokenURI",
          "type": "string"
        },
        {
          "internalType": "uint256",
          "name": "_eventid",
          "type": "uint256"
        }
      ],
      "name": "claimToken",
      "outputs": [
        {
          "internalType": "uint256",
          "name": "",
          "type": "uint256"
        }
      ],
      "stateMutability": "nonpayable",
      "type": "function"
    },
    {
      "inputs": [
        {
          "internalType": "uint256",
          "name": "_tokenId",
          "type": "uint256"
        },
        {
          "internalType": "string",
          "name": "_bidURI",
          "type": "string"
        },
        {
          "internalType": "string",
          "name": "_updatedURI",
          "type": "string"
        },
        {
          "internalType": "uint256",
          "name": "_eventid",
          "type": "uint256"
        }
      ],
      "name": "createBid",
      "outputs": [],
      "stateMutability": "nonpayable",
      "type": "function"
    },
    {
      "inputs": [
        {
          "internalType": "address",
          "name": "_claimer",
          "type": "address"
        },
        {
          "internalType": "string",
          "name": "_eventURI",
          "type": "string"
        }
      ],
      "name": "createEvent",
      "outputs": [
        {
          "internalType": "uint256",
          "name": "",
          "type": "uint256"
        }
      ],
      "stateMutability": "nonpayable",
      "type": "function"
    },
    {
      "inputs": [
        {
          "internalType": "uint256",
          "name": "eventId",
          "type": "uint256"
        }
      ],
      "name": "eventURI",
      "outputs": [
        {
          "internalType": "string",
          "name": "",
          "type": "string"
        }
      ],
      "stateMutability": "view",
      "type": "function"
    },
    {
      "inputs": [
        {
          "internalType": "uint256",
          "name": "tokenId",
          "type": "uint256"
        }
      ],
      "name": "getApproved",
      "outputs": [
        {
          "internalType": "address",
          "name": "",
          "type": "address"
        }
      ],
      "stateMutability": "view",
      "type": "function"
    },
    {
      "inputs": [
        {
          "internalType": "string",
          "name": "_bidURI",
          "type": "string"
        }
      ],
      "name": "getBidIdByUri",
      "outputs": [
        {
          "internalType": "uint256",
          "name": "",
          "type": "uint256"
        }
      ],
      "stateMutability": "view",
      "type": "function"
    },
    {
      "inputs": [
        {
          "internalType": "uint256",
          "name": "TokenID",
          "type": "uint256"
        }
      ],
      "name": "getBidsSearchToken",
      "outputs": [
        {
          "internalType": "string[]",
          "name": "",
          "type": "string[]"
        }
      ],
      "stateMutability": "view",
      "type": "function"
    },
    {
      "inputs": [
        {
          "internalType": "uint256",
          "name": "EventId",
          "type": "uint256"
        },
        {
          "internalType": "string",
          "name": "_tokenURI",
          "type": "string"
        }
      ],
      "name": "getGetEventsTokenID",
      "outputs": [
        {
          "internalType": "uint256",
          "name": "",
          "type": "uint256"
        }
      ],
      "stateMutability": "view",
      "type": "function"
    },
    {
      "inputs": [
        {
          "internalType": "uint256",
          "name": "TokenID",
          "type": "uint256"
        }
      ],
      "name": "getTotalBid",
      "outputs": [
        {
          "internalType": "string[]",
          "name": "",
          "type": "string[]"
        }
      ],
      "stateMutability": "view",
      "type": "function"
    },
    {
      "inputs": [
        {
          "internalType": "string",
          "name": "_tokenURI",
          "type": "string"
        }
      ],
      "name": "gettokenIdByUri",
      "outputs": [
        {
          "internalType": "uint256",
          "name": "",
          "type": "uint256"
        }
      ],
      "stateMutability": "view",
      "type": "function"
    },
    {
      "inputs": [
        {
          "internalType": "uint256",
          "name": "EventID",
          "type": "uint256"
        }
      ],
      "name": "gettokenSearchEventTotal",
      "outputs": [
        {
          "internalType": "string[]",
          "name": "",
          "type": "string[]"
        }
      ],
      "stateMutability": "view",
      "type": "function"
    },
    {
      "inputs": [
        {
          "internalType": "address",
          "name": "owner",
          "type": "address"
        },
        {
          "internalType": "address",
          "name": "operator",
          "type": "address"
        }
      ],
      "name": "isApprovedForAll",
      "outputs": [
        {
          "internalType": "bool",
          "name": "",
          "type": "bool"
        }
      ],
      "stateMutability": "view",
      "type": "function"
    },
    {
      "inputs": [],
      "name": "name",
      "outputs": [
        {
          "internalType": "string",
          "name": "",
          "type": "string"
        }
      ],
      "stateMutability": "view",
      "type": "function"
    },
    {
      "inputs": [
        {
          "internalType": "uint256",
          "name": "tokenId",
          "type": "uint256"
        }
      ],
      "name": "ownerOf",
      "outputs": [
        {
          "internalType": "address",
          "name": "",
          "type": "address"
        }
      ],
      "stateMutability": "view",
      "type": "function"
    },
    {
      "inputs": [
        {
          "internalType": "address",
          "name": "from",
          "type": "address"
        },
        {
          "internalType": "address",
          "name": "to",
          "type": "address"
        },
        {
          "internalType": "uint256",
          "name": "tokenId",
          "type": "uint256"
        }
      ],
      "name": "safeTransferFrom",
      "outputs": [],
      "stateMutability": "nonpayable",
      "type": "function"
    },
    {
      "inputs": [
        {
          "internalType": "address",
          "name": "from",
          "type": "address"
        },
        {
          "internalType": "address",
          "name": "to",
          "type": "address"
        },
        {
          "internalType": "uint256",
          "name": "tokenId",
          "type": "uint256"
        },
        {
          "internalType": "bytes",
          "name": "_data",
          "type": "bytes"
        }
      ],
      "name": "safeTransferFrom",
      "outputs": [],
      "stateMutability": "nonpayable",
      "type": "function"
    },
    {
      "inputs": [
        {
          "internalType": "address",
          "name": "operator",
          "type": "address"
        },
        {
          "internalType": "bool",
          "name": "approved",
          "type": "bool"
        }
      ],
      "name": "setApprovalForAll",
      "outputs": [],
      "stateMutability": "nonpayable",
      "type": "function"
    },
    {
      "inputs": [
        {
          "internalType": "bytes4",
          "name": "interfaceId",
          "type": "bytes4"
        }
      ],
      "name": "supportsInterface",
      "outputs": [
        {
          "internalType": "bool",
          "name": "",
          "type": "bool"
        }
      ],
      "stateMutability": "view",
      "type": "function"
    },
    {
      "inputs": [],
      "name": "symbol",
      "outputs": [
        {
          "internalType": "string",
          "name": "",
          "type": "string"
        }
      ],
      "stateMutability": "view",
      "type": "function"
    },
    {
      "inputs": [
        {
          "internalType": "uint256",
          "name": "tokenId",
          "type": "uint256"
        }
      ],
      "name": "tokenURI",
      "outputs": [
        {
          "internalType": "string",
          "name": "",
          "type": "string"
        }
      ],
      "stateMutability": "view",
      "type": "function"
    },
    {
      "inputs": [],
      "name": "totalEvent",
      "outputs": [
        {
          "internalType": "uint256",
          "name": "",
          "type": "uint256"
        }
      ],
      "stateMutability": "view",
      "type": "function"
    },
    {
      "inputs": [],
      "name": "totalSupply",
      "outputs": [
        {
          "internalType": "uint256",
          "name": "",
          "type": "uint256"
        }
      ],
      "stateMutability": "view",
      "type": "function"
    },
    {
      "inputs": [
        {
          "internalType": "address",
          "name": "from",
          "type": "address"
        },
        {
          "internalType": "address",
          "name": "to",
          "type": "address"
        },
        {
          "internalType": "uint256",
          "name": "tokenId",
          "type": "uint256"
        }
      ],
      "name": "transferFrom",
      "outputs": [],
      "stateMutability": "nonpayable",
      "type": "function"
    }
  ],
  "transactionHash": "0xaae2a71463b884fde24c6c5f0609035cae8fe3b8a75c421cd3c53df49d3670f7",
  "args": [
    "Metis",
    "MET"
  ],
  "solcInputHash": "0d1e5a382ac30ed4bc4e481de200269e",
  "bytecode": "0x60806040523480156200001157600080fd5b5060405162004243380380620042438339818101604052810190620000379190620001a3565b818181600090805190602001906200005192919062000075565b5080600190805190602001906200006a92919062000075565b5050505050620003ac565b8280546200008390620002bd565b90600052602060002090601f016020900481019282620000a75760008555620000f3565b82601f10620000c257805160ff1916838001178555620000f3565b82800160010185558215620000f3579182015b82811115620000f2578251825591602001919060010190620000d5565b5b50905062000102919062000106565b5090565b5b808211156200012157600081600090555060010162000107565b5090565b60006200013c620001368462000251565b62000228565b9050828152602081018484840111156200015b576200015a6200038c565b5b6200016884828562000287565b509392505050565b600082601f83011262000188576200018762000387565b5b81516200019a84826020860162000125565b91505092915050565b60008060408385031215620001bd57620001bc62000396565b5b600083015167ffffffffffffffff811115620001de57620001dd62000391565b5b620001ec8582860162000170565b925050602083015167ffffffffffffffff81111562000210576200020f62000391565b5b6200021e8582860162000170565b9150509250929050565b60006200023462000247565b9050620002428282620002f3565b919050565b6000604051905090565b600067ffffffffffffffff8211156200026f576200026e62000358565b5b6200027a826200039b565b9050602081019050919050565b60005b83811015620002a75780820151818401526020810190506200028a565b83811115620002b7576000848401525b50505050565b60006002820490506001821680620002d657607f821691505b60208210811415620002ed57620002ec62000329565b5b50919050565b620002fe826200039b565b810181811067ffffffffffffffff8211171562000320576200031f62000358565b5b80604052505050565b7f4e487b7100000000000000000000000000000000000000000000000000000000600052602260045260246000fd5b7f4e487b7100000000000000000000000000000000000000000000000000000000600052604160045260246000fd5b600080fd5b600080fd5b600080fd5b600080fd5b6000601f19601f8301169050919050565b613e8780620003bc6000396000f3fe608060405234801561001057600080fd5b50600436106102065760003560e01c8063652d47251161011a578063aed47961116100ad578063d45fc5161161007c578063d45fc5161461066d578063d654e9931461069d578063e08033d3146106b9578063e985e9c5146106d5578063eb1d234d1461070557610206565b8063aed47961146105c1578063b10a5dfa146105f1578063b88d4fde14610621578063c87b56dd1461063d57610206565b8063932a196b116100e9578063932a196b1461052757806395d89b4114610557578063a0fd0c6a14610575578063a22cb465146105a557610206565b8063652d47251461047957806370a08231146104a95780637cedbc1e146104d95780637eadfa6a1461050957610206565b80631cd043d61161019d5780633592dd801161016c5780633592dd80146103b157806342842e0e146103cd578063446a92e3146103e95780635154380a146104195780636352211e1461044957610206565b80631cd043d61461031957806323b872dd1461033557806328520ab71461035157806335011d901461038157610206565b8063095ea7b3116101d9578063095ea7b3146102a55780630da3c49c146102c1578063144cbca6146102dd57806318160ddd146102fb57610206565b8063015388681461020b57806301ffc9a71461022757806306fdde0314610257578063081812fc14610275575b600080fd5b61022560048036038101906102209190612cd0565b610735565b005b610241600480360381019061023c9190612c00565b6107a9565b60405161024e9190613307565b60405180910390f35b61025f61088b565b60405161026c9190613322565b60405180910390f35b61028f600480360381019061028a9190612ca3565b61091d565b60405161029c919061327e565b60405180910390f35b6102bf60048036038101906102ba9190612bc0565b6109a2565b005b6102db60048036038101906102d69190612d2c565b610aba565b005b6102e5610bda565b6040516102f29190613524565b60405180910390f35b610303610be0565b6040516103109190613524565b60405180910390f35b610333600480360381019061032e9190612cd0565b610bea565b005b61034f600480360381019061034a91906129df565b610c16565b005b61036b60048036038101906103669190612cd0565b610c76565b6040516103789190613524565b60405180910390f35b61039b60048036038101906103969190612b51565b610d4f565b6040516103a89190613524565b60405180910390f35b6103cb60048036038101906103c69190612e0b565b610db2565b005b6103e760048036038101906103e291906129df565b610df6565b005b61040360048036038101906103fe9190612ca3565b610e16565b6040516104109190613322565b60405180910390f35b610433600480360381019061042e9190612ca3565b610ebb565b60405161044091906132e5565b60405180910390f35b610463600480360381019061045e9190612ca3565b61106b565b604051610470919061327e565b60405180910390f35b610493600480360381019061048e9190612af5565b61111d565b6040516104a09190613524565b60405180910390f35b6104c360048036038101906104be9190612972565b61114e565b6040516104d09190613524565b60405180910390f35b6104f360048036038101906104ee9190612ca3565b611206565b6040516105009190613322565b60405180910390f35b6105116112bf565b60405161051e9190613524565b60405180910390f35b610541600480360381019061053c9190612c5a565b6112c9565b60405161054e9190613524565b60405180910390f35b61055f611338565b60405161056c9190613322565b60405180910390f35b61058f600480360381019061058a9190612ca3565b6113ca565b60405161059c9190613322565b60405180910390f35b6105bf60048036038101906105ba9190612ab5565b61146f565b005b6105db60048036038101906105d69190612ca3565b611485565b6040516105e891906132e5565b60405180910390f35b61060b60048036038101906106069190612dcb565b611635565b6040516106189190613322565b60405180910390f35b61063b60048036038101906106369190612a32565b6116e5565b005b61065760048036038101906106529190612ca3565b611747565b6040516106649190613322565b60405180910390f35b61068760048036038101906106829190612c5a565b611834565b6040516106949190613524565b60405180910390f35b6106b760048036038101906106b29190612e0b565b6118a3565b005b6106d360048036038101906106ce9190612cd0565b6118e7565b005b6106ef60048036038101906106ea919061299f565b611913565b6040516106fc9190613307565b60405180910390f35b61071f600480360381019061071a9190612ca3565b6119a7565b60405161072c91906132e5565b60405180910390f35b61073e82611b57565b61077d576040517f08c379a000000000000000000000000000000000000000000000000000000000815260040161077490613484565b60405180910390fd5b806012600084815260200190815260200160002090805190602001906107a49291906126cf565b505050565b60007f80ac58cd000000000000000000000000000000000000000000000000000000007bffffffffffffffffffffffffffffffffffffffffffffffffffffffff1916827bffffffffffffffffffffffffffffffffffffffffffffffffffffffff1916148061087457507f5b5e139f000000000000000000000000000000000000000000000000000000007bffffffffffffffffffffffffffffffffffffffffffffffffffffffff1916827bffffffffffffffffffffffffffffffffffffffffffffffffffffffff1916145b80610884575061088382611bc3565b5b9050919050565b60606000805461089a906137d9565b80601f01602080910402602001604051908101604052809291908181526020018280546108c6906137d9565b80156109135780601f106108e857610100808354040283529160200191610913565b820191906000526020600020905b8154815290600101906020018083116108f657829003601f168201915b5050505050905090565b600061092882611b57565b610967576040517f08c379a000000000000000000000000000000000000000000000000000000000815260040161095e90613464565b60405180910390fd5b6004600083815260200190815260200160002060009054906101000a900473ffffffffffffffffffffffffffffffffffffffff169050919050565b60006109ad8261106b565b90508073ffffffffffffffffffffffffffffffffffffffff168373ffffffffffffffffffffffffffffffffffffffff161415610a1e576040517f08c379a0000000000000000000000000000000000000000000000000000000008152600401610a15906134e4565b60405180910390fd5b8073ffffffffffffffffffffffffffffffffffffffff16610a3d611c2d565b73ffffffffffffffffffffffffffffffffffffffff161480610a6c5750610a6b81610a66611c2d565b611913565b5b610aab576040517f08c379a0000000000000000000000000000000000000000000000000000000008152600401610aa2906133e4565b60405180910390fd5b610ab58383611c35565b505050565b6000610b6182601260008881526020019081526020016000208054610ade906137d9565b80601f0160208091040260200160405190810160405280929190818152602001828054610b0a906137d9565b8015610b575780601f10610b2c57610100808354040283529160200191610b57565b820191906000526020600020905b815481529060010190602001808311610b3a57829003601f168201915b5050505050610c76565b905082601260008781526020019081526020016000209080519060200190610b8a9291906126cf565b50610b96818385610db2565b610ba3600a5486866118a3565b600a6000815480929190610bb69061383c565b919050555060076000815480929190610bce9061383c565b91905055505050505050565b600d5481565b6000600654905090565b80601360008481526020019081526020016000209080519060200190610c119291906126cf565b505050565b610c27610c21611c2d565b82611cee565b610c66576040517f08c379a0000000000000000000000000000000000000000000000000000000008152600401610c5d90613504565b60405180910390fd5b610c71838383611dcc565b505050565b600080600090505b600954811015610d4357610c9184612028565b80519060200120600e6000838152602001908152602001600020600060028110610cbe57610cbd613943565b5b01604051610ccc9190613267565b6040518091039020148015610d2257508280519060200120600e6000838152602001908152602001600020600160028110610d0a57610d09613943565b5b01604051610d189190613267565b6040518091039020145b15610d305780915050610d49565b8080610d3b9061383c565b915050610c7e565b50600090505b92915050565b6000610d5d84600654612189565b610d6960065484610735565b610d766009548385610db2565b60066000815480929190610d899061383c565b919050555060096000815480929190610da19061383c565b919050555060065490509392505050565b6040518060400160405280610dc684612028565b815260200182815250600e6000858152602001908152602001600020906002610df0929190612755565b50505050565b610e11838383604051806020016040528060008152506116e5565b505050565b6060601160008381526020019081526020016000208054610e36906137d9565b80601f0160208091040260200160405190810160405280929190818152602001828054610e62906137d9565b8015610eaf5780601f10610e8457610100808354040283529160200191610eaf565b820191906000526020600020905b815481529060010190602001808311610e9257829003601f168201915b50505050509050919050565b60606000600a67ffffffffffffffff811115610eda57610ed9613972565b5b604051908082528060200260200182016040528015610f0d57816020015b6060815260200190600190039081610ef85790505b5090506000805b600a5481101561106057610f2785612028565b80519060200120600f6000838152602001908152602001600020600060028110610f5457610f53613943565b5b01604051610f629190613267565b6040518091039020141561104d57600f6000828152602001908152602001600020600160028110610f9657610f95613943565b5b018054610fa2906137d9565b80601f0160208091040260200160405190810160405280929190818152602001828054610fce906137d9565b801561101b5780601f10610ff05761010080835404028352916020019161101b565b820191906000526020600020905b815481529060010190602001808311610ffe57829003601f168201915b505050505083838151811061103357611032613943565b5b602002602001018190525081806110499061383c565b9250505b80806110589061383c565b915050610f14565b508192505050919050565b6000806002600084815260200190815260200160002060009054906101000a900473ffffffffffffffffffffffffffffffffffffffff169050600073ffffffffffffffffffffffffffffffffffffffff168173ffffffffffffffffffffffffffffffffffffffff161415611114576040517f08c379a000000000000000000000000000000000000000000000000000000000815260040161110b90613424565b60405180910390fd5b80915050919050565b600061112b60085483610bea565b6008600081548092919061113e9061383c565b9190505550600854905092915050565b60008073ffffffffffffffffffffffffffffffffffffffff168273ffffffffffffffffffffffffffffffffffffffff1614156111bf576040517f08c379a00000000000000000000000000000000000000000000000000000000081526004016111b690613404565b60405180910390fd5b600360008373ffffffffffffffffffffffffffffffffffffffff1673ffffffffffffffffffffffffffffffffffffffff168152602001908152602001600020549050919050565b60606010600083815260200190815260200160002060006002811061122e5761122d613943565b5b01805461123a906137d9565b80601f0160208091040260200160405190810160405280929190818152602001828054611266906137d9565b80156112b35780601f10611288576101008083540402835291602001916112b3565b820191906000526020600020905b81548152906001019060200180831161129657829003601f168201915b50505050509050919050565b6000600854905090565b600080600090505b60065481101561132d578280519060200120601260008381526020019081526020016000206040516113039190613267565b6040518091039020141561131a5780915050611333565b80806113259061383c565b9150506112d1565b50600090505b919050565b606060018054611347906137d9565b80601f0160208091040260200160405190810160405280929190818152602001828054611373906137d9565b80156113c05780601f10611395576101008083540402835291602001916113c0565b820191906000526020600020905b8154815290600101906020018083116113a357829003601f168201915b5050505050905090565b60606013600083815260200190815260200160002080546113ea906137d9565b80601f0160208091040260200160405190810160405280929190818152602001828054611416906137d9565b80156114635780601f1061143857610100808354040283529160200191611463565b820191906000526020600020905b81548152906001019060200180831161144657829003601f168201915b50505050509050919050565b61148161147a611c2d565b8383612357565b5050565b60606000600a67ffffffffffffffff8111156114a4576114a3613972565b5b6040519080825280602002602001820160405280156114d757816020015b60608152602001906001900390816114c25790505b5090506000805b600a5481101561162a576114f185612028565b80519060200120600f600083815260200190815260200160002060006002811061151e5761151d613943565b5b0160405161152c9190613267565b6040518091039020141561161757600f60008281526020019081526020016000206001600281106115605761155f613943565b5b01805461156c906137d9565b80601f0160208091040260200160405190810160405280929190818152602001828054611598906137d9565b80156115e55780601f106115ba576101008083540402835291602001916115e5565b820191906000526020600020905b8154815290600101906020018083116115c857829003601f168201915b50505050508383815181106115fd576115fc613943565b5b602002602001018190525081806116139061383c565b9250505b80806116229061383c565b9150506114de565b508192505050919050565b6010602052816000526040600020816002811061165157600080fd5b01600091509150508054611664906137d9565b80601f0160208091040260200160405190810160405280929190818152602001828054611690906137d9565b80156116dd5780601f106116b2576101008083540402835291602001916116dd565b820191906000526020600020905b8154815290600101906020018083116116c057829003601f168201915b505050505081565b6116f66116f0611c2d565b83611cee565b611735576040517f08c379a000000000000000000000000000000000000000000000000000000000815260040161172c90613504565b60405180910390fd5b611741848484846124c4565b50505050565b606061175282611b57565b611791576040517f08c379a0000000000000000000000000000000000000000000000000000000008152600401611788906134c4565b60405180910390fd5b6012600083815260200190815260200160002080546117af906137d9565b80601f01602080910402602001604051908101604052809291908181526020018280546117db906137d9565b80156118285780601f106117fd57610100808354040283529160200191611828565b820191906000526020600020905b81548152906001019060200180831161180b57829003601f168201915b50505050509050919050565b600080600090505b6007548110156118985782805190602001206011600083815260200190815260200160002060405161186e9190613267565b60405180910390201415611885578091505061189e565b80806118909061383c565b91505061183c565b50600090505b919050565b60405180604001604052806118b784612028565b815260200182815250600f60008581526020019081526020016000209060026118e1929190612755565b50505050565b8060116000848152602001908152602001600020908051906020019061190e9291906126cf565b505050565b6000600560008473ffffffffffffffffffffffffffffffffffffffff1673ffffffffffffffffffffffffffffffffffffffff16815260200190815260200160002060008373ffffffffffffffffffffffffffffffffffffffff1673ffffffffffffffffffffffffffffffffffffffff16815260200190815260200160002060009054906101000a900460ff16905092915050565b60606000600a67ffffffffffffffff8111156119c6576119c5613972565b5b6040519080825280602002602001820160405280156119f957816020015b60608152602001906001900390816119e45790505b5090506000805b600954811015611b4c57611a1385612028565b80519060200120600e6000838152602001908152602001600020600060028110611a4057611a3f613943565b5b01604051611a4e9190613267565b60405180910390201415611b3957600e6000828152602001908152602001600020600160028110611a8257611a81613943565b5b018054611a8e906137d9565b80601f0160208091040260200160405190810160405280929190818152602001828054611aba906137d9565b8015611b075780601f10611adc57610100808354040283529160200191611b07565b820191906000526020600020905b815481529060010190602001808311611aea57829003601f168201915b5050505050838381518110611b1f57611b1e613943565b5b60200260200101819052508180611b359061383c565b9250505b8080611b449061383c565b915050611a00565b508192505050919050565b60008073ffffffffffffffffffffffffffffffffffffffff166002600084815260200190815260200160002060009054906101000a900473ffffffffffffffffffffffffffffffffffffffff1673ffffffffffffffffffffffffffffffffffffffff1614159050919050565b60007f01ffc9a7000000000000000000000000000000000000000000000000000000007bffffffffffffffffffffffffffffffffffffffffffffffffffffffff1916827bffffffffffffffffffffffffffffffffffffffffffffffffffffffff1916149050919050565b600033905090565b816004600083815260200190815260200160002060006101000a81548173ffffffffffffffffffffffffffffffffffffffff021916908373ffffffffffffffffffffffffffffffffffffffff160217905550808273ffffffffffffffffffffffffffffffffffffffff16611ca88361106b565b73ffffffffffffffffffffffffffffffffffffffff167f8c5be1e5ebec7d5bd14f71427d1e84f3dd0314c0f7b2291e5b200ac8c7c3b92560405160405180910390a45050565b6000611cf982611b57565b611d38576040517f08c379a0000000000000000000000000000000000000000000000000000000008152600401611d2f906133c4565b60405180910390fd5b6000611d438361106b565b90508073ffffffffffffffffffffffffffffffffffffffff168473ffffffffffffffffffffffffffffffffffffffff161480611db257508373ffffffffffffffffffffffffffffffffffffffff16611d9a8461091d565b73ffffffffffffffffffffffffffffffffffffffff16145b80611dc35750611dc28185611913565b5b91505092915050565b8273ffffffffffffffffffffffffffffffffffffffff16611dec8261106b565b73ffffffffffffffffffffffffffffffffffffffff1614611e42576040517f08c379a0000000000000000000000000000000000000000000000000000000008152600401611e39906134a4565b60405180910390fd5b600073ffffffffffffffffffffffffffffffffffffffff168273ffffffffffffffffffffffffffffffffffffffff161415611eb2576040517f08c379a0000000000000000000000000000000000000000000000000000000008152600401611ea990613384565b60405180910390fd5b611ebd838383612520565b611ec8600082611c35565b6001600360008573ffffffffffffffffffffffffffffffffffffffff1673ffffffffffffffffffffffffffffffffffffffff1681526020019081526020016000206000828254611f1891906136ef565b925050819055506001600360008473ffffffffffffffffffffffffffffffffffffffff1673ffffffffffffffffffffffffffffffffffffffff1681526020019081526020016000206000828254611f6f9190613668565b92505081905550816002600083815260200190815260200160002060006101000a81548173ffffffffffffffffffffffffffffffffffffffff021916908373ffffffffffffffffffffffffffffffffffffffff160217905550808273ffffffffffffffffffffffffffffffffffffffff168473ffffffffffffffffffffffffffffffffffffffff167fddf252ad1be2c89b69c2b068fc378daa952ba7f163c4a11628f55a4df523b3ef60405160405180910390a4505050565b60606000821415612070576040518060400160405280600181526020017f30000000000000000000000000000000000000000000000000000000000000008152509050612184565b600082905060005b600082146120a257808061208b9061383c565b915050600a8261209b91906136be565b9150612078565b60008167ffffffffffffffff8111156120be576120bd613972565b5b6040519080825280601f01601f1916602001820160405280156120f05781602001600182028036833780820191505090505b5090505b6000851461217d5760018261210991906136ef565b9150600a856121189190613885565b60306121249190613668565b60f81b81838151811061213a57612139613943565b5b60200101907effffffffffffffffffffffffffffffffffffffffffffffffffffffffffffff1916908160001a905350600a8561217691906136be565b94506120f4565b8093505050505b919050565b600073ffffffffffffffffffffffffffffffffffffffff168273ffffffffffffffffffffffffffffffffffffffff1614156121f9576040517f08c379a00000000000000000000000000000000000000000000000000000000081526004016121f090613444565b60405180910390fd5b61220281611b57565b15612242576040517f08c379a000000000000000000000000000000000000000000000000000000000815260040161223990613364565b60405180910390fd5b61224e60008383612520565b6001600360008473ffffffffffffffffffffffffffffffffffffffff1673ffffffffffffffffffffffffffffffffffffffff168152602001908152602001600020600082825461229e9190613668565b92505081905550816002600083815260200190815260200160002060006101000a81548173ffffffffffffffffffffffffffffffffffffffff021916908373ffffffffffffffffffffffffffffffffffffffff160217905550808273ffffffffffffffffffffffffffffffffffffffff16600073ffffffffffffffffffffffffffffffffffffffff167fddf252ad1be2c89b69c2b068fc378daa952ba7f163c4a11628f55a4df523b3ef60405160405180910390a45050565b8173ffffffffffffffffffffffffffffffffffffffff168373ffffffffffffffffffffffffffffffffffffffff1614156123c6576040517f08c379a00000000000000000000000000000000000000000000000000000000081526004016123bd906133a4565b60405180910390fd5b80600560008573ffffffffffffffffffffffffffffffffffffffff1673ffffffffffffffffffffffffffffffffffffffff16815260200190815260200160002060008473ffffffffffffffffffffffffffffffffffffffff1673ffffffffffffffffffffffffffffffffffffffff16815260200190815260200160002060006101000a81548160ff0219169083151502179055508173ffffffffffffffffffffffffffffffffffffffff168373ffffffffffffffffffffffffffffffffffffffff167f17307eab39ab6107e8899845ad3d59bd9653f200f220920489ca2b5937696c31836040516124b79190613307565b60405180910390a3505050565b6124cf848484611dcc565b6124db84848484612525565b61251a576040517f08c379a000000000000000000000000000000000000000000000000000000000815260040161251190613344565b60405180910390fd5b50505050565b505050565b60006125468473ffffffffffffffffffffffffffffffffffffffff166126bc565b156126af578373ffffffffffffffffffffffffffffffffffffffff1663150b7a0261256f611c2d565b8786866040518563ffffffff1660e01b81526004016125919493929190613299565b602060405180830381600087803b1580156125ab57600080fd5b505af19250505080156125dc57506040513d601f19601f820116820180604052508101906125d99190612c2d565b60015b61265f573d806000811461260c576040519150601f19603f3d011682016040523d82523d6000602084013e612611565b606091505b50600081511415612657576040517f08c379a000000000000000000000000000000000000000000000000000000000815260040161264e90613344565b60405180910390fd5b805181602001fd5b63150b7a0260e01b7bffffffffffffffffffffffffffffffffffffffffffffffffffffffff1916817bffffffffffffffffffffffffffffffffffffffffffffffffffffffff1916149150506126b4565b600190505b949350505050565b600080823b905060008111915050919050565b8280546126db906137d9565b90600052602060002090601f0160209004810192826126fd5760008555612744565b82601f1061271657805160ff1916838001178555612744565b82800160010185558215612744579182015b82811115612743578251825591602001919060010190612728565b5b50905061275191906127a8565b5090565b8260028101928215612797579160200282015b828111156127965782518290805190602001906127869291906126cf565b5091602001919060010190612768565b5b5090506127a491906127c5565b5090565b5b808211156127c15760008160009055506001016127a9565b5090565b5b808211156127e557600081816127dc91906127e9565b506001016127c6565b5090565b5080546127f5906137d9565b6000825580601f106128075750612826565b601f01602090049060005260206000209081019061282591906127a8565b5b50565b600061283c61283784613564565b61353f565b905082815260208101848484011115612858576128576139a6565b5b612863848285613797565b509392505050565b600061287e61287984613595565b61353f565b90508281526020810184848401111561289a576128996139a6565b5b6128a5848285613797565b509392505050565b6000813590506128bc81613df5565b92915050565b6000813590506128d181613e0c565b92915050565b6000813590506128e681613e23565b92915050565b6000815190506128fb81613e23565b92915050565b600082601f830112612916576129156139a1565b5b8135612926848260208601612829565b91505092915050565b600082601f830112612944576129436139a1565b5b813561295484826020860161286b565b91505092915050565b60008135905061296c81613e3a565b92915050565b600060208284031215612988576129876139b0565b5b6000612996848285016128ad565b91505092915050565b600080604083850312156129b6576129b56139b0565b5b60006129c4858286016128ad565b92505060206129d5858286016128ad565b9150509250929050565b6000806000606084860312156129f8576129f76139b0565b5b6000612a06868287016128ad565b9350506020612a17868287016128ad565b9250506040612a288682870161295d565b9150509250925092565b60008060008060808587031215612a4c57612a4b6139b0565b5b6000612a5a878288016128ad565b9450506020612a6b878288016128ad565b9350506040612a7c8782880161295d565b925050606085013567ffffffffffffffff811115612a9d57612a9c6139ab565b5b612aa987828801612901565b91505092959194509250565b60008060408385031215612acc57612acb6139b0565b5b6000612ada858286016128ad565b9250506020612aeb858286016128c2565b9150509250929050565b60008060408385031215612b0c57612b0b6139b0565b5b6000612b1a858286016128ad565b925050602083013567ffffffffffffffff811115612b3b57612b3a6139ab565b5b612b478582860161292f565b9150509250929050565b600080600060608486031215612b6a57612b696139b0565b5b6000612b78868287016128ad565b935050602084013567ffffffffffffffff811115612b9957612b986139ab565b5b612ba58682870161292f565b9250506040612bb68682870161295d565b9150509250925092565b60008060408385031215612bd757612bd66139b0565b5b6000612be5858286016128ad565b9250506020612bf68582860161295d565b9150509250929050565b600060208284031215612c1657612c156139b0565b5b6000612c24848285016128d7565b91505092915050565b600060208284031215612c4357612c426139b0565b5b6000612c51848285016128ec565b91505092915050565b600060208284031215612c7057612c6f6139b0565b5b600082013567ffffffffffffffff811115612c8e57612c8d6139ab565b5b612c9a8482850161292f565b91505092915050565b600060208284031215612cb957612cb86139b0565b5b6000612cc78482850161295d565b91505092915050565b60008060408385031215612ce757612ce66139b0565b5b6000612cf58582860161295d565b925050602083013567ffffffffffffffff811115612d1657612d156139ab565b5b612d228582860161292f565b9150509250929050565b60008060008060808587031215612d4657612d456139b0565b5b6000612d548782880161295d565b945050602085013567ffffffffffffffff811115612d7557612d746139ab565b5b612d818782880161292f565b935050604085013567ffffffffffffffff811115612da257612da16139ab565b5b612dae8782880161292f565b9250506060612dbf8782880161295d565b91505092959194509250565b60008060408385031215612de257612de16139b0565b5b6000612df08582860161295d565b9250506020612e018582860161295d565b9150509250929050565b600080600060608486031215612e2457612e236139b0565b5b6000612e328682870161295d565b9350506020612e438682870161295d565b925050604084013567ffffffffffffffff811115612e6457612e636139ab565b5b612e708682870161292f565b9150509250925092565b6000612e868383612fd9565b905092915050565b612e9781613723565b82525050565b6000612ea8826135eb565b612eb28185613619565b935083602082028501612ec4856135c6565b8060005b85811015612f005784840389528151612ee18582612e7a565b9450612eec8361360c565b925060208a01995050600181019050612ec8565b50829750879550505050505092915050565b612f1b81613735565b82525050565b6000612f2c826135f6565b612f36818561362a565b9350612f468185602086016137a6565b612f4f816139b5565b840191505092915050565b60008154612f67816137d9565b612f71818661363b565b94506001821660008114612f8c5760018114612f9d57612fd0565b60ff19831686528186019350612fd0565b612fa6856135d6565b60005b83811015612fc857815481890152600182019150602081019050612fa9565b838801955050505b50505092915050565b6000612fe482613601565b612fee8185613646565b9350612ffe8185602086016137a6565b613007816139b5565b840191505092915050565b600061301d82613601565b6130278185613657565b93506130378185602086016137a6565b613040816139b5565b840191505092915050565b6000613058603283613657565b9150613063826139c6565b604082019050919050565b600061307b601c83613657565b915061308682613a15565b602082019050919050565b600061309e602483613657565b91506130a982613a3e565b604082019050919050565b60006130c1601983613657565b91506130cc82613a8d565b602082019050919050565b60006130e4602c83613657565b91506130ef82613ab6565b604082019050919050565b6000613107603883613657565b915061311282613b05565b604082019050919050565b600061312a602a83613657565b915061313582613b54565b604082019050919050565b600061314d602983613657565b915061315882613ba3565b604082019050919050565b6000613170602083613657565b915061317b82613bf2565b602082019050919050565b6000613193602c83613657565b915061319e82613c1b565b604082019050919050565b60006131b6602c83613657565b91506131c182613c6a565b604082019050919050565b60006131d9602983613657565b91506131e482613cb9565b604082019050919050565b60006131fc602f83613657565b915061320782613d08565b604082019050919050565b600061321f602183613657565b915061322a82613d57565b604082019050919050565b6000613242603183613657565b915061324d82613da6565b604082019050919050565b6132618161378d565b82525050565b60006132738284612f5a565b915081905092915050565b60006020820190506132936000830184612e8e565b92915050565b60006080820190506132ae6000830187612e8e565b6132bb6020830186612e8e565b6132c86040830185613258565b81810360608301526132da8184612f21565b905095945050505050565b600060208201905081810360008301526132ff8184612e9d565b905092915050565b600060208201905061331c6000830184612f12565b92915050565b6000602082019050818103600083015261333c8184613012565b905092915050565b6000602082019050818103600083015261335d8161304b565b9050919050565b6000602082019050818103600083015261337d8161306e565b9050919050565b6000602082019050818103600083015261339d81613091565b9050919050565b600060208201905081810360008301526133bd816130b4565b9050919050565b600060208201905081810360008301526133dd816130d7565b9050919050565b600060208201905081810360008301526133fd816130fa565b9050919050565b6000602082019050818103600083015261341d8161311d565b9050919050565b6000602082019050818103600083015261343d81613140565b9050919050565b6000602082019050818103600083015261345d81613163565b9050919050565b6000602082019050818103600083015261347d81613186565b9050919050565b6000602082019050818103600083015261349d816131a9565b9050919050565b600060208201905081810360008301526134bd816131cc565b9050919050565b600060208201905081810360008301526134dd816131ef565b9050919050565b600060208201905081810360008301526134fd81613212565b9050919050565b6000602082019050818103600083015261351d81613235565b9050919050565b60006020820190506135396000830184613258565b92915050565b600061354961355a565b9050613555828261380b565b919050565b6000604051905090565b600067ffffffffffffffff82111561357f5761357e613972565b5b613588826139b5565b9050602081019050919050565b600067ffffffffffffffff8211156135b0576135af613972565b5b6135b9826139b5565b9050602081019050919050565b6000819050602082019050919050565b60008190508160005260206000209050919050565b600081519050919050565b600081519050919050565b600081519050919050565b6000602082019050919050565b600082825260208201905092915050565b600082825260208201905092915050565b600081905092915050565b600082825260208201905092915050565b600082825260208201905092915050565b60006136738261378d565b915061367e8361378d565b9250827fffffffffffffffffffffffffffffffffffffffffffffffffffffffffffffffff038211156136b3576136b26138b6565b5b828201905092915050565b60006136c98261378d565b91506136d48361378d565b9250826136e4576136e36138e5565b5b828204905092915050565b60006136fa8261378d565b91506137058361378d565b925082821015613718576137176138b6565b5b828203905092915050565b600061372e8261376d565b9050919050565b60008115159050919050565b60007fffffffff0000000000000000000000000000000000000000000000000000000082169050919050565b600073ffffffffffffffffffffffffffffffffffffffff82169050919050565b6000819050919050565b82818337600083830152505050565b60005b838110156137c45780820151818401526020810190506137a9565b838111156137d3576000848401525b50505050565b600060028204905060018216806137f157607f821691505b6020821081141561380557613804613914565b5b50919050565b613814826139b5565b810181811067ffffffffffffffff8211171561383357613832613972565b5b80604052505050565b60006138478261378d565b91507fffffffffffffffffffffffffffffffffffffffffffffffffffffffffffffffff82141561387a576138796138b6565b5b600182019050919050565b60006138908261378d565b915061389b8361378d565b9250826138ab576138aa6138e5565b5b828206905092915050565b7f4e487b7100000000000000000000000000000000000000000000000000000000600052601160045260246000fd5b7f4e487b7100000000000000000000000000000000000000000000000000000000600052601260045260246000fd5b7f4e487b7100000000000000000000000000000000000000000000000000000000600052602260045260246000fd5b7f4e487b7100000000000000000000000000000000000000000000000000000000600052603260045260246000fd5b7f4e487b7100000000000000000000000000000000000000000000000000000000600052604160045260246000fd5b600080fd5b600080fd5b600080fd5b600080fd5b6000601f19601f8301169050919050565b7f4552433732313a207472616e7366657220746f206e6f6e20455243373231526560008201527f63656976657220696d706c656d656e7465720000000000000000000000000000602082015250565b7f4552433732313a20746f6b656e20616c7265616479206d696e74656400000000600082015250565b7f4552433732313a207472616e7366657220746f20746865207a65726f2061646460008201527f7265737300000000000000000000000000000000000000000000000000000000602082015250565b7f4552433732313a20617070726f766520746f2063616c6c657200000000000000600082015250565b7f4552433732313a206f70657261746f7220717565727920666f72206e6f6e657860008201527f697374656e7420746f6b656e0000000000000000000000000000000000000000602082015250565b7f4552433732313a20617070726f76652063616c6c6572206973206e6f74206f7760008201527f6e6572206e6f7220617070726f76656420666f7220616c6c0000000000000000602082015250565b7f4552433732313a2062616c616e636520717565727920666f7220746865207a6560008201527f726f206164647265737300000000000000000000000000000000000000000000602082015250565b7f4552433732313a206f776e657220717565727920666f72206e6f6e657869737460008201527f656e7420746f6b656e0000000000000000000000000000000000000000000000602082015250565b7f4552433732313a206d696e7420746f20746865207a65726f2061646472657373600082015250565b7f4552433732313a20617070726f76656420717565727920666f72206e6f6e657860008201527f697374656e7420746f6b656e0000000000000000000000000000000000000000602082015250565b7f4552433732314d657461646174613a2055524920736574206f66206e6f6e657860008201527f697374656e7420746f6b656e0000000000000000000000000000000000000000602082015250565b7f4552433732313a207472616e73666572206f6620746f6b656e2074686174206960008201527f73206e6f74206f776e0000000000000000000000000000000000000000000000602082015250565b7f4552433732314d657461646174613a2055524920717565727920666f72206e6f60008201527f6e6578697374656e7420746f6b656e0000000000000000000000000000000000602082015250565b7f4552433732313a20617070726f76616c20746f2063757272656e74206f776e6560008201527f7200000000000000000000000000000000000000000000000000000000000000602082015250565b7f4552433732313a207472616e736665722063616c6c6572206973206e6f74206f60008201527f776e6572206e6f7220617070726f766564000000000000000000000000000000602082015250565b613dfe81613723565b8114613e0957600080fd5b50565b613e1581613735565b8114613e2057600080fd5b50565b613e2c81613741565b8114613e3757600080fd5b50565b613e438161378d565b8114613e4e57600080fd5b5056fea2646970667358221220659dc207554e7aa24aad6450a73a10579319ec61dc11821e0b7a96e1c55da8d564736f6c63430008060033",
  "devdoc": {
    "kind": "dev",
    "methods": {
      "approve(address,uint256)": {
        "details": "See {IERC721-approve}."
      },
      "balanceOf(address)": {
        "details": "See {IERC721-balanceOf}."
      },
      "getApproved(uint256)": {
        "details": "See {IERC721-getApproved}."
      },
      "isApprovedForAll(address,address)": {
        "details": "See {IERC721-isApprovedForAll}."
      },
      "name()": {
        "details": "See {IERC721Metadata-name}."
      },
      "ownerOf(uint256)": {
        "details": "See {IERC721-ownerOf}."
      },
      "safeTransferFrom(address,address,uint256)": {
        "details": "See {IERC721-safeTransferFrom}."
      },
      "safeTransferFrom(address,address,uint256,bytes)": {
        "details": "See {IERC721-safeTransferFrom}."
      },
      "setApprovalForAll(address,bool)": {
        "details": "See {IERC721-setApprovalForAll}."
      },
      "supportsInterface(bytes4)": {
        "details": "See {IERC165-supportsInterface}."
      },
      "symbol()": {
        "details": "See {IERC721Metadata-symbol}."
      },
      "tokenURI(uint256)": {
        "details": "See {IERC721Metadata-tokenURI}."
      },
      "transferFrom(address,address,uint256)": {
        "details": "See {IERC721-transferFrom}."
      }
    },
    "version": 1
  },
  "userdoc": {
    "kind": "user",
    "methods": {},
    "version": 1
  },
  "storageLayout": {
    "storage": [
      {
        "astId": 25,
        "contract": "contracts/MetisERC721.sol:MetisERC721",
        "label": "_name",
        "offset": 0,
        "slot": "0",
        "type": "t_string_storage"
      },
      {
        "astId": 27,
        "contract": "contracts/MetisERC721.sol:MetisERC721",
        "label": "_symbol",
        "offset": 0,
        "slot": "1",
        "type": "t_string_storage"
      },
      {
        "astId": 31,
        "contract": "contracts/MetisERC721.sol:MetisERC721",
        "label": "_owners",
        "offset": 0,
        "slot": "2",
        "type": "t_mapping(t_uint256,t_address)"
      },
      {
        "astId": 35,
        "contract": "contracts/MetisERC721.sol:MetisERC721",
        "label": "_balances",
        "offset": 0,
        "slot": "3",
        "type": "t_mapping(t_address,t_uint256)"
      },
      {
        "astId": 39,
        "contract": "contracts/MetisERC721.sol:MetisERC721",
        "label": "_tokenApprovals",
        "offset": 0,
        "slot": "4",
        "type": "t_mapping(t_uint256,t_address)"
      },
      {
        "astId": 45,
        "contract": "contracts/MetisERC721.sol:MetisERC721",
        "label": "_operatorApprovals",
        "offset": 0,
        "slot": "5",
        "type": "t_mapping(t_address,t_mapping(t_address,t_bool))"
      },
      {
        "astId": 1557,
        "contract": "contracts/MetisERC721.sol:MetisERC721",
        "label": "_tokenIds",
        "offset": 0,
        "slot": "6",
        "type": "t_uint256"
      },
      {
        "astId": 1559,
        "contract": "contracts/MetisERC721.sol:MetisERC721",
        "label": "_bidIds",
        "offset": 0,
        "slot": "7",
        "type": "t_uint256"
      },
      {
        "astId": 1561,
        "contract": "contracts/MetisERC721.sol:MetisERC721",
        "label": "_eventIds",
        "offset": 0,
        "slot": "8",
        "type": "t_uint256"
      },
      {
        "astId": 1563,
        "contract": "contracts/MetisERC721.sol:MetisERC721",
        "label": "_EventTokenIds",
        "offset": 0,
        "slot": "9",
        "type": "t_uint256"
      },
      {
        "astId": 1565,
        "contract": "contracts/MetisERC721.sol:MetisERC721",
        "label": "_TokenBidIds",
        "offset": 0,
        "slot": "10",
        "type": "t_uint256"
      },
      {
        "astId": 1569,
        "contract": "contracts/MetisERC721.sol:MetisERC721",
        "label": "data1",
        "offset": 0,
        "slot": "11",
        "type": "t_array(t_string_storage)2_storage"
      },
      {
        "astId": 1571,
        "contract": "contracts/MetisERC721.sol:MetisERC721",
        "label": "_EventTokenSearchIds",
        "offset": 0,
        "slot": "13",
        "type": "t_uint256"
      },
      {
        "astId": 1577,
        "contract": "contracts/MetisERC721.sol:MetisERC721",
        "label": "AllEventTokens",
        "offset": 0,
        "slot": "14",
        "type": "t_mapping(t_uint256,t_array(t_string_storage)2_storage)"
      },
      {
        "astId": 1583,
        "contract": "contracts/MetisERC721.sol:MetisERC721",
        "label": "AllTokensBids",
        "offset": 0,
        "slot": "15",
        "type": "t_mapping(t_uint256,t_array(t_string_storage)2_storage)"
      },
      {
        "astId": 1589,
        "contract": "contracts/MetisERC721.sol:MetisERC721",
        "label": "_SearchedStore",
        "offset": 0,
        "slot": "16",
        "type": "t_mapping(t_uint256,t_array(t_string_storage)2_storage)"
      },
      {
        "astId": 1593,
        "contract": "contracts/MetisERC721.sol:MetisERC721",
        "label": "_bidURIs",
        "offset": 0,
        "slot": "17",
        "type": "t_mapping(t_uint256,t_string_storage)"
      },
      {
        "astId": 1597,
        "contract": "contracts/MetisERC721.sol:MetisERC721",
        "label": "_tokenURIs",
        "offset": 0,
        "slot": "18",
        "type": "t_mapping(t_uint256,t_string_storage)"
      },
      {
        "astId": 1601,
        "contract": "contracts/MetisERC721.sol:MetisERC721",
        "label": "_eventURIs",
        "offset": 0,
        "slot": "19",
        "type": "t_mapping(t_uint256,t_string_storage)"
      },
      {
        "astId": 1605,
        "contract": "contracts/MetisERC721.sol:MetisERC721",
        "label": "_eventTokens",
        "offset": 0,
        "slot": "20",
        "type": "t_mapping(t_string_memory_ptr,t_string_storage)"
      }
    ],
    "types": {
      "t_address": {
        "encoding": "inplace",
        "label": "address",
        "numberOfBytes": "20"
      },
      "t_array(t_string_storage)2_storage": {
        "base": "t_string_storage",
        "encoding": "inplace",
        "label": "string[2]",
        "numberOfBytes": "64"
      },
      "t_bool": {
        "encoding": "inplace",
        "label": "bool",
        "numberOfBytes": "1"
      },
      "t_mapping(t_address,t_bool)": {
        "encoding": "mapping",
        "key": "t_address",
        "label": "mapping(address => bool)",
        "numberOfBytes": "32",
        "value": "t_bool"
      },
      "t_mapping(t_address,t_mapping(t_address,t_bool))": {
        "encoding": "mapping",
        "key": "t_address",
        "label": "mapping(address => mapping(address => bool))",
        "numberOfBytes": "32",
        "value": "t_mapping(t_address,t_bool)"
      },
      "t_mapping(t_address,t_uint256)": {
        "encoding": "mapping",
        "key": "t_address",
        "label": "mapping(address => uint256)",
        "numberOfBytes": "32",
        "value": "t_uint256"
      },
      "t_mapping(t_string_memory_ptr,t_string_storage)": {
        "encoding": "mapping",
        "key": "t_string_memory_ptr",
        "label": "mapping(string => string)",
        "numberOfBytes": "32",
        "value": "t_string_storage"
      },
      "t_mapping(t_uint256,t_address)": {
        "encoding": "mapping",
        "key": "t_uint256",
        "label": "mapping(uint256 => address)",
        "numberOfBytes": "32",
        "value": "t_address"
      },
      "t_mapping(t_uint256,t_array(t_string_storage)2_storage)": {
        "encoding": "mapping",
        "key": "t_uint256",
        "label": "mapping(uint256 => string[2])",
        "numberOfBytes": "32",
        "value": "t_array(t_string_storage)2_storage"
      },
      "t_mapping(t_uint256,t_string_storage)": {
        "encoding": "mapping",
        "key": "t_uint256",
        "label": "mapping(uint256 => string)",
        "numberOfBytes": "32",
        "value": "t_string_storage"
      },
      "t_string_memory_ptr": {
        "encoding": "bytes",
        "label": "string",
        "numberOfBytes": "32"
      },
      "t_string_storage": {
        "encoding": "bytes",
        "label": "string",
        "numberOfBytes": "32"
      },
      "t_uint256": {
        "encoding": "inplace",
        "label": "uint256",
        "numberOfBytes": "32"
      }
    }
  }
}