{
  "address": "0x5C1c17724DD36D42E4A2A5689546f70938E3a9EF",
  "abi": [
    {
      "inputs": [
        {
          "internalType": "string",
          "name": "name",
          "type": "string"
        },
        {
          "internalType": "string",
          "name": "symbol",
          "type": "string"
        }
      ],
      "stateMutability": "nonpayable",
      "type": "constructor"
    },
    {
      "anonymous": false,
      "inputs": [
        {
          "indexed": true,
          "internalType": "address",
          "name": "owner",
          "type": "address"
        },
        {
          "indexed": true,
          "internalType": "address",
          "name": "approved",
          "type": "address"
        },
        {
          "indexed": true,
          "internalType": "uint256",
          "name": "tokenId",
          "type": "uint256"
        }
      ],
      "name": "Approval",
      "type": "event"
    },
    {
      "anonymous": false,
      "inputs": [
        {
          "indexed": true,
          "internalType": "address",
          "name": "owner",
          "type": "address"
        },
        {
          "indexed": true,
          "internalType": "address",
          "name": "operator",
          "type": "address"
        },
        {
          "indexed": false,
          "internalType": "bool",
          "name": "approved",
          "type": "bool"
        }
      ],
      "name": "ApprovalForAll",
      "type": "event"
    },
    {
      "anonymous": false,
      "inputs": [
        {
          "indexed": true,
          "internalType": "address",
          "name": "from",
          "type": "address"
        },
        {
          "indexed": true,
          "internalType": "address",
          "name": "to",
          "type": "address"
        },
        {
          "indexed": true,
          "internalType": "uint256",
          "name": "tokenId",
          "type": "uint256"
        }
      ],
      "name": "Transfer",
      "type": "event"
    },
    {
      "inputs": [],
      "name": "_EventTokenSearchIds",
      "outputs": [
        {
          "internalType": "uint256",
          "name": "",
          "type": "uint256"
        }
      ],
      "stateMutability": "view",
      "type": "function"
    },
    {
      "inputs": [
        {
          "internalType": "uint256",
          "name": "",
          "type": "uint256"
        },
        {
          "internalType": "uint256",
          "name": "",
          "type": "uint256"
        }
      ],
      "name": "_SearchedStore",
      "outputs": [
        {
          "internalType": "string",
          "name": "",
          "type": "string"
        }
      ],
      "stateMutability": "view",
      "type": "function"
    },
    {
      "inputs": [
        {
          "internalType": "uint256",
          "name": "_tokenId",
          "type": "uint256"
        }
      ],
      "name": "_getSearchedTokenURI",
      "outputs": [
        {
          "internalType": "string",
          "name": "",
          "type": "string"
        }
      ],
      "stateMutability": "view",
      "type": "function"
    },
    {
      "inputs": [
        {
          "internalType": "uint256",
          "name": "eventId",
          "type": "uint256"
        },
        {
          "internalType": "string",
          "name": "_eventURI",
          "type": "string"
        }
      ],
      "name": "_setEventURI",
      "outputs": [],
      "stateMutability": "nonpayable",
      "type": "function"
    },
    {
      "inputs": [
        {
          "internalType": "uint256",
          "name": "EventTokenId",
          "type": "uint256"
        },
        {
          "internalType": "uint256",
          "name": "EventId",
          "type": "uint256"
        },
        {
          "internalType": "string",
          "name": "_tokenURI",
          "type": "string"
        }
      ],
      "name": "_setTokenEvent",
      "outputs": [],
      "stateMutability": "nonpayable",
      "type": "function"
    },
    {
      "inputs": [
        {
          "internalType": "uint256",
          "name": "tokenId",
          "type": "uint256"
        },
        {
          "internalType": "string",
          "name": "_tokenURI",
          "type": "string"
        }
      ],
      "name": "_setTokenURI",
      "outputs": [],
      "stateMutability": "nonpayable",
      "type": "function"
    },
    {
      "inputs": [
        {
          "internalType": "uint256",
          "name": "",
          "type": "uint256"
        }
      ],
      "name": "allbidstoken",
      "outputs": [
        {
          "internalType": "uint256",
          "name": "TokenID",
          "type": "uint256"
        },
        {
          "internalType": "string",
          "name": "bid",
          "type": "string"
        },
        {
          "internalType": "address",
          "name": "bidderHash",
          "type": "address"
        },
        {
          "internalType": "string",
          "name": "date",
          "type": "string"
        },
        {
          "internalType": "string",
          "name": "status",
          "type": "string"
        }
      ],
      "stateMutability": "view",
      "type": "function"
    },
    {
      "inputs": [
        {
          "internalType": "address",
          "name": "to",
          "type": "address"
        },
        {
          "internalType": "uint256",
          "name": "tokenId",
          "type": "uint256"
        }
      ],
      "name": "approve",
      "outputs": [],
      "stateMutability": "nonpayable",
      "type": "function"
    },
    {
      "inputs": [
        {
          "internalType": "address",
          "name": "owner",
          "type": "address"
        }
      ],
      "name": "balanceOf",
      "outputs": [
        {
          "internalType": "uint256",
          "name": "",
          "type": "uint256"
        }
      ],
      "stateMutability": "view",
      "type": "function"
    },
    {
      "inputs": [],
      "name": "bidCount",
      "outputs": [
        {
          "internalType": "uint256",
          "name": "",
          "type": "uint256"
        }
      ],
      "stateMutability": "view",
      "type": "function"
    },
    {
      "inputs": [
        {
          "internalType": "address",
          "name": "_claimer",
          "type": "address"
        },
        {
          "internalType": "string",
          "name": "_tokenURI",
          "type": "string"
        },
        {
          "internalType": "uint256",
          "name": "_eventid",
          "type": "uint256"
        }
      ],
      "name": "claimToken",
      "outputs": [
        {
          "internalType": "uint256",
          "name": "",
          "type": "uint256"
        }
      ],
      "stateMutability": "nonpayable",
      "type": "function"
    },
    {
      "inputs": [
        {
          "internalType": "uint256",
          "name": "_tokenId",
          "type": "uint256"
        },
        {
          "internalType": "string",
          "name": "_bid",
          "type": "string"
        },
        {
          "internalType": "string",
          "name": "_updatedURI",
          "type": "string"
        },
        {
          "internalType": "address",
          "name": "bidder",
          "type": "address"
        }
      ],
      "name": "createBid",
      "outputs": [],
      "stateMutability": "nonpayable",
      "type": "function"
    },
    {
      "inputs": [
        {
          "internalType": "address",
          "name": "_claimer",
          "type": "address"
        },
        {
          "internalType": "string",
          "name": "_eventURI",
          "type": "string"
        }
      ],
      "name": "createEvent",
      "outputs": [
        {
          "internalType": "uint256",
          "name": "",
          "type": "uint256"
        }
      ],
      "stateMutability": "nonpayable",
      "type": "function"
    },
    {
      "inputs": [
        {
          "internalType": "uint256",
          "name": "eventId",
          "type": "uint256"
        }
      ],
      "name": "eventURI",
      "outputs": [
        {
          "internalType": "string",
          "name": "",
          "type": "string"
        }
      ],
      "stateMutability": "view",
      "type": "function"
    },
    {
      "inputs": [
        {
          "internalType": "uint256",
          "name": "tokenId",
          "type": "uint256"
        }
      ],
      "name": "getApproved",
      "outputs": [
        {
          "internalType": "address",
          "name": "",
          "type": "address"
        }
      ],
      "stateMutability": "view",
      "type": "function"
    },
    {
      "inputs": [
        {
          "internalType": "uint256",
          "name": "EventID",
          "type": "uint256"
        }
      ],
      "name": "gettokenSearchEventTotal",
      "outputs": [
        {
          "internalType": "string[]",
          "name": "",
          "type": "string[]"
        }
      ],
      "stateMutability": "view",
      "type": "function"
    },
    {
      "inputs": [
        {
          "internalType": "address",
          "name": "owner",
          "type": "address"
        },
        {
          "internalType": "address",
          "name": "operator",
          "type": "address"
        }
      ],
      "name": "isApprovedForAll",
      "outputs": [
        {
          "internalType": "bool",
          "name": "",
          "type": "bool"
        }
      ],
      "stateMutability": "view",
      "type": "function"
    },
    {
      "inputs": [],
      "name": "name",
      "outputs": [
        {
          "internalType": "string",
          "name": "",
          "type": "string"
        }
      ],
      "stateMutability": "view",
      "type": "function"
    },
    {
      "inputs": [
        {
          "internalType": "uint256",
          "name": "tokenId",
          "type": "uint256"
        }
      ],
      "name": "ownerOf",
      "outputs": [
        {
          "internalType": "address",
          "name": "",
          "type": "address"
        }
      ],
      "stateMutability": "view",
      "type": "function"
    },
    {
      "inputs": [
        {
          "internalType": "address",
          "name": "from",
          "type": "address"
        },
        {
          "internalType": "address",
          "name": "to",
          "type": "address"
        },
        {
          "internalType": "uint256",
          "name": "tokenId",
          "type": "uint256"
        }
      ],
      "name": "safeTransferFrom",
      "outputs": [],
      "stateMutability": "nonpayable",
      "type": "function"
    },
    {
      "inputs": [
        {
          "internalType": "address",
          "name": "from",
          "type": "address"
        },
        {
          "internalType": "address",
          "name": "to",
          "type": "address"
        },
        {
          "internalType": "uint256",
          "name": "tokenId",
          "type": "uint256"
        },
        {
          "internalType": "bytes",
          "name": "_data",
          "type": "bytes"
        }
      ],
      "name": "safeTransferFrom",
      "outputs": [],
      "stateMutability": "nonpayable",
      "type": "function"
    },
    {
      "inputs": [
        {
          "internalType": "address",
          "name": "operator",
          "type": "address"
        },
        {
          "internalType": "bool",
          "name": "approved",
          "type": "bool"
        }
      ],
      "name": "setApprovalForAll",
      "outputs": [],
      "stateMutability": "nonpayable",
      "type": "function"
    },
    {
      "inputs": [
        {
          "internalType": "bytes4",
          "name": "interfaceId",
          "type": "bytes4"
        }
      ],
      "name": "supportsInterface",
      "outputs": [
        {
          "internalType": "bool",
          "name": "",
          "type": "bool"
        }
      ],
      "stateMutability": "view",
      "type": "function"
    },
    {
      "inputs": [],
      "name": "symbol",
      "outputs": [
        {
          "internalType": "string",
          "name": "",
          "type": "string"
        }
      ],
      "stateMutability": "view",
      "type": "function"
    },
    {
      "inputs": [
        {
          "internalType": "uint256",
          "name": "tokenId",
          "type": "uint256"
        }
      ],
      "name": "tokenURI",
      "outputs": [
        {
          "internalType": "string",
          "name": "",
          "type": "string"
        }
      ],
      "stateMutability": "view",
      "type": "function"
    },
    {
      "inputs": [],
      "name": "totalEvent",
      "outputs": [
        {
          "internalType": "uint256",
          "name": "",
          "type": "uint256"
        }
      ],
      "stateMutability": "view",
      "type": "function"
    },
    {
      "inputs": [],
      "name": "totalSupply",
      "outputs": [
        {
          "internalType": "uint256",
          "name": "",
          "type": "uint256"
        }
      ],
      "stateMutability": "view",
      "type": "function"
    },
    {
      "inputs": [
        {
          "internalType": "address",
          "name": "from",
          "type": "address"
        },
        {
          "internalType": "address",
          "name": "to",
          "type": "address"
        },
        {
          "internalType": "uint256",
          "name": "tokenId",
          "type": "uint256"
        }
      ],
      "name": "transferFrom",
      "outputs": [],
      "stateMutability": "nonpayable",
      "type": "function"
    }
  ],
  "transactionHash": "0x237942448dca6234ed041fcbaf6f8ed9f34cf348a57f3ec3363e6bc85f8f623a",
  "args": [
    "Metis",
    "MET"
  ],
  "solcInputHash": "0c25280713217fdd89b5f8003e005d77",
  "bytecode": "0x608060405260006012553480156200001657600080fd5b5060405162003d7438038062003d7483398181016040528101906200003c9190620001a8565b81818160009080519060200190620000569291906200007a565b5080600190805190602001906200006f9291906200007a565b5050505050620003b1565b8280546200008890620002c2565b90600052602060002090601f016020900481019282620000ac5760008555620000f8565b82601f10620000c757805160ff1916838001178555620000f8565b82800160010185558215620000f8579182015b82811115620000f7578251825591602001919060010190620000da565b5b5090506200010791906200010b565b5090565b5b80821115620001265760008160009055506001016200010c565b5090565b6000620001416200013b8462000256565b6200022d565b90508281526020810184848401111562000160576200015f62000391565b5b6200016d8482856200028c565b509392505050565b600082601f8301126200018d576200018c6200038c565b5b81516200019f8482602086016200012a565b91505092915050565b60008060408385031215620001c257620001c16200039b565b5b600083015167ffffffffffffffff811115620001e357620001e262000396565b5b620001f18582860162000175565b925050602083015167ffffffffffffffff81111562000215576200021462000396565b5b620002238582860162000175565b9150509250929050565b6000620002396200024c565b9050620002478282620002f8565b919050565b6000604051905090565b600067ffffffffffffffff8211156200027457620002736200035d565b5b6200027f82620003a0565b9050602081019050919050565b60005b83811015620002ac5780820151818401526020810190506200028f565b83811115620002bc576000848401525b50505050565b60006002820490506001821680620002db57607f821691505b60208210811415620002f257620002f16200032e565b5b50919050565b6200030382620003a0565b810181811067ffffffffffffffff821117156200032557620003246200035d565b5b80604052505050565b7f4e487b7100000000000000000000000000000000000000000000000000000000600052602260045260246000fd5b7f4e487b7100000000000000000000000000000000000000000000000000000000600052604160045260246000fd5b600080fd5b600080fd5b600080fd5b600080fd5b6000601f19601f8301169050919050565b6139b380620003c16000396000f3fe608060405234801561001057600080fd5b50600436106101c45760003560e01c8063652d4725116100f9578063a22cb46511610097578063b88d4fde11610071578063b88d4fde14610541578063c87b56dd1461055d578063e985e9c51461058d578063eb1d234d146105bd576101c4565b8063a22cb465146104d7578063b10a5dfa146104f3578063b40a562714610523576101c4565b80637eadfa6a116100d35780637eadfa6a1461044f5780638b5910731461046d57806395d89b4114610489578063a0fd0c6a146104a7576101c4565b8063652d4725146103bf57806370a08231146103ef5780637cedbc1e1461041f576101c4565b806318160ddd1161016657806335011d901161014057806335011d90146103275780633592dd801461035757806342842e0e146103735780636352211e1461038f576101c4565b806318160ddd146102d15780631cd043d6146102ef57806323b872dd1461030b576101c4565b806306fdde03116101a257806306fdde0314610249578063081812fc14610267578063095ea7b314610297578063144cbca6146102b3576101c4565b806301538868146101c9578063019524e7146101e557806301ffc9a714610219575b600080fd5b6101e360048036038101906101de9190612794565b6105ed565b005b6101ff60048036038101906101fa9190612767565b610661565b604051610210959493929190613003565b60405180910390f35b610233600480360381019061022e919061270d565b61084f565b6040516102409190612dcb565b60405180910390f35b610251610931565b60405161025e9190612de6565b60405180910390f35b610281600480360381019061027c9190612767565b6109c3565b60405161028e9190612d42565b60405180910390f35b6102b160048036038101906102ac91906126cd565b610a48565b005b6102bb610b60565b6040516102c89190612fe8565b60405180910390f35b6102d9610b66565b6040516102e69190612fe8565b60405180910390f35b61030960048036038101906103049190612794565b610b70565b005b610325600480360381019061032091906124ec565b610b9c565b005b610341600480360381019061033c919061265e565b610bfc565b60405161034e9190612fe8565b60405180910390f35b610371600480360381019061036c91906128cf565b610c5f565b005b61038d600480360381019061038891906124ec565b610ca3565b005b6103a960048036038101906103a49190612767565b610cc3565b6040516103b69190612d42565b60405180910390f35b6103d960048036038101906103d49190612602565b610d75565b6040516103e69190612fe8565b60405180910390f35b6104096004803603810190610404919061247f565b610da6565b6040516104169190612fe8565b60405180910390f35b61043960048036038101906104349190612767565b610e5e565b6040516104469190612de6565b60405180910390f35b610457610f17565b6040516104649190612fe8565b60405180910390f35b610487600480360381019061048291906127f0565b610f21565b005b6104916110ce565b60405161049e9190612de6565b60405180910390f35b6104c160048036038101906104bc9190612767565b611160565b6040516104ce9190612de6565b60405180910390f35b6104f160048036038101906104ec91906125c2565b611205565b005b61050d6004803603810190610508919061288f565b61121b565b60405161051a9190612de6565b60405180910390f35b61052b6112cb565b6040516105389190612fe8565b60405180910390f35b61055b6004803603810190610556919061253f565b6112d1565b005b61057760048036038101906105729190612767565b611333565b6040516105849190612de6565b60405180910390f35b6105a760048036038101906105a291906124ac565b611420565b6040516105b49190612dcb565b60405180910390f35b6105d760048036038101906105d29190612767565b6114b4565b6040516105e49190612da9565b60405180910390f35b6105f682611664565b610635576040517f08c379a000000000000000000000000000000000000000000000000000000000815260040161062c90612f48565b60405180910390fd5b80600e6000848152602001908152602001600020908051906020019061065c9291906121dc565b505050565b601160205280600052604060002060009150905080600001549080600101805461068a90613305565b80601f01602080910402602001604051908101604052809291908181526020018280546106b690613305565b80156107035780601f106106d857610100808354040283529160200191610703565b820191906000526020600020905b8154815290600101906020018083116106e657829003601f168201915b5050505050908060020160009054906101000a900473ffffffffffffffffffffffffffffffffffffffff169080600301805461073e90613305565b80601f016020809104026020016040519081016040528092919081815260200182805461076a90613305565b80156107b75780601f1061078c576101008083540402835291602001916107b7565b820191906000526020600020905b81548152906001019060200180831161079a57829003601f168201915b5050505050908060040180546107cc90613305565b80601f01602080910402602001604051908101604052809291908181526020018280546107f890613305565b80156108455780601f1061081a57610100808354040283529160200191610845565b820191906000526020600020905b81548152906001019060200180831161082857829003601f168201915b5050505050905085565b60007f80ac58cd000000000000000000000000000000000000000000000000000000007bffffffffffffffffffffffffffffffffffffffffffffffffffffffff1916827bffffffffffffffffffffffffffffffffffffffffffffffffffffffff1916148061091a57507f5b5e139f000000000000000000000000000000000000000000000000000000007bffffffffffffffffffffffffffffffffffffffffffffffffffffffff1916827bffffffffffffffffffffffffffffffffffffffffffffffffffffffff1916145b8061092a5750610929826116d0565b5b9050919050565b60606000805461094090613305565b80601f016020809104026020016040519081016040528092919081815260200182805461096c90613305565b80156109b95780601f1061098e576101008083540402835291602001916109b9565b820191906000526020600020905b81548152906001019060200180831161099c57829003601f168201915b5050505050905090565b60006109ce82611664565b610a0d576040517f08c379a0000000000000000000000000000000000000000000000000000000008152600401610a0490612f28565b60405180910390fd5b6004600083815260200190815260200160002060009054906101000a900473ffffffffffffffffffffffffffffffffffffffff169050919050565b6000610a5382610cc3565b90508073ffffffffffffffffffffffffffffffffffffffff168373ffffffffffffffffffffffffffffffffffffffff161415610ac4576040517f08c379a0000000000000000000000000000000000000000000000000000000008152600401610abb90612fa8565b60405180910390fd5b8073ffffffffffffffffffffffffffffffffffffffff16610ae361173a565b73ffffffffffffffffffffffffffffffffffffffff161480610b125750610b1181610b0c61173a565b611420565b5b610b51576040517f08c379a0000000000000000000000000000000000000000000000000000000008152600401610b4890612ea8565b60405180910390fd5b610b5b8383611742565b505050565b600b5481565b6000600654905090565b80600f60008481526020019081526020016000209080519060200190610b979291906121dc565b505050565b610bad610ba761173a565b826117fb565b610bec576040517f08c379a0000000000000000000000000000000000000000000000000000000008152600401610be390612fc8565b60405180910390fd5b610bf78383836118d9565b505050565b6000610c0a84600654611b35565b610c16600654846105ed565b610c236008548385610c5f565b60066000815480929190610c3690613368565b919050555060086000815480929190610c4e90613368565b919050555060065490509392505050565b6040518060400160405280610c7384611d03565b815260200182815250600c6000858152602001908152602001600020906002610c9d929190612262565b50505050565b610cbe838383604051806020016040528060008152506112d1565b505050565b6000806002600084815260200190815260200160002060009054906101000a900473ffffffffffffffffffffffffffffffffffffffff169050600073ffffffffffffffffffffffffffffffffffffffff168173ffffffffffffffffffffffffffffffffffffffff161415610d6c576040517f08c379a0000000000000000000000000000000000000000000000000000000008152600401610d6390612ee8565b60405180910390fd5b80915050919050565b6000610d8360075483610b70565b60076000815480929190610d9690613368565b9190505550600754905092915050565b60008073ffffffffffffffffffffffffffffffffffffffff168273ffffffffffffffffffffffffffffffffffffffff161415610e17576040517f08c379a0000000000000000000000000000000000000000000000000000000008152600401610e0e90612ec8565b60405180910390fd5b600360008373ffffffffffffffffffffffffffffffffffffffff1673ffffffffffffffffffffffffffffffffffffffff168152602001908152602001600020549050919050565b6060600d6000838152602001908152602001600020600060028110610e8657610e8561346f565b5b018054610e9290613305565b80601f0160208091040260200160405190810160405280929190818152602001828054610ebe90613305565b8015610f0b5780601f10610ee057610100808354040283529160200191610f0b565b820191906000526020600020905b815481529060010190602001808311610eee57829003601f168201915b50505050509050919050565b6000600754905090565b60126000815480929190610f3490613368565b919050555081600e60008681526020019081526020016000209080519060200190610f609291906121dc565b506040518060a001604052808581526020018481526020018273ffffffffffffffffffffffffffffffffffffffff1681526020016040518060400160405280600481526020017f646174650000000000000000000000000000000000000000000000000000000081525081526020016040518060400160405280600381526020017f42696400000000000000000000000000000000000000000000000000000000008152508152506011600060125481526020019081526020016000206000820151816000015560208201518160010190805190602001906110439291906121dc565b5060408201518160020160006101000a81548173ffffffffffffffffffffffffffffffffffffffff021916908373ffffffffffffffffffffffffffffffffffffffff16021790555060608201518160030190805190602001906110a79291906121dc565b5060808201518160040190805190602001906110c49291906121dc565b5090505050505050565b6060600180546110dd90613305565b80601f016020809104026020016040519081016040528092919081815260200182805461110990613305565b80156111565780601f1061112b57610100808354040283529160200191611156565b820191906000526020600020905b81548152906001019060200180831161113957829003601f168201915b5050505050905090565b6060600f6000838152602001908152602001600020805461118090613305565b80601f01602080910402602001604051908101604052809291908181526020018280546111ac90613305565b80156111f95780601f106111ce576101008083540402835291602001916111f9565b820191906000526020600020905b8154815290600101906020018083116111dc57829003601f168201915b50505050509050919050565b61121761121061173a565b8383611e64565b5050565b600d602052816000526040600020816002811061123757600080fd5b0160009150915050805461124a90613305565b80601f016020809104026020016040519081016040528092919081815260200182805461127690613305565b80156112c35780601f10611298576101008083540402835291602001916112c3565b820191906000526020600020905b8154815290600101906020018083116112a657829003601f168201915b505050505081565b60125481565b6112e26112dc61173a565b836117fb565b611321576040517f08c379a000000000000000000000000000000000000000000000000000000000815260040161131890612fc8565b60405180910390fd5b61132d84848484611fd1565b50505050565b606061133e82611664565b61137d576040517f08c379a000000000000000000000000000000000000000000000000000000000815260040161137490612f88565b60405180910390fd5b600e6000838152602001908152602001600020805461139b90613305565b80601f01602080910402602001604051908101604052809291908181526020018280546113c790613305565b80156114145780601f106113e957610100808354040283529160200191611414565b820191906000526020600020905b8154815290600101906020018083116113f757829003601f168201915b50505050509050919050565b6000600560008473ffffffffffffffffffffffffffffffffffffffff1673ffffffffffffffffffffffffffffffffffffffff16815260200190815260200160002060008373ffffffffffffffffffffffffffffffffffffffff1673ffffffffffffffffffffffffffffffffffffffff16815260200190815260200160002060009054906101000a900460ff16905092915050565b60606000600a67ffffffffffffffff8111156114d3576114d261349e565b5b60405190808252806020026020018201604052801561150657816020015b60608152602001906001900390816114f15790505b5090506000805b6008548110156116595761152085611d03565b80519060200120600c600083815260200190815260200160002060006002811061154d5761154c61346f565b5b0160405161155b9190612d2b565b6040518091039020141561164657600c600082815260200190815260200160002060016002811061158f5761158e61346f565b5b01805461159b90613305565b80601f01602080910402602001604051908101604052809291908181526020018280546115c790613305565b80156116145780601f106115e957610100808354040283529160200191611614565b820191906000526020600020905b8154815290600101906020018083116115f757829003601f168201915b505050505083838151811061162c5761162b61346f565b5b6020026020010181905250818061164290613368565b9250505b808061165190613368565b91505061150d565b508192505050919050565b60008073ffffffffffffffffffffffffffffffffffffffff166002600084815260200190815260200160002060009054906101000a900473ffffffffffffffffffffffffffffffffffffffff1673ffffffffffffffffffffffffffffffffffffffff1614159050919050565b60007f01ffc9a7000000000000000000000000000000000000000000000000000000007bffffffffffffffffffffffffffffffffffffffffffffffffffffffff1916827bffffffffffffffffffffffffffffffffffffffffffffffffffffffff1916149050919050565b600033905090565b816004600083815260200190815260200160002060006101000a81548173ffffffffffffffffffffffffffffffffffffffff021916908373ffffffffffffffffffffffffffffffffffffffff160217905550808273ffffffffffffffffffffffffffffffffffffffff166117b583610cc3565b73ffffffffffffffffffffffffffffffffffffffff167f8c5be1e5ebec7d5bd14f71427d1e84f3dd0314c0f7b2291e5b200ac8c7c3b92560405160405180910390a45050565b600061180682611664565b611845576040517f08c379a000000000000000000000000000000000000000000000000000000000815260040161183c90612e88565b60405180910390fd5b600061185083610cc3565b90508073ffffffffffffffffffffffffffffffffffffffff168473ffffffffffffffffffffffffffffffffffffffff1614806118bf57508373ffffffffffffffffffffffffffffffffffffffff166118a7846109c3565b73ffffffffffffffffffffffffffffffffffffffff16145b806118d057506118cf8185611420565b5b91505092915050565b8273ffffffffffffffffffffffffffffffffffffffff166118f982610cc3565b73ffffffffffffffffffffffffffffffffffffffff161461194f576040517f08c379a000000000000000000000000000000000000000000000000000000000815260040161194690612f68565b60405180910390fd5b600073ffffffffffffffffffffffffffffffffffffffff168273ffffffffffffffffffffffffffffffffffffffff1614156119bf576040517f08c379a00000000000000000000000000000000000000000000000000000000081526004016119b690612e48565b60405180910390fd5b6119ca83838361202d565b6119d5600082611742565b6001600360008573ffffffffffffffffffffffffffffffffffffffff1673ffffffffffffffffffffffffffffffffffffffff1681526020019081526020016000206000828254611a25919061321b565b925050819055506001600360008473ffffffffffffffffffffffffffffffffffffffff1673ffffffffffffffffffffffffffffffffffffffff1681526020019081526020016000206000828254611a7c9190613194565b92505081905550816002600083815260200190815260200160002060006101000a81548173ffffffffffffffffffffffffffffffffffffffff021916908373ffffffffffffffffffffffffffffffffffffffff160217905550808273ffffffffffffffffffffffffffffffffffffffff168473ffffffffffffffffffffffffffffffffffffffff167fddf252ad1be2c89b69c2b068fc378daa952ba7f163c4a11628f55a4df523b3ef60405160405180910390a4505050565b600073ffffffffffffffffffffffffffffffffffffffff168273ffffffffffffffffffffffffffffffffffffffff161415611ba5576040517f08c379a0000000000000000000000000000000000000000000000000000000008152600401611b9c90612f08565b60405180910390fd5b611bae81611664565b15611bee576040517f08c379a0000000000000000000000000000000000000000000000000000000008152600401611be590612e28565b60405180910390fd5b611bfa6000838361202d565b6001600360008473ffffffffffffffffffffffffffffffffffffffff1673ffffffffffffffffffffffffffffffffffffffff1681526020019081526020016000206000828254611c4a9190613194565b92505081905550816002600083815260200190815260200160002060006101000a81548173ffffffffffffffffffffffffffffffffffffffff021916908373ffffffffffffffffffffffffffffffffffffffff160217905550808273ffffffffffffffffffffffffffffffffffffffff16600073ffffffffffffffffffffffffffffffffffffffff167fddf252ad1be2c89b69c2b068fc378daa952ba7f163c4a11628f55a4df523b3ef60405160405180910390a45050565b60606000821415611d4b576040518060400160405280600181526020017f30000000000000000000000000000000000000000000000000000000000000008152509050611e5f565b600082905060005b60008214611d7d578080611d6690613368565b915050600a82611d7691906131ea565b9150611d53565b60008167ffffffffffffffff811115611d9957611d9861349e565b5b6040519080825280601f01601f191660200182016040528015611dcb5781602001600182028036833780820191505090505b5090505b60008514611e5857600182611de4919061321b565b9150600a85611df391906133b1565b6030611dff9190613194565b60f81b818381518110611e1557611e1461346f565b5b60200101907effffffffffffffffffffffffffffffffffffffffffffffffffffffffffffff1916908160001a905350600a85611e5191906131ea565b9450611dcf565b8093505050505b919050565b8173ffffffffffffffffffffffffffffffffffffffff168373ffffffffffffffffffffffffffffffffffffffff161415611ed3576040517f08c379a0000000000000000000000000000000000000000000000000000000008152600401611eca90612e68565b60405180910390fd5b80600560008573ffffffffffffffffffffffffffffffffffffffff1673ffffffffffffffffffffffffffffffffffffffff16815260200190815260200160002060008473ffffffffffffffffffffffffffffffffffffffff1673ffffffffffffffffffffffffffffffffffffffff16815260200190815260200160002060006101000a81548160ff0219169083151502179055508173ffffffffffffffffffffffffffffffffffffffff168373ffffffffffffffffffffffffffffffffffffffff167f17307eab39ab6107e8899845ad3d59bd9653f200f220920489ca2b5937696c3183604051611fc49190612dcb565b60405180910390a3505050565b611fdc8484846118d9565b611fe884848484612032565b612027576040517f08c379a000000000000000000000000000000000000000000000000000000000815260040161201e90612e08565b60405180910390fd5b50505050565b505050565b60006120538473ffffffffffffffffffffffffffffffffffffffff166121c9565b156121bc578373ffffffffffffffffffffffffffffffffffffffff1663150b7a0261207c61173a565b8786866040518563ffffffff1660e01b815260040161209e9493929190612d5d565b602060405180830381600087803b1580156120b857600080fd5b505af19250505080156120e957506040513d601f19601f820116820180604052508101906120e6919061273a565b60015b61216c573d8060008114612119576040519150601f19603f3d011682016040523d82523d6000602084013e61211e565b606091505b50600081511415612164576040517f08c379a000000000000000000000000000000000000000000000000000000000815260040161215b90612e08565b60405180910390fd5b805181602001fd5b63150b7a0260e01b7bffffffffffffffffffffffffffffffffffffffffffffffffffffffff1916817bffffffffffffffffffffffffffffffffffffffffffffffffffffffff1916149150506121c1565b600190505b949350505050565b600080823b905060008111915050919050565b8280546121e890613305565b90600052602060002090601f01602090048101928261220a5760008555612251565b82601f1061222357805160ff1916838001178555612251565b82800160010185558215612251579182015b82811115612250578251825591602001919060010190612235565b5b50905061225e91906122b5565b5090565b82600281019282156122a4579160200282015b828111156122a35782518290805190602001906122939291906121dc565b5091602001919060010190612275565b5b5090506122b191906122d2565b5090565b5b808211156122ce5760008160009055506001016122b6565b5090565b5b808211156122f257600081816122e991906122f6565b506001016122d3565b5090565b50805461230290613305565b6000825580601f106123145750612333565b601f01602090049060005260206000209081019061233291906122b5565b5b50565b600061234961234484613090565b61306b565b905082815260208101848484011115612365576123646134d2565b5b6123708482856132c3565b509392505050565b600061238b612386846130c1565b61306b565b9050828152602081018484840111156123a7576123a66134d2565b5b6123b28482856132c3565b509392505050565b6000813590506123c981613921565b92915050565b6000813590506123de81613938565b92915050565b6000813590506123f38161394f565b92915050565b6000815190506124088161394f565b92915050565b600082601f830112612423576124226134cd565b5b8135612433848260208601612336565b91505092915050565b600082601f830112612451576124506134cd565b5b8135612461848260208601612378565b91505092915050565b60008135905061247981613966565b92915050565b600060208284031215612495576124946134dc565b5b60006124a3848285016123ba565b91505092915050565b600080604083850312156124c3576124c26134dc565b5b60006124d1858286016123ba565b92505060206124e2858286016123ba565b9150509250929050565b600080600060608486031215612505576125046134dc565b5b6000612513868287016123ba565b9350506020612524868287016123ba565b92505060406125358682870161246a565b9150509250925092565b60008060008060808587031215612559576125586134dc565b5b6000612567878288016123ba565b9450506020612578878288016123ba565b93505060406125898782880161246a565b925050606085013567ffffffffffffffff8111156125aa576125a96134d7565b5b6125b68782880161240e565b91505092959194509250565b600080604083850312156125d9576125d86134dc565b5b60006125e7858286016123ba565b92505060206125f8858286016123cf565b9150509250929050565b60008060408385031215612619576126186134dc565b5b6000612627858286016123ba565b925050602083013567ffffffffffffffff811115612648576126476134d7565b5b6126548582860161243c565b9150509250929050565b600080600060608486031215612677576126766134dc565b5b6000612685868287016123ba565b935050602084013567ffffffffffffffff8111156126a6576126a56134d7565b5b6126b28682870161243c565b92505060406126c38682870161246a565b9150509250925092565b600080604083850312156126e4576126e36134dc565b5b60006126f2858286016123ba565b92505060206127038582860161246a565b9150509250929050565b600060208284031215612723576127226134dc565b5b6000612731848285016123e4565b91505092915050565b6000602082840312156127505761274f6134dc565b5b600061275e848285016123f9565b91505092915050565b60006020828403121561277d5761277c6134dc565b5b600061278b8482850161246a565b91505092915050565b600080604083850312156127ab576127aa6134dc565b5b60006127b98582860161246a565b925050602083013567ffffffffffffffff8111156127da576127d96134d7565b5b6127e68582860161243c565b9150509250929050565b6000806000806080858703121561280a576128096134dc565b5b60006128188782880161246a565b945050602085013567ffffffffffffffff811115612839576128386134d7565b5b6128458782880161243c565b935050604085013567ffffffffffffffff811115612866576128656134d7565b5b6128728782880161243c565b9250506060612883878288016123ba565b91505092959194509250565b600080604083850312156128a6576128a56134dc565b5b60006128b48582860161246a565b92505060206128c58582860161246a565b9150509250929050565b6000806000606084860312156128e8576128e76134dc565b5b60006128f68682870161246a565b93505060206129078682870161246a565b925050604084013567ffffffffffffffff811115612928576129276134d7565b5b6129348682870161243c565b9150509250925092565b600061294a8383612a9d565b905092915050565b61295b8161324f565b82525050565b600061296c82613117565b6129768185613145565b935083602082028501612988856130f2565b8060005b858110156129c457848403895281516129a5858261293e565b94506129b083613138565b925060208a0199505060018101905061298c565b50829750879550505050505092915050565b6129df81613261565b82525050565b60006129f082613122565b6129fa8185613156565b9350612a0a8185602086016132d2565b612a13816134e1565b840191505092915050565b60008154612a2b81613305565b612a358186613167565b94506001821660008114612a505760018114612a6157612a94565b60ff19831686528186019350612a94565b612a6a85613102565b60005b83811015612a8c57815481890152600182019150602081019050612a6d565b838801955050505b50505092915050565b6000612aa88261312d565b612ab28185613172565b9350612ac28185602086016132d2565b612acb816134e1565b840191505092915050565b6000612ae18261312d565b612aeb8185613183565b9350612afb8185602086016132d2565b612b04816134e1565b840191505092915050565b6000612b1c603283613183565b9150612b27826134f2565b604082019050919050565b6000612b3f601c83613183565b9150612b4a82613541565b602082019050919050565b6000612b62602483613183565b9150612b6d8261356a565b604082019050919050565b6000612b85601983613183565b9150612b90826135b9565b602082019050919050565b6000612ba8602c83613183565b9150612bb3826135e2565b604082019050919050565b6000612bcb603883613183565b9150612bd682613631565b604082019050919050565b6000612bee602a83613183565b9150612bf982613680565b604082019050919050565b6000612c11602983613183565b9150612c1c826136cf565b604082019050919050565b6000612c34602083613183565b9150612c3f8261371e565b602082019050919050565b6000612c57602c83613183565b9150612c6282613747565b604082019050919050565b6000612c7a602c83613183565b9150612c8582613796565b604082019050919050565b6000612c9d602983613183565b9150612ca8826137e5565b604082019050919050565b6000612cc0602f83613183565b9150612ccb82613834565b604082019050919050565b6000612ce3602183613183565b9150612cee82613883565b604082019050919050565b6000612d06603183613183565b9150612d11826138d2565b604082019050919050565b612d25816132b9565b82525050565b6000612d378284612a1e565b915081905092915050565b6000602082019050612d576000830184612952565b92915050565b6000608082019050612d726000830187612952565b612d7f6020830186612952565b612d8c6040830185612d1c565b8181036060830152612d9e81846129e5565b905095945050505050565b60006020820190508181036000830152612dc38184612961565b905092915050565b6000602082019050612de060008301846129d6565b92915050565b60006020820190508181036000830152612e008184612ad6565b905092915050565b60006020820190508181036000830152612e2181612b0f565b9050919050565b60006020820190508181036000830152612e4181612b32565b9050919050565b60006020820190508181036000830152612e6181612b55565b9050919050565b60006020820190508181036000830152612e8181612b78565b9050919050565b60006020820190508181036000830152612ea181612b9b565b9050919050565b60006020820190508181036000830152612ec181612bbe565b9050919050565b60006020820190508181036000830152612ee181612be1565b9050919050565b60006020820190508181036000830152612f0181612c04565b9050919050565b60006020820190508181036000830152612f2181612c27565b9050919050565b60006020820190508181036000830152612f4181612c4a565b9050919050565b60006020820190508181036000830152612f6181612c6d565b9050919050565b60006020820190508181036000830152612f8181612c90565b9050919050565b60006020820190508181036000830152612fa181612cb3565b9050919050565b60006020820190508181036000830152612fc181612cd6565b9050919050565b60006020820190508181036000830152612fe181612cf9565b9050919050565b6000602082019050612ffd6000830184612d1c565b92915050565b600060a0820190506130186000830188612d1c565b818103602083015261302a8187612ad6565b90506130396040830186612952565b818103606083015261304b8185612ad6565b9050818103608083015261305f8184612ad6565b90509695505050505050565b6000613075613086565b90506130818282613337565b919050565b6000604051905090565b600067ffffffffffffffff8211156130ab576130aa61349e565b5b6130b4826134e1565b9050602081019050919050565b600067ffffffffffffffff8211156130dc576130db61349e565b5b6130e5826134e1565b9050602081019050919050565b6000819050602082019050919050565b60008190508160005260206000209050919050565b600081519050919050565b600081519050919050565b600081519050919050565b6000602082019050919050565b600082825260208201905092915050565b600082825260208201905092915050565b600081905092915050565b600082825260208201905092915050565b600082825260208201905092915050565b600061319f826132b9565b91506131aa836132b9565b9250827fffffffffffffffffffffffffffffffffffffffffffffffffffffffffffffffff038211156131df576131de6133e2565b5b828201905092915050565b60006131f5826132b9565b9150613200836132b9565b9250826132105761320f613411565b5b828204905092915050565b6000613226826132b9565b9150613231836132b9565b925082821015613244576132436133e2565b5b828203905092915050565b600061325a82613299565b9050919050565b60008115159050919050565b60007fffffffff0000000000000000000000000000000000000000000000000000000082169050919050565b600073ffffffffffffffffffffffffffffffffffffffff82169050919050565b6000819050919050565b82818337600083830152505050565b60005b838110156132f05780820151818401526020810190506132d5565b838111156132ff576000848401525b50505050565b6000600282049050600182168061331d57607f821691505b6020821081141561333157613330613440565b5b50919050565b613340826134e1565b810181811067ffffffffffffffff8211171561335f5761335e61349e565b5b80604052505050565b6000613373826132b9565b91507fffffffffffffffffffffffffffffffffffffffffffffffffffffffffffffffff8214156133a6576133a56133e2565b5b600182019050919050565b60006133bc826132b9565b91506133c7836132b9565b9250826133d7576133d6613411565b5b828206905092915050565b7f4e487b7100000000000000000000000000000000000000000000000000000000600052601160045260246000fd5b7f4e487b7100000000000000000000000000000000000000000000000000000000600052601260045260246000fd5b7f4e487b7100000000000000000000000000000000000000000000000000000000600052602260045260246000fd5b7f4e487b7100000000000000000000000000000000000000000000000000000000600052603260045260246000fd5b7f4e487b7100000000000000000000000000000000000000000000000000000000600052604160045260246000fd5b600080fd5b600080fd5b600080fd5b600080fd5b6000601f19601f8301169050919050565b7f4552433732313a207472616e7366657220746f206e6f6e20455243373231526560008201527f63656976657220696d706c656d656e7465720000000000000000000000000000602082015250565b7f4552433732313a20746f6b656e20616c7265616479206d696e74656400000000600082015250565b7f4552433732313a207472616e7366657220746f20746865207a65726f2061646460008201527f7265737300000000000000000000000000000000000000000000000000000000602082015250565b7f4552433732313a20617070726f766520746f2063616c6c657200000000000000600082015250565b7f4552433732313a206f70657261746f7220717565727920666f72206e6f6e657860008201527f697374656e7420746f6b656e0000000000000000000000000000000000000000602082015250565b7f4552433732313a20617070726f76652063616c6c6572206973206e6f74206f7760008201527f6e6572206e6f7220617070726f76656420666f7220616c6c0000000000000000602082015250565b7f4552433732313a2062616c616e636520717565727920666f7220746865207a6560008201527f726f206164647265737300000000000000000000000000000000000000000000602082015250565b7f4552433732313a206f776e657220717565727920666f72206e6f6e657869737460008201527f656e7420746f6b656e0000000000000000000000000000000000000000000000602082015250565b7f4552433732313a206d696e7420746f20746865207a65726f2061646472657373600082015250565b7f4552433732313a20617070726f76656420717565727920666f72206e6f6e657860008201527f697374656e7420746f6b656e0000000000000000000000000000000000000000602082015250565b7f4552433732314d657461646174613a2055524920736574206f66206e6f6e657860008201527f697374656e7420746f6b656e0000000000000000000000000000000000000000602082015250565b7f4552433732313a207472616e73666572206f6620746f6b656e2074686174206960008201527f73206e6f74206f776e0000000000000000000000000000000000000000000000602082015250565b7f4552433732314d657461646174613a2055524920717565727920666f72206e6f60008201527f6e6578697374656e7420746f6b656e0000000000000000000000000000000000602082015250565b7f4552433732313a20617070726f76616c20746f2063757272656e74206f776e6560008201527f7200000000000000000000000000000000000000000000000000000000000000602082015250565b7f4552433732313a207472616e736665722063616c6c6572206973206e6f74206f60008201527f776e6572206e6f7220617070726f766564000000000000000000000000000000602082015250565b61392a8161324f565b811461393557600080fd5b50565b61394181613261565b811461394c57600080fd5b50565b6139588161326d565b811461396357600080fd5b50565b61396f816132b9565b811461397a57600080fd5b5056fea2646970667358221220e91f3afca2edebd9d9aa1a8080c8bb88561c64c4044ef98ec707b40fb1d1b11264736f6c63430008060033",
  "devdoc": {
    "kind": "dev",
    "methods": {
      "approve(address,uint256)": {
        "details": "See {IERC721-approve}."
      },
      "balanceOf(address)": {
        "details": "See {IERC721-balanceOf}."
      },
      "getApproved(uint256)": {
        "details": "See {IERC721-getApproved}."
      },
      "isApprovedForAll(address,address)": {
        "details": "See {IERC721-isApprovedForAll}."
      },
      "name()": {
        "details": "See {IERC721Metadata-name}."
      },
      "ownerOf(uint256)": {
        "details": "See {IERC721-ownerOf}."
      },
      "safeTransferFrom(address,address,uint256)": {
        "details": "See {IERC721-safeTransferFrom}."
      },
      "safeTransferFrom(address,address,uint256,bytes)": {
        "details": "See {IERC721-safeTransferFrom}."
      },
      "setApprovalForAll(address,bool)": {
        "details": "See {IERC721-setApprovalForAll}."
      },
      "supportsInterface(bytes4)": {
        "details": "See {IERC165-supportsInterface}."
      },
      "symbol()": {
        "details": "See {IERC721Metadata-symbol}."
      },
      "tokenURI(uint256)": {
        "details": "See {IERC721Metadata-tokenURI}."
      },
      "transferFrom(address,address,uint256)": {
        "details": "See {IERC721-transferFrom}."
      }
    },
    "version": 1
  },
  "userdoc": {
    "kind": "user",
    "methods": {},
    "version": 1
  },
  "storageLayout": {
    "storage": [
      {
        "astId": 25,
        "contract": "contracts/MetisERC721.sol:MetisERC721",
        "label": "_name",
        "offset": 0,
        "slot": "0",
        "type": "t_string_storage"
      },
      {
        "astId": 27,
        "contract": "contracts/MetisERC721.sol:MetisERC721",
        "label": "_symbol",
        "offset": 0,
        "slot": "1",
        "type": "t_string_storage"
      },
      {
        "astId": 31,
        "contract": "contracts/MetisERC721.sol:MetisERC721",
        "label": "_owners",
        "offset": 0,
        "slot": "2",
        "type": "t_mapping(t_uint256,t_address)"
      },
      {
        "astId": 35,
        "contract": "contracts/MetisERC721.sol:MetisERC721",
        "label": "_balances",
        "offset": 0,
        "slot": "3",
        "type": "t_mapping(t_address,t_uint256)"
      },
      {
        "astId": 39,
        "contract": "contracts/MetisERC721.sol:MetisERC721",
        "label": "_tokenApprovals",
        "offset": 0,
        "slot": "4",
        "type": "t_mapping(t_uint256,t_address)"
      },
      {
        "astId": 45,
        "contract": "contracts/MetisERC721.sol:MetisERC721",
        "label": "_operatorApprovals",
        "offset": 0,
        "slot": "5",
        "type": "t_mapping(t_address,t_mapping(t_address,t_bool))"
      },
      {
        "astId": 1557,
        "contract": "contracts/MetisERC721.sol:MetisERC721",
        "label": "_tokenIds",
        "offset": 0,
        "slot": "6",
        "type": "t_uint256"
      },
      {
        "astId": 1559,
        "contract": "contracts/MetisERC721.sol:MetisERC721",
        "label": "_eventIds",
        "offset": 0,
        "slot": "7",
        "type": "t_uint256"
      },
      {
        "astId": 1561,
        "contract": "contracts/MetisERC721.sol:MetisERC721",
        "label": "_EventTokenIds",
        "offset": 0,
        "slot": "8",
        "type": "t_uint256"
      },
      {
        "astId": 1565,
        "contract": "contracts/MetisERC721.sol:MetisERC721",
        "label": "data1",
        "offset": 0,
        "slot": "9",
        "type": "t_array(t_string_storage)2_storage"
      },
      {
        "astId": 1567,
        "contract": "contracts/MetisERC721.sol:MetisERC721",
        "label": "_EventTokenSearchIds",
        "offset": 0,
        "slot": "11",
        "type": "t_uint256"
      },
      {
        "astId": 1573,
        "contract": "contracts/MetisERC721.sol:MetisERC721",
        "label": "AllEventTokens",
        "offset": 0,
        "slot": "12",
        "type": "t_mapping(t_uint256,t_array(t_string_storage)2_storage)"
      },
      {
        "astId": 1579,
        "contract": "contracts/MetisERC721.sol:MetisERC721",
        "label": "_SearchedStore",
        "offset": 0,
        "slot": "13",
        "type": "t_mapping(t_uint256,t_array(t_string_storage)2_storage)"
      },
      {
        "astId": 1583,
        "contract": "contracts/MetisERC721.sol:MetisERC721",
        "label": "_tokenURIs",
        "offset": 0,
        "slot": "14",
        "type": "t_mapping(t_uint256,t_string_storage)"
      },
      {
        "astId": 1587,
        "contract": "contracts/MetisERC721.sol:MetisERC721",
        "label": "_eventURIs",
        "offset": 0,
        "slot": "15",
        "type": "t_mapping(t_uint256,t_string_storage)"
      },
      {
        "astId": 1591,
        "contract": "contracts/MetisERC721.sol:MetisERC721",
        "label": "_eventTokens",
        "offset": 0,
        "slot": "16",
        "type": "t_mapping(t_string_memory_ptr,t_string_storage)"
      },
      {
        "astId": 1596,
        "contract": "contracts/MetisERC721.sol:MetisERC721",
        "label": "allbidstoken",
        "offset": 0,
        "slot": "17",
        "type": "t_mapping(t_uint256,t_struct(Bid)1610_storage)"
      },
      {
        "astId": 1599,
        "contract": "contracts/MetisERC721.sol:MetisERC721",
        "label": "bidCount",
        "offset": 0,
        "slot": "18",
        "type": "t_uint256"
      }
    ],
    "types": {
      "t_address": {
        "encoding": "inplace",
        "label": "address",
        "numberOfBytes": "20"
      },
      "t_array(t_string_storage)2_storage": {
        "base": "t_string_storage",
        "encoding": "inplace",
        "label": "string[2]",
        "numberOfBytes": "64"
      },
      "t_bool": {
        "encoding": "inplace",
        "label": "bool",
        "numberOfBytes": "1"
      },
      "t_mapping(t_address,t_bool)": {
        "encoding": "mapping",
        "key": "t_address",
        "label": "mapping(address => bool)",
        "numberOfBytes": "32",
        "value": "t_bool"
      },
      "t_mapping(t_address,t_mapping(t_address,t_bool))": {
        "encoding": "mapping",
        "key": "t_address",
        "label": "mapping(address => mapping(address => bool))",
        "numberOfBytes": "32",
        "value": "t_mapping(t_address,t_bool)"
      },
      "t_mapping(t_address,t_uint256)": {
        "encoding": "mapping",
        "key": "t_address",
        "label": "mapping(address => uint256)",
        "numberOfBytes": "32",
        "value": "t_uint256"
      },
      "t_mapping(t_string_memory_ptr,t_string_storage)": {
        "encoding": "mapping",
        "key": "t_string_memory_ptr",
        "label": "mapping(string => string)",
        "numberOfBytes": "32",
        "value": "t_string_storage"
      },
      "t_mapping(t_uint256,t_address)": {
        "encoding": "mapping",
        "key": "t_uint256",
        "label": "mapping(uint256 => address)",
        "numberOfBytes": "32",
        "value": "t_address"
      },
      "t_mapping(t_uint256,t_array(t_string_storage)2_storage)": {
        "encoding": "mapping",
        "key": "t_uint256",
        "label": "mapping(uint256 => string[2])",
        "numberOfBytes": "32",
        "value": "t_array(t_string_storage)2_storage"
      },
      "t_mapping(t_uint256,t_string_storage)": {
        "encoding": "mapping",
        "key": "t_uint256",
        "label": "mapping(uint256 => string)",
        "numberOfBytes": "32",
        "value": "t_string_storage"
      },
      "t_mapping(t_uint256,t_struct(Bid)1610_storage)": {
        "encoding": "mapping",
        "key": "t_uint256",
        "label": "mapping(uint256 => struct MetisERC721.Bid)",
        "numberOfBytes": "32",
        "value": "t_struct(Bid)1610_storage"
      },
      "t_string_memory_ptr": {
        "encoding": "bytes",
        "label": "string",
        "numberOfBytes": "32"
      },
      "t_string_storage": {
        "encoding": "bytes",
        "label": "string",
        "numberOfBytes": "32"
      },
      "t_struct(Bid)1610_storage": {
        "encoding": "inplace",
        "label": "struct MetisERC721.Bid",
        "members": [
          {
            "astId": 1601,
            "contract": "contracts/MetisERC721.sol:MetisERC721",
            "label": "TokenID",
            "offset": 0,
            "slot": "0",
            "type": "t_uint256"
          },
          {
            "astId": 1603,
            "contract": "contracts/MetisERC721.sol:MetisERC721",
            "label": "bid",
            "offset": 0,
            "slot": "1",
            "type": "t_string_storage"
          },
          {
            "astId": 1605,
            "contract": "contracts/MetisERC721.sol:MetisERC721",
            "label": "bidderHash",
            "offset": 0,
            "slot": "2",
            "type": "t_address"
          },
          {
            "astId": 1607,
            "contract": "contracts/MetisERC721.sol:MetisERC721",
            "label": "date",
            "offset": 0,
            "slot": "3",
            "type": "t_string_storage"
          },
          {
            "astId": 1609,
            "contract": "contracts/MetisERC721.sol:MetisERC721",
            "label": "status",
            "offset": 0,
            "slot": "4",
            "type": "t_string_storage"
          }
        ],
        "numberOfBytes": "160"
      },
      "t_uint256": {
        "encoding": "inplace",
        "label": "uint256",
        "numberOfBytes": "32"
      }
    }
  }
}