{
  "address": "0x4fd72132e87149b264c27ed6cAa4376179798338",
  "abi": [
    {
      "inputs": [
        {
          "internalType": "string",
          "name": "name",
          "type": "string"
        },
        {
          "internalType": "string",
          "name": "symbol",
          "type": "string"
        }
      ],
      "stateMutability": "nonpayable",
      "type": "constructor"
    },
    {
      "anonymous": false,
      "inputs": [
        {
          "indexed": true,
          "internalType": "address",
          "name": "owner",
          "type": "address"
        },
        {
          "indexed": true,
          "internalType": "address",
          "name": "approved",
          "type": "address"
        },
        {
          "indexed": true,
          "internalType": "uint256",
          "name": "tokenId",
          "type": "uint256"
        }
      ],
      "name": "Approval",
      "type": "event"
    },
    {
      "anonymous": false,
      "inputs": [
        {
          "indexed": true,
          "internalType": "address",
          "name": "owner",
          "type": "address"
        },
        {
          "indexed": true,
          "internalType": "address",
          "name": "operator",
          "type": "address"
        },
        {
          "indexed": false,
          "internalType": "bool",
          "name": "approved",
          "type": "bool"
        }
      ],
      "name": "ApprovalForAll",
      "type": "event"
    },
    {
      "anonymous": false,
      "inputs": [
        {
          "indexed": true,
          "internalType": "address",
          "name": "from",
          "type": "address"
        },
        {
          "indexed": true,
          "internalType": "address",
          "name": "to",
          "type": "address"
        },
        {
          "indexed": true,
          "internalType": "uint256",
          "name": "tokenId",
          "type": "uint256"
        }
      ],
      "name": "Transfer",
      "type": "event"
    },
    {
      "inputs": [],
      "name": "_EventTokenSearchIds",
      "outputs": [
        {
          "internalType": "uint256",
          "name": "",
          "type": "uint256"
        }
      ],
      "stateMutability": "view",
      "type": "function"
    },
    {
      "inputs": [
        {
          "internalType": "uint256",
          "name": "",
          "type": "uint256"
        },
        {
          "internalType": "uint256",
          "name": "",
          "type": "uint256"
        }
      ],
      "name": "_SearchedStore",
      "outputs": [
        {
          "internalType": "string",
          "name": "",
          "type": "string"
        }
      ],
      "stateMutability": "view",
      "type": "function"
    },
    {
      "inputs": [
        {
          "internalType": "uint256",
          "name": "_tokenId",
          "type": "uint256"
        }
      ],
      "name": "_getSearchedTokenURI",
      "outputs": [
        {
          "internalType": "string",
          "name": "",
          "type": "string"
        }
      ],
      "stateMutability": "view",
      "type": "function"
    },
    {
      "inputs": [
        {
          "internalType": "uint256",
          "name": "eventId",
          "type": "uint256"
        },
        {
          "internalType": "string",
          "name": "_eventURI",
          "type": "string"
        }
      ],
      "name": "_setEventURI",
      "outputs": [],
      "stateMutability": "nonpayable",
      "type": "function"
    },
    {
      "inputs": [
        {
          "internalType": "uint256",
          "name": "EventTokenId",
          "type": "uint256"
        },
        {
          "internalType": "uint256",
          "name": "EventId",
          "type": "uint256"
        },
        {
          "internalType": "string",
          "name": "_tokenURI",
          "type": "string"
        }
      ],
      "name": "_setTokenEvent",
      "outputs": [],
      "stateMutability": "nonpayable",
      "type": "function"
    },
    {
      "inputs": [
        {
          "internalType": "uint256",
          "name": "tokenId",
          "type": "uint256"
        },
        {
          "internalType": "string",
          "name": "_tokenURI",
          "type": "string"
        }
      ],
      "name": "_setTokenURI",
      "outputs": [],
      "stateMutability": "nonpayable",
      "type": "function"
    },
    {
      "inputs": [
        {
          "internalType": "uint256",
          "name": "",
          "type": "uint256"
        }
      ],
      "name": "allbidstoken",
      "outputs": [
        {
          "internalType": "uint256",
          "name": "TokenID",
          "type": "uint256"
        },
        {
          "internalType": "string",
          "name": "bid",
          "type": "string"
        },
        {
          "internalType": "address",
          "name": "bidderHash",
          "type": "address"
        },
        {
          "internalType": "string",
          "name": "date",
          "type": "string"
        },
        {
          "internalType": "string",
          "name": "status",
          "type": "string"
        }
      ],
      "stateMutability": "view",
      "type": "function"
    },
    {
      "inputs": [
        {
          "internalType": "address",
          "name": "to",
          "type": "address"
        },
        {
          "internalType": "uint256",
          "name": "tokenId",
          "type": "uint256"
        }
      ],
      "name": "approve",
      "outputs": [],
      "stateMutability": "nonpayable",
      "type": "function"
    },
    {
      "inputs": [
        {
          "internalType": "address",
          "name": "owner",
          "type": "address"
        }
      ],
      "name": "balanceOf",
      "outputs": [
        {
          "internalType": "uint256",
          "name": "",
          "type": "uint256"
        }
      ],
      "stateMutability": "view",
      "type": "function"
    },
    {
      "inputs": [],
      "name": "bidCount",
      "outputs": [
        {
          "internalType": "uint256",
          "name": "",
          "type": "uint256"
        }
      ],
      "stateMutability": "view",
      "type": "function"
    },
    {
      "inputs": [
        {
          "internalType": "address",
          "name": "_claimer",
          "type": "address"
        },
        {
          "internalType": "string",
          "name": "_tokenURI",
          "type": "string"
        },
        {
          "internalType": "uint256",
          "name": "_eventid",
          "type": "uint256"
        }
      ],
      "name": "claimToken",
      "outputs": [
        {
          "internalType": "uint256",
          "name": "",
          "type": "uint256"
        }
      ],
      "stateMutability": "nonpayable",
      "type": "function"
    },
    {
      "inputs": [
        {
          "internalType": "uint256",
          "name": "_tokenId",
          "type": "uint256"
        },
        {
          "internalType": "string",
          "name": "_bid",
          "type": "string"
        },
        {
          "internalType": "string",
          "name": "_updatedURI",
          "type": "string"
        },
        {
          "internalType": "address",
          "name": "bidder",
          "type": "address"
        },
        {
          "internalType": "uint256",
          "name": "_eventid",
          "type": "uint256"
        }
      ],
      "name": "createBid",
      "outputs": [],
      "stateMutability": "nonpayable",
      "type": "function"
    },
    {
      "inputs": [
        {
          "internalType": "address",
          "name": "_claimer",
          "type": "address"
        },
        {
          "internalType": "string",
          "name": "_eventURI",
          "type": "string"
        }
      ],
      "name": "createEvent",
      "outputs": [
        {
          "internalType": "uint256",
          "name": "",
          "type": "uint256"
        }
      ],
      "stateMutability": "nonpayable",
      "type": "function"
    },
    {
      "inputs": [
        {
          "internalType": "uint256",
          "name": "eventId",
          "type": "uint256"
        }
      ],
      "name": "eventURI",
      "outputs": [
        {
          "internalType": "string",
          "name": "",
          "type": "string"
        }
      ],
      "stateMutability": "view",
      "type": "function"
    },
    {
      "inputs": [
        {
          "internalType": "uint256",
          "name": "tokenId",
          "type": "uint256"
        }
      ],
      "name": "getApproved",
      "outputs": [
        {
          "internalType": "address",
          "name": "",
          "type": "address"
        }
      ],
      "stateMutability": "view",
      "type": "function"
    },
    {
      "inputs": [
        {
          "internalType": "uint256",
          "name": "EventId",
          "type": "uint256"
        },
        {
          "internalType": "string",
          "name": "_tokenURI",
          "type": "string"
        }
      ],
      "name": "getGetEventsTokenID",
      "outputs": [
        {
          "internalType": "uint256",
          "name": "",
          "type": "uint256"
        }
      ],
      "stateMutability": "view",
      "type": "function"
    },
    {
      "inputs": [
        {
          "internalType": "string",
          "name": "_tokenURI",
          "type": "string"
        }
      ],
      "name": "gettokenIdByUri",
      "outputs": [
        {
          "internalType": "uint256",
          "name": "",
          "type": "uint256"
        }
      ],
      "stateMutability": "view",
      "type": "function"
    },
    {
      "inputs": [
        {
          "internalType": "uint256",
          "name": "EventID",
          "type": "uint256"
        }
      ],
      "name": "gettokenSearchEventTotal",
      "outputs": [
        {
          "internalType": "string[]",
          "name": "",
          "type": "string[]"
        }
      ],
      "stateMutability": "view",
      "type": "function"
    },
    {
      "inputs": [
        {
          "internalType": "address",
          "name": "owner",
          "type": "address"
        },
        {
          "internalType": "address",
          "name": "operator",
          "type": "address"
        }
      ],
      "name": "isApprovedForAll",
      "outputs": [
        {
          "internalType": "bool",
          "name": "",
          "type": "bool"
        }
      ],
      "stateMutability": "view",
      "type": "function"
    },
    {
      "inputs": [],
      "name": "name",
      "outputs": [
        {
          "internalType": "string",
          "name": "",
          "type": "string"
        }
      ],
      "stateMutability": "view",
      "type": "function"
    },
    {
      "inputs": [
        {
          "internalType": "uint256",
          "name": "tokenId",
          "type": "uint256"
        }
      ],
      "name": "ownerOf",
      "outputs": [
        {
          "internalType": "address",
          "name": "",
          "type": "address"
        }
      ],
      "stateMutability": "view",
      "type": "function"
    },
    {
      "inputs": [
        {
          "internalType": "address",
          "name": "from",
          "type": "address"
        },
        {
          "internalType": "address",
          "name": "to",
          "type": "address"
        },
        {
          "internalType": "uint256",
          "name": "tokenId",
          "type": "uint256"
        }
      ],
      "name": "safeTransferFrom",
      "outputs": [],
      "stateMutability": "nonpayable",
      "type": "function"
    },
    {
      "inputs": [
        {
          "internalType": "address",
          "name": "from",
          "type": "address"
        },
        {
          "internalType": "address",
          "name": "to",
          "type": "address"
        },
        {
          "internalType": "uint256",
          "name": "tokenId",
          "type": "uint256"
        },
        {
          "internalType": "bytes",
          "name": "_data",
          "type": "bytes"
        }
      ],
      "name": "safeTransferFrom",
      "outputs": [],
      "stateMutability": "nonpayable",
      "type": "function"
    },
    {
      "inputs": [
        {
          "internalType": "address",
          "name": "operator",
          "type": "address"
        },
        {
          "internalType": "bool",
          "name": "approved",
          "type": "bool"
        }
      ],
      "name": "setApprovalForAll",
      "outputs": [],
      "stateMutability": "nonpayable",
      "type": "function"
    },
    {
      "inputs": [
        {
          "internalType": "bytes4",
          "name": "interfaceId",
          "type": "bytes4"
        }
      ],
      "name": "supportsInterface",
      "outputs": [
        {
          "internalType": "bool",
          "name": "",
          "type": "bool"
        }
      ],
      "stateMutability": "view",
      "type": "function"
    },
    {
      "inputs": [],
      "name": "symbol",
      "outputs": [
        {
          "internalType": "string",
          "name": "",
          "type": "string"
        }
      ],
      "stateMutability": "view",
      "type": "function"
    },
    {
      "inputs": [
        {
          "internalType": "uint256",
          "name": "tokenId",
          "type": "uint256"
        }
      ],
      "name": "tokenURI",
      "outputs": [
        {
          "internalType": "string",
          "name": "",
          "type": "string"
        }
      ],
      "stateMutability": "view",
      "type": "function"
    },
    {
      "inputs": [],
      "name": "totalEvent",
      "outputs": [
        {
          "internalType": "uint256",
          "name": "",
          "type": "uint256"
        }
      ],
      "stateMutability": "view",
      "type": "function"
    },
    {
      "inputs": [],
      "name": "totalSupply",
      "outputs": [
        {
          "internalType": "uint256",
          "name": "",
          "type": "uint256"
        }
      ],
      "stateMutability": "view",
      "type": "function"
    },
    {
      "inputs": [
        {
          "internalType": "address",
          "name": "from",
          "type": "address"
        },
        {
          "internalType": "address",
          "name": "to",
          "type": "address"
        },
        {
          "internalType": "uint256",
          "name": "tokenId",
          "type": "uint256"
        }
      ],
      "name": "transferFrom",
      "outputs": [],
      "stateMutability": "nonpayable",
      "type": "function"
    }
  ],
  "transactionHash": "0xc7b3638881559886beb5ce417f2877367bf7df8c47f509cee6eba0d21a3e3294",
  "args": [
    "Metis",
    "MET"
  ],
  "solcInputHash": "e49d7870867b261337bfdc6d9a6bf76b",
  "bytecode": "0x608060405260006012553480156200001657600080fd5b50604051620040453803806200404583398181016040528101906200003c9190620001a8565b81818160009080519060200190620000569291906200007a565b5080600190805190602001906200006f9291906200007a565b5050505050620003b1565b8280546200008890620002c2565b90600052602060002090601f016020900481019282620000ac5760008555620000f8565b82601f10620000c757805160ff1916838001178555620000f8565b82800160010185558215620000f8579182015b82811115620000f7578251825591602001919060010190620000da565b5b5090506200010791906200010b565b5090565b5b80821115620001265760008160009055506001016200010c565b5090565b6000620001416200013b8462000256565b6200022d565b90508281526020810184848401111562000160576200015f62000391565b5b6200016d8482856200028c565b509392505050565b600082601f8301126200018d576200018c6200038c565b5b81516200019f8482602086016200012a565b91505092915050565b60008060408385031215620001c257620001c16200039b565b5b600083015167ffffffffffffffff811115620001e357620001e262000396565b5b620001f18582860162000175565b925050602083015167ffffffffffffffff81111562000215576200021462000396565b5b620002238582860162000175565b9150509250929050565b6000620002396200024c565b9050620002478282620002f8565b919050565b6000604051905090565b600067ffffffffffffffff8211156200027457620002736200035d565b5b6200027f82620003a0565b9050602081019050919050565b60005b83811015620002ac5780820151818401526020810190506200028f565b83811115620002bc576000848401525b50505050565b60006002820490506001821680620002db57607f821691505b60208210811415620002f257620002f16200032e565b5b50919050565b6200030382620003a0565b810181811067ffffffffffffffff821117156200032557620003246200035d565b5b80604052505050565b7f4e487b7100000000000000000000000000000000000000000000000000000000600052602260045260246000fd5b7f4e487b7100000000000000000000000000000000000000000000000000000000600052604160045260246000fd5b600080fd5b600080fd5b600080fd5b600080fd5b6000601f19601f8301169050919050565b613c8480620003c16000396000f3fe608060405234801561001057600080fd5b50600436106101da5760003560e01c80636352211e11610104578063a0fd0c6a116100a2578063b88d4fde11610071578063b88d4fde146105b7578063c87b56dd146105d3578063e985e9c514610603578063eb1d234d14610633576101da565b8063a0fd0c6a1461051d578063a22cb4651461054d578063b10a5dfa14610569578063b40a562714610599576101da565b80637cedbc1e116100de5780637cedbc1e146104815780637eadfa6a146104b1578063932a196b146104cf57806395d89b41146104ff576101da565b80636352211e146103f1578063652d47251461042157806370a0823114610451576101da565b806318160ddd1161017c57806335011d901161014b57806335011d901461036d5780633592dd801461039d57806342842e0e146103b95780635f0b464a146103d5576101da565b806318160ddd146102e75780631cd043d61461030557806323b872dd1461032157806328520ab71461033d576101da565b806306fdde03116101b857806306fdde031461025f578063081812fc1461027d578063095ea7b3146102ad578063144cbca6146102c9576101da565b806301538868146101df578063019524e7146101fb57806301ffc9a71461022f575b600080fd5b6101f960048036038101906101f49190612a51565b610663565b005b61021560048036038101906102109190612a24565b6106d7565b6040516102269594939291906132d4565b60405180910390f35b61024960048036038101906102449190612981565b6108c5565b604051610256919061309c565b60405180910390f35b6102676109a7565b60405161027491906130b7565b60405180910390f35b61029760048036038101906102929190612a24565b610a39565b6040516102a49190613013565b60405180910390f35b6102c760048036038101906102c29190612941565b610abe565b005b6102d1610bd6565b6040516102de91906132b9565b60405180910390f35b6102ef610bdc565b6040516102fc91906132b9565b60405180910390f35b61031f600480360381019061031a9190612a51565b610be6565b005b61033b60048036038101906103369190612760565b610c12565b005b61035760048036038101906103529190612a51565b610c72565b60405161036491906132b9565b60405180910390f35b610387600480360381019061038291906128d2565b610d4b565b60405161039491906132b9565b60405180910390f35b6103b760048036038101906103b29190612ba0565b610dae565b005b6103d360048036038101906103ce9190612760565b610df2565b005b6103ef60048036038101906103ea9190612aad565b610e12565b005b61040b60048036038101906104069190612a24565b611075565b6040516104189190613013565b60405180910390f35b61043b60048036038101906104369190612876565b611127565b60405161044891906132b9565b60405180910390f35b61046b600480360381019061046691906126f3565b611158565b60405161047891906132b9565b60405180910390f35b61049b60048036038101906104969190612a24565b611210565b6040516104a891906130b7565b60405180910390f35b6104b96112c9565b6040516104c691906132b9565b60405180910390f35b6104e960048036038101906104e491906129db565b6112d3565b6040516104f691906132b9565b60405180910390f35b610507611342565b60405161051491906130b7565b60405180910390f35b61053760048036038101906105329190612a24565b6113d4565b60405161054491906130b7565b60405180910390f35b61056760048036038101906105629190612836565b611479565b005b610583600480360381019061057e9190612b60565b61148f565b60405161059091906130b7565b60405180910390f35b6105a161153f565b6040516105ae91906132b9565b60405180910390f35b6105d160048036038101906105cc91906127b3565b611545565b005b6105ed60048036038101906105e89190612a24565b6115a7565b6040516105fa91906130b7565b60405180910390f35b61061d60048036038101906106189190612720565b611694565b60405161062a919061309c565b60405180910390f35b61064d60048036038101906106489190612a24565b611728565b60405161065a919061307a565b60405180910390f35b61066c826118d8565b6106ab576040517f08c379a00000000000000000000000000000000000000000000000000000000081526004016106a290613219565b60405180910390fd5b80600e600084815260200190815260200160002090805190602001906106d2929190612450565b505050565b6011602052806000526040600020600091509050806000015490806001018054610700906135d6565b80601f016020809104026020016040519081016040528092919081815260200182805461072c906135d6565b80156107795780601f1061074e57610100808354040283529160200191610779565b820191906000526020600020905b81548152906001019060200180831161075c57829003601f168201915b5050505050908060020160009054906101000a900473ffffffffffffffffffffffffffffffffffffffff16908060030180546107b4906135d6565b80601f01602080910402602001604051908101604052809291908181526020018280546107e0906135d6565b801561082d5780601f106108025761010080835404028352916020019161082d565b820191906000526020600020905b81548152906001019060200180831161081057829003601f168201915b505050505090806004018054610842906135d6565b80601f016020809104026020016040519081016040528092919081815260200182805461086e906135d6565b80156108bb5780601f10610890576101008083540402835291602001916108bb565b820191906000526020600020905b81548152906001019060200180831161089e57829003601f168201915b5050505050905085565b60007f80ac58cd000000000000000000000000000000000000000000000000000000007bffffffffffffffffffffffffffffffffffffffffffffffffffffffff1916827bffffffffffffffffffffffffffffffffffffffffffffffffffffffff1916148061099057507f5b5e139f000000000000000000000000000000000000000000000000000000007bffffffffffffffffffffffffffffffffffffffffffffffffffffffff1916827bffffffffffffffffffffffffffffffffffffffffffffffffffffffff1916145b806109a0575061099f82611944565b5b9050919050565b6060600080546109b6906135d6565b80601f01602080910402602001604051908101604052809291908181526020018280546109e2906135d6565b8015610a2f5780601f10610a0457610100808354040283529160200191610a2f565b820191906000526020600020905b815481529060010190602001808311610a1257829003601f168201915b5050505050905090565b6000610a44826118d8565b610a83576040517f08c379a0000000000000000000000000000000000000000000000000000000008152600401610a7a906131f9565b60405180910390fd5b6004600083815260200190815260200160002060009054906101000a900473ffffffffffffffffffffffffffffffffffffffff169050919050565b6000610ac982611075565b90508073ffffffffffffffffffffffffffffffffffffffff168373ffffffffffffffffffffffffffffffffffffffff161415610b3a576040517f08c379a0000000000000000000000000000000000000000000000000000000008152600401610b3190613279565b60405180910390fd5b8073ffffffffffffffffffffffffffffffffffffffff16610b596119ae565b73ffffffffffffffffffffffffffffffffffffffff161480610b885750610b8781610b826119ae565b611694565b5b610bc7576040517f08c379a0000000000000000000000000000000000000000000000000000000008152600401610bbe90613179565b60405180910390fd5b610bd183836119b6565b505050565b600b5481565b6000600654905090565b80600f60008481526020019081526020016000209080519060200190610c0d929190612450565b505050565b610c23610c1d6119ae565b82611a6f565b610c62576040517f08c379a0000000000000000000000000000000000000000000000000000000008152600401610c5990613299565b60405180910390fd5b610c6d838383611b4d565b505050565b600080600090505b600854811015610d3f57610c8d84611da9565b80519060200120600c6000838152602001908152602001600020600060028110610cba57610cb9613740565b5b01604051610cc89190612ffc565b6040518091039020148015610d1e57508280519060200120600c6000838152602001908152602001600020600160028110610d0657610d05613740565b5b01604051610d149190612ffc565b6040518091039020145b15610d2c5780915050610d45565b8080610d3790613639565b915050610c7a565b50600090505b92915050565b6000610d5984600654611f0a565b610d6560065484610663565b610d726008548385610dae565b60066000815480929190610d8590613639565b919050555060086000815480929190610d9d90613639565b919050555060065490509392505050565b6040518060400160405280610dc284611da9565b815260200182815250600c6000858152602001908152602001600020906002610dec9291906124d6565b50505050565b610e0d83838360405180602001604052806000815250611545565b505050565b60126000815480929190610e2590613639565b91905055506000610ed182600e60008981526020019081526020016000208054610e4e906135d6565b80601f0160208091040260200160405190810160405280929190818152602001828054610e7a906135d6565b8015610ec75780601f10610e9c57610100808354040283529160200191610ec7565b820191906000526020600020905b815481529060010190602001808311610eaa57829003601f168201915b5050505050610c72565b905083600e60008881526020019081526020016000209080519060200190610efa929190612450565b50610f06818386610dae565b6040518060a001604052808781526020018681526020018473ffffffffffffffffffffffffffffffffffffffff1681526020016040518060400160405280600481526020017f646174650000000000000000000000000000000000000000000000000000000081525081526020016040518060400160405280600381526020017f4269640000000000000000000000000000000000000000000000000000000000815250815250601160006012548152602001908152602001600020600082015181600001556020820151816001019080519060200190610fe8929190612450565b5060408201518160020160006101000a81548173ffffffffffffffffffffffffffffffffffffffff021916908373ffffffffffffffffffffffffffffffffffffffff160217905550606082015181600301908051906020019061104c929190612450565b506080820151816004019080519060200190611069929190612450565b50905050505050505050565b6000806002600084815260200190815260200160002060009054906101000a900473ffffffffffffffffffffffffffffffffffffffff169050600073ffffffffffffffffffffffffffffffffffffffff168173ffffffffffffffffffffffffffffffffffffffff16141561111e576040517f08c379a0000000000000000000000000000000000000000000000000000000008152600401611115906131b9565b60405180910390fd5b80915050919050565b600061113560075483610be6565b6007600081548092919061114890613639565b9190505550600754905092915050565b60008073ffffffffffffffffffffffffffffffffffffffff168273ffffffffffffffffffffffffffffffffffffffff1614156111c9576040517f08c379a00000000000000000000000000000000000000000000000000000000081526004016111c090613199565b60405180910390fd5b600360008373ffffffffffffffffffffffffffffffffffffffff1673ffffffffffffffffffffffffffffffffffffffff168152602001908152602001600020549050919050565b6060600d600083815260200190815260200160002060006002811061123857611237613740565b5b018054611244906135d6565b80601f0160208091040260200160405190810160405280929190818152602001828054611270906135d6565b80156112bd5780601f10611292576101008083540402835291602001916112bd565b820191906000526020600020905b8154815290600101906020018083116112a057829003601f168201915b50505050509050919050565b6000600754905090565b600080600090505b600654811015611337578280519060200120600e600083815260200190815260200160002060405161130d9190612ffc565b60405180910390201415611324578091505061133d565b808061132f90613639565b9150506112db565b50600090505b919050565b606060018054611351906135d6565b80601f016020809104026020016040519081016040528092919081815260200182805461137d906135d6565b80156113ca5780601f1061139f576101008083540402835291602001916113ca565b820191906000526020600020905b8154815290600101906020018083116113ad57829003601f168201915b5050505050905090565b6060600f600083815260200190815260200160002080546113f4906135d6565b80601f0160208091040260200160405190810160405280929190818152602001828054611420906135d6565b801561146d5780601f106114425761010080835404028352916020019161146d565b820191906000526020600020905b81548152906001019060200180831161145057829003601f168201915b50505050509050919050565b61148b6114846119ae565b83836120d8565b5050565b600d60205281600052604060002081600281106114ab57600080fd5b016000915091505080546114be906135d6565b80601f01602080910402602001604051908101604052809291908181526020018280546114ea906135d6565b80156115375780601f1061150c57610100808354040283529160200191611537565b820191906000526020600020905b81548152906001019060200180831161151a57829003601f168201915b505050505081565b60125481565b6115566115506119ae565b83611a6f565b611595576040517f08c379a000000000000000000000000000000000000000000000000000000000815260040161158c90613299565b60405180910390fd5b6115a184848484612245565b50505050565b60606115b2826118d8565b6115f1576040517f08c379a00000000000000000000000000000000000000000000000000000000081526004016115e890613259565b60405180910390fd5b600e6000838152602001908152602001600020805461160f906135d6565b80601f016020809104026020016040519081016040528092919081815260200182805461163b906135d6565b80156116885780601f1061165d57610100808354040283529160200191611688565b820191906000526020600020905b81548152906001019060200180831161166b57829003601f168201915b50505050509050919050565b6000600560008473ffffffffffffffffffffffffffffffffffffffff1673ffffffffffffffffffffffffffffffffffffffff16815260200190815260200160002060008373ffffffffffffffffffffffffffffffffffffffff1673ffffffffffffffffffffffffffffffffffffffff16815260200190815260200160002060009054906101000a900460ff16905092915050565b60606000600a67ffffffffffffffff8111156117475761174661376f565b5b60405190808252806020026020018201604052801561177a57816020015b60608152602001906001900390816117655790505b5090506000805b6008548110156118cd5761179485611da9565b80519060200120600c60008381526020019081526020016000206000600281106117c1576117c0613740565b5b016040516117cf9190612ffc565b604051809103902014156118ba57600c600082815260200190815260200160002060016002811061180357611802613740565b5b01805461180f906135d6565b80601f016020809104026020016040519081016040528092919081815260200182805461183b906135d6565b80156118885780601f1061185d57610100808354040283529160200191611888565b820191906000526020600020905b81548152906001019060200180831161186b57829003601f168201915b50505050508383815181106118a05761189f613740565b5b602002602001018190525081806118b690613639565b9250505b80806118c590613639565b915050611781565b508192505050919050565b60008073ffffffffffffffffffffffffffffffffffffffff166002600084815260200190815260200160002060009054906101000a900473ffffffffffffffffffffffffffffffffffffffff1673ffffffffffffffffffffffffffffffffffffffff1614159050919050565b60007f01ffc9a7000000000000000000000000000000000000000000000000000000007bffffffffffffffffffffffffffffffffffffffffffffffffffffffff1916827bffffffffffffffffffffffffffffffffffffffffffffffffffffffff1916149050919050565b600033905090565b816004600083815260200190815260200160002060006101000a81548173ffffffffffffffffffffffffffffffffffffffff021916908373ffffffffffffffffffffffffffffffffffffffff160217905550808273ffffffffffffffffffffffffffffffffffffffff16611a2983611075565b73ffffffffffffffffffffffffffffffffffffffff167f8c5be1e5ebec7d5bd14f71427d1e84f3dd0314c0f7b2291e5b200ac8c7c3b92560405160405180910390a45050565b6000611a7a826118d8565b611ab9576040517f08c379a0000000000000000000000000000000000000000000000000000000008152600401611ab090613159565b60405180910390fd5b6000611ac483611075565b90508073ffffffffffffffffffffffffffffffffffffffff168473ffffffffffffffffffffffffffffffffffffffff161480611b3357508373ffffffffffffffffffffffffffffffffffffffff16611b1b84610a39565b73ffffffffffffffffffffffffffffffffffffffff16145b80611b445750611b438185611694565b5b91505092915050565b8273ffffffffffffffffffffffffffffffffffffffff16611b6d82611075565b73ffffffffffffffffffffffffffffffffffffffff1614611bc3576040517f08c379a0000000000000000000000000000000000000000000000000000000008152600401611bba90613239565b60405180910390fd5b600073ffffffffffffffffffffffffffffffffffffffff168273ffffffffffffffffffffffffffffffffffffffff161415611c33576040517f08c379a0000000000000000000000000000000000000000000000000000000008152600401611c2a90613119565b60405180910390fd5b611c3e8383836122a1565b611c496000826119b6565b6001600360008573ffffffffffffffffffffffffffffffffffffffff1673ffffffffffffffffffffffffffffffffffffffff1681526020019081526020016000206000828254611c9991906134ec565b925050819055506001600360008473ffffffffffffffffffffffffffffffffffffffff1673ffffffffffffffffffffffffffffffffffffffff1681526020019081526020016000206000828254611cf09190613465565b92505081905550816002600083815260200190815260200160002060006101000a81548173ffffffffffffffffffffffffffffffffffffffff021916908373ffffffffffffffffffffffffffffffffffffffff160217905550808273ffffffffffffffffffffffffffffffffffffffff168473ffffffffffffffffffffffffffffffffffffffff167fddf252ad1be2c89b69c2b068fc378daa952ba7f163c4a11628f55a4df523b3ef60405160405180910390a4505050565b60606000821415611df1576040518060400160405280600181526020017f30000000000000000000000000000000000000000000000000000000000000008152509050611f05565b600082905060005b60008214611e23578080611e0c90613639565b915050600a82611e1c91906134bb565b9150611df9565b60008167ffffffffffffffff811115611e3f57611e3e61376f565b5b6040519080825280601f01601f191660200182016040528015611e715781602001600182028036833780820191505090505b5090505b60008514611efe57600182611e8a91906134ec565b9150600a85611e999190613682565b6030611ea59190613465565b60f81b818381518110611ebb57611eba613740565b5b60200101907effffffffffffffffffffffffffffffffffffffffffffffffffffffffffffff1916908160001a905350600a85611ef791906134bb565b9450611e75565b8093505050505b919050565b600073ffffffffffffffffffffffffffffffffffffffff168273ffffffffffffffffffffffffffffffffffffffff161415611f7a576040517f08c379a0000000000000000000000000000000000000000000000000000000008152600401611f71906131d9565b60405180910390fd5b611f83816118d8565b15611fc3576040517f08c379a0000000000000000000000000000000000000000000000000000000008152600401611fba906130f9565b60405180910390fd5b611fcf600083836122a1565b6001600360008473ffffffffffffffffffffffffffffffffffffffff1673ffffffffffffffffffffffffffffffffffffffff168152602001908152602001600020600082825461201f9190613465565b92505081905550816002600083815260200190815260200160002060006101000a81548173ffffffffffffffffffffffffffffffffffffffff021916908373ffffffffffffffffffffffffffffffffffffffff160217905550808273ffffffffffffffffffffffffffffffffffffffff16600073ffffffffffffffffffffffffffffffffffffffff167fddf252ad1be2c89b69c2b068fc378daa952ba7f163c4a11628f55a4df523b3ef60405160405180910390a45050565b8173ffffffffffffffffffffffffffffffffffffffff168373ffffffffffffffffffffffffffffffffffffffff161415612147576040517f08c379a000000000000000000000000000000000000000000000000000000000815260040161213e90613139565b60405180910390fd5b80600560008573ffffffffffffffffffffffffffffffffffffffff1673ffffffffffffffffffffffffffffffffffffffff16815260200190815260200160002060008473ffffffffffffffffffffffffffffffffffffffff1673ffffffffffffffffffffffffffffffffffffffff16815260200190815260200160002060006101000a81548160ff0219169083151502179055508173ffffffffffffffffffffffffffffffffffffffff168373ffffffffffffffffffffffffffffffffffffffff167f17307eab39ab6107e8899845ad3d59bd9653f200f220920489ca2b5937696c3183604051612238919061309c565b60405180910390a3505050565b612250848484611b4d565b61225c848484846122a6565b61229b576040517f08c379a0000000000000000000000000000000000000000000000000000000008152600401612292906130d9565b60405180910390fd5b50505050565b505050565b60006122c78473ffffffffffffffffffffffffffffffffffffffff1661243d565b15612430578373ffffffffffffffffffffffffffffffffffffffff1663150b7a026122f06119ae565b8786866040518563ffffffff1660e01b8152600401612312949392919061302e565b602060405180830381600087803b15801561232c57600080fd5b505af192505050801561235d57506040513d601f19601f8201168201806040525081019061235a91906129ae565b60015b6123e0573d806000811461238d576040519150601f19603f3d011682016040523d82523d6000602084013e612392565b606091505b506000815114156123d8576040517f08c379a00000000000000000000000000000000000000000000000000000000081526004016123cf906130d9565b60405180910390fd5b805181602001fd5b63150b7a0260e01b7bffffffffffffffffffffffffffffffffffffffffffffffffffffffff1916817bffffffffffffffffffffffffffffffffffffffffffffffffffffffff191614915050612435565b600190505b949350505050565b600080823b905060008111915050919050565b82805461245c906135d6565b90600052602060002090601f01602090048101928261247e57600085556124c5565b82601f1061249757805160ff19168380011785556124c5565b828001600101855582156124c5579182015b828111156124c45782518255916020019190600101906124a9565b5b5090506124d29190612529565b5090565b8260028101928215612518579160200282015b82811115612517578251829080519060200190612507929190612450565b50916020019190600101906124e9565b5b5090506125259190612546565b5090565b5b8082111561254257600081600090555060010161252a565b5090565b5b80821115612566576000818161255d919061256a565b50600101612547565b5090565b508054612576906135d6565b6000825580601f1061258857506125a7565b601f0160209004906000526020600020908101906125a69190612529565b5b50565b60006125bd6125b884613361565b61333c565b9050828152602081018484840111156125d9576125d86137a3565b5b6125e4848285613594565b509392505050565b60006125ff6125fa84613392565b61333c565b90508281526020810184848401111561261b5761261a6137a3565b5b612626848285613594565b509392505050565b60008135905061263d81613bf2565b92915050565b60008135905061265281613c09565b92915050565b60008135905061266781613c20565b92915050565b60008151905061267c81613c20565b92915050565b600082601f8301126126975761269661379e565b5b81356126a78482602086016125aa565b91505092915050565b600082601f8301126126c5576126c461379e565b5b81356126d58482602086016125ec565b91505092915050565b6000813590506126ed81613c37565b92915050565b600060208284031215612709576127086137ad565b5b60006127178482850161262e565b91505092915050565b60008060408385031215612737576127366137ad565b5b60006127458582860161262e565b92505060206127568582860161262e565b9150509250929050565b600080600060608486031215612779576127786137ad565b5b60006127878682870161262e565b93505060206127988682870161262e565b92505060406127a9868287016126de565b9150509250925092565b600080600080608085870312156127cd576127cc6137ad565b5b60006127db8782880161262e565b94505060206127ec8782880161262e565b93505060406127fd878288016126de565b925050606085013567ffffffffffffffff81111561281e5761281d6137a8565b5b61282a87828801612682565b91505092959194509250565b6000806040838503121561284d5761284c6137ad565b5b600061285b8582860161262e565b925050602061286c85828601612643565b9150509250929050565b6000806040838503121561288d5761288c6137ad565b5b600061289b8582860161262e565b925050602083013567ffffffffffffffff8111156128bc576128bb6137a8565b5b6128c8858286016126b0565b9150509250929050565b6000806000606084860312156128eb576128ea6137ad565b5b60006128f98682870161262e565b935050602084013567ffffffffffffffff81111561291a576129196137a8565b5b612926868287016126b0565b9250506040612937868287016126de565b9150509250925092565b60008060408385031215612958576129576137ad565b5b60006129668582860161262e565b9250506020612977858286016126de565b9150509250929050565b600060208284031215612997576129966137ad565b5b60006129a584828501612658565b91505092915050565b6000602082840312156129c4576129c36137ad565b5b60006129d28482850161266d565b91505092915050565b6000602082840312156129f1576129f06137ad565b5b600082013567ffffffffffffffff811115612a0f57612a0e6137a8565b5b612a1b848285016126b0565b91505092915050565b600060208284031215612a3a57612a396137ad565b5b6000612a48848285016126de565b91505092915050565b60008060408385031215612a6857612a676137ad565b5b6000612a76858286016126de565b925050602083013567ffffffffffffffff811115612a9757612a966137a8565b5b612aa3858286016126b0565b9150509250929050565b600080600080600060a08688031215612ac957612ac86137ad565b5b6000612ad7888289016126de565b955050602086013567ffffffffffffffff811115612af857612af76137a8565b5b612b04888289016126b0565b945050604086013567ffffffffffffffff811115612b2557612b246137a8565b5b612b31888289016126b0565b9350506060612b428882890161262e565b9250506080612b53888289016126de565b9150509295509295909350565b60008060408385031215612b7757612b766137ad565b5b6000612b85858286016126de565b9250506020612b96858286016126de565b9150509250929050565b600080600060608486031215612bb957612bb86137ad565b5b6000612bc7868287016126de565b9350506020612bd8868287016126de565b925050604084013567ffffffffffffffff811115612bf957612bf86137a8565b5b612c05868287016126b0565b9150509250925092565b6000612c1b8383612d6e565b905092915050565b612c2c81613520565b82525050565b6000612c3d826133e8565b612c478185613416565b935083602082028501612c59856133c3565b8060005b85811015612c955784840389528151612c768582612c0f565b9450612c8183613409565b925060208a01995050600181019050612c5d565b50829750879550505050505092915050565b612cb081613532565b82525050565b6000612cc1826133f3565b612ccb8185613427565b9350612cdb8185602086016135a3565b612ce4816137b2565b840191505092915050565b60008154612cfc816135d6565b612d068186613438565b94506001821660008114612d215760018114612d3257612d65565b60ff19831686528186019350612d65565b612d3b856133d3565b60005b83811015612d5d57815481890152600182019150602081019050612d3e565b838801955050505b50505092915050565b6000612d79826133fe565b612d838185613443565b9350612d938185602086016135a3565b612d9c816137b2565b840191505092915050565b6000612db2826133fe565b612dbc8185613454565b9350612dcc8185602086016135a3565b612dd5816137b2565b840191505092915050565b6000612ded603283613454565b9150612df8826137c3565b604082019050919050565b6000612e10601c83613454565b9150612e1b82613812565b602082019050919050565b6000612e33602483613454565b9150612e3e8261383b565b604082019050919050565b6000612e56601983613454565b9150612e618261388a565b602082019050919050565b6000612e79602c83613454565b9150612e84826138b3565b604082019050919050565b6000612e9c603883613454565b9150612ea782613902565b604082019050919050565b6000612ebf602a83613454565b9150612eca82613951565b604082019050919050565b6000612ee2602983613454565b9150612eed826139a0565b604082019050919050565b6000612f05602083613454565b9150612f10826139ef565b602082019050919050565b6000612f28602c83613454565b9150612f3382613a18565b604082019050919050565b6000612f4b602c83613454565b9150612f5682613a67565b604082019050919050565b6000612f6e602983613454565b9150612f7982613ab6565b604082019050919050565b6000612f91602f83613454565b9150612f9c82613b05565b604082019050919050565b6000612fb4602183613454565b9150612fbf82613b54565b604082019050919050565b6000612fd7603183613454565b9150612fe282613ba3565b604082019050919050565b612ff68161358a565b82525050565b60006130088284612cef565b915081905092915050565b60006020820190506130286000830184612c23565b92915050565b60006080820190506130436000830187612c23565b6130506020830186612c23565b61305d6040830185612fed565b818103606083015261306f8184612cb6565b905095945050505050565b600060208201905081810360008301526130948184612c32565b905092915050565b60006020820190506130b16000830184612ca7565b92915050565b600060208201905081810360008301526130d18184612da7565b905092915050565b600060208201905081810360008301526130f281612de0565b9050919050565b6000602082019050818103600083015261311281612e03565b9050919050565b6000602082019050818103600083015261313281612e26565b9050919050565b6000602082019050818103600083015261315281612e49565b9050919050565b6000602082019050818103600083015261317281612e6c565b9050919050565b6000602082019050818103600083015261319281612e8f565b9050919050565b600060208201905081810360008301526131b281612eb2565b9050919050565b600060208201905081810360008301526131d281612ed5565b9050919050565b600060208201905081810360008301526131f281612ef8565b9050919050565b6000602082019050818103600083015261321281612f1b565b9050919050565b6000602082019050818103600083015261323281612f3e565b9050919050565b6000602082019050818103600083015261325281612f61565b9050919050565b6000602082019050818103600083015261327281612f84565b9050919050565b6000602082019050818103600083015261329281612fa7565b9050919050565b600060208201905081810360008301526132b281612fca565b9050919050565b60006020820190506132ce6000830184612fed565b92915050565b600060a0820190506132e96000830188612fed565b81810360208301526132fb8187612da7565b905061330a6040830186612c23565b818103606083015261331c8185612da7565b905081810360808301526133308184612da7565b90509695505050505050565b6000613346613357565b90506133528282613608565b919050565b6000604051905090565b600067ffffffffffffffff82111561337c5761337b61376f565b5b613385826137b2565b9050602081019050919050565b600067ffffffffffffffff8211156133ad576133ac61376f565b5b6133b6826137b2565b9050602081019050919050565b6000819050602082019050919050565b60008190508160005260206000209050919050565b600081519050919050565b600081519050919050565b600081519050919050565b6000602082019050919050565b600082825260208201905092915050565b600082825260208201905092915050565b600081905092915050565b600082825260208201905092915050565b600082825260208201905092915050565b60006134708261358a565b915061347b8361358a565b9250827fffffffffffffffffffffffffffffffffffffffffffffffffffffffffffffffff038211156134b0576134af6136b3565b5b828201905092915050565b60006134c68261358a565b91506134d18361358a565b9250826134e1576134e06136e2565b5b828204905092915050565b60006134f78261358a565b91506135028361358a565b925082821015613515576135146136b3565b5b828203905092915050565b600061352b8261356a565b9050919050565b60008115159050919050565b60007fffffffff0000000000000000000000000000000000000000000000000000000082169050919050565b600073ffffffffffffffffffffffffffffffffffffffff82169050919050565b6000819050919050565b82818337600083830152505050565b60005b838110156135c15780820151818401526020810190506135a6565b838111156135d0576000848401525b50505050565b600060028204905060018216806135ee57607f821691505b6020821081141561360257613601613711565b5b50919050565b613611826137b2565b810181811067ffffffffffffffff821117156136305761362f61376f565b5b80604052505050565b60006136448261358a565b91507fffffffffffffffffffffffffffffffffffffffffffffffffffffffffffffffff821415613677576136766136b3565b5b600182019050919050565b600061368d8261358a565b91506136988361358a565b9250826136a8576136a76136e2565b5b828206905092915050565b7f4e487b7100000000000000000000000000000000000000000000000000000000600052601160045260246000fd5b7f4e487b7100000000000000000000000000000000000000000000000000000000600052601260045260246000fd5b7f4e487b7100000000000000000000000000000000000000000000000000000000600052602260045260246000fd5b7f4e487b7100000000000000000000000000000000000000000000000000000000600052603260045260246000fd5b7f4e487b7100000000000000000000000000000000000000000000000000000000600052604160045260246000fd5b600080fd5b600080fd5b600080fd5b600080fd5b6000601f19601f8301169050919050565b7f4552433732313a207472616e7366657220746f206e6f6e20455243373231526560008201527f63656976657220696d706c656d656e7465720000000000000000000000000000602082015250565b7f4552433732313a20746f6b656e20616c7265616479206d696e74656400000000600082015250565b7f4552433732313a207472616e7366657220746f20746865207a65726f2061646460008201527f7265737300000000000000000000000000000000000000000000000000000000602082015250565b7f4552433732313a20617070726f766520746f2063616c6c657200000000000000600082015250565b7f4552433732313a206f70657261746f7220717565727920666f72206e6f6e657860008201527f697374656e7420746f6b656e0000000000000000000000000000000000000000602082015250565b7f4552433732313a20617070726f76652063616c6c6572206973206e6f74206f7760008201527f6e6572206e6f7220617070726f76656420666f7220616c6c0000000000000000602082015250565b7f4552433732313a2062616c616e636520717565727920666f7220746865207a6560008201527f726f206164647265737300000000000000000000000000000000000000000000602082015250565b7f4552433732313a206f776e657220717565727920666f72206e6f6e657869737460008201527f656e7420746f6b656e0000000000000000000000000000000000000000000000602082015250565b7f4552433732313a206d696e7420746f20746865207a65726f2061646472657373600082015250565b7f4552433732313a20617070726f76656420717565727920666f72206e6f6e657860008201527f697374656e7420746f6b656e0000000000000000000000000000000000000000602082015250565b7f4552433732314d657461646174613a2055524920736574206f66206e6f6e657860008201527f697374656e7420746f6b656e0000000000000000000000000000000000000000602082015250565b7f4552433732313a207472616e73666572206f6620746f6b656e2074686174206960008201527f73206e6f74206f776e0000000000000000000000000000000000000000000000602082015250565b7f4552433732314d657461646174613a2055524920717565727920666f72206e6f60008201527f6e6578697374656e7420746f6b656e0000000000000000000000000000000000602082015250565b7f4552433732313a20617070726f76616c20746f2063757272656e74206f776e6560008201527f7200000000000000000000000000000000000000000000000000000000000000602082015250565b7f4552433732313a207472616e736665722063616c6c6572206973206e6f74206f60008201527f776e6572206e6f7220617070726f766564000000000000000000000000000000602082015250565b613bfb81613520565b8114613c0657600080fd5b50565b613c1281613532565b8114613c1d57600080fd5b50565b613c298161353e565b8114613c3457600080fd5b50565b613c408161358a565b8114613c4b57600080fd5b5056fea26469706673582212207a39a02218de12e63b6341c64b7294274f4d68f9bbb17c52bbf71da8f72d3bd464736f6c63430008060033",
  "devdoc": {
    "kind": "dev",
    "methods": {
      "approve(address,uint256)": {
        "details": "See {IERC721-approve}."
      },
      "balanceOf(address)": {
        "details": "See {IERC721-balanceOf}."
      },
      "getApproved(uint256)": {
        "details": "See {IERC721-getApproved}."
      },
      "isApprovedForAll(address,address)": {
        "details": "See {IERC721-isApprovedForAll}."
      },
      "name()": {
        "details": "See {IERC721Metadata-name}."
      },
      "ownerOf(uint256)": {
        "details": "See {IERC721-ownerOf}."
      },
      "safeTransferFrom(address,address,uint256)": {
        "details": "See {IERC721-safeTransferFrom}."
      },
      "safeTransferFrom(address,address,uint256,bytes)": {
        "details": "See {IERC721-safeTransferFrom}."
      },
      "setApprovalForAll(address,bool)": {
        "details": "See {IERC721-setApprovalForAll}."
      },
      "supportsInterface(bytes4)": {
        "details": "See {IERC165-supportsInterface}."
      },
      "symbol()": {
        "details": "See {IERC721Metadata-symbol}."
      },
      "tokenURI(uint256)": {
        "details": "See {IERC721Metadata-tokenURI}."
      },
      "transferFrom(address,address,uint256)": {
        "details": "See {IERC721-transferFrom}."
      }
    },
    "version": 1
  },
  "userdoc": {
    "kind": "user",
    "methods": {},
    "version": 1
  },
  "storageLayout": {
    "storage": [
      {
        "astId": 25,
        "contract": "contracts/MetisERC721.sol:MetisERC721",
        "label": "_name",
        "offset": 0,
        "slot": "0",
        "type": "t_string_storage"
      },
      {
        "astId": 27,
        "contract": "contracts/MetisERC721.sol:MetisERC721",
        "label": "_symbol",
        "offset": 0,
        "slot": "1",
        "type": "t_string_storage"
      },
      {
        "astId": 31,
        "contract": "contracts/MetisERC721.sol:MetisERC721",
        "label": "_owners",
        "offset": 0,
        "slot": "2",
        "type": "t_mapping(t_uint256,t_address)"
      },
      {
        "astId": 35,
        "contract": "contracts/MetisERC721.sol:MetisERC721",
        "label": "_balances",
        "offset": 0,
        "slot": "3",
        "type": "t_mapping(t_address,t_uint256)"
      },
      {
        "astId": 39,
        "contract": "contracts/MetisERC721.sol:MetisERC721",
        "label": "_tokenApprovals",
        "offset": 0,
        "slot": "4",
        "type": "t_mapping(t_uint256,t_address)"
      },
      {
        "astId": 45,
        "contract": "contracts/MetisERC721.sol:MetisERC721",
        "label": "_operatorApprovals",
        "offset": 0,
        "slot": "5",
        "type": "t_mapping(t_address,t_mapping(t_address,t_bool))"
      },
      {
        "astId": 1557,
        "contract": "contracts/MetisERC721.sol:MetisERC721",
        "label": "_tokenIds",
        "offset": 0,
        "slot": "6",
        "type": "t_uint256"
      },
      {
        "astId": 1559,
        "contract": "contracts/MetisERC721.sol:MetisERC721",
        "label": "_eventIds",
        "offset": 0,
        "slot": "7",
        "type": "t_uint256"
      },
      {
        "astId": 1561,
        "contract": "contracts/MetisERC721.sol:MetisERC721",
        "label": "_EventTokenIds",
        "offset": 0,
        "slot": "8",
        "type": "t_uint256"
      },
      {
        "astId": 1565,
        "contract": "contracts/MetisERC721.sol:MetisERC721",
        "label": "data1",
        "offset": 0,
        "slot": "9",
        "type": "t_array(t_string_storage)2_storage"
      },
      {
        "astId": 1567,
        "contract": "contracts/MetisERC721.sol:MetisERC721",
        "label": "_EventTokenSearchIds",
        "offset": 0,
        "slot": "11",
        "type": "t_uint256"
      },
      {
        "astId": 1573,
        "contract": "contracts/MetisERC721.sol:MetisERC721",
        "label": "AllEventTokens",
        "offset": 0,
        "slot": "12",
        "type": "t_mapping(t_uint256,t_array(t_string_storage)2_storage)"
      },
      {
        "astId": 1579,
        "contract": "contracts/MetisERC721.sol:MetisERC721",
        "label": "_SearchedStore",
        "offset": 0,
        "slot": "13",
        "type": "t_mapping(t_uint256,t_array(t_string_storage)2_storage)"
      },
      {
        "astId": 1583,
        "contract": "contracts/MetisERC721.sol:MetisERC721",
        "label": "_tokenURIs",
        "offset": 0,
        "slot": "14",
        "type": "t_mapping(t_uint256,t_string_storage)"
      },
      {
        "astId": 1587,
        "contract": "contracts/MetisERC721.sol:MetisERC721",
        "label": "_eventURIs",
        "offset": 0,
        "slot": "15",
        "type": "t_mapping(t_uint256,t_string_storage)"
      },
      {
        "astId": 1591,
        "contract": "contracts/MetisERC721.sol:MetisERC721",
        "label": "_eventTokens",
        "offset": 0,
        "slot": "16",
        "type": "t_mapping(t_string_memory_ptr,t_string_storage)"
      },
      {
        "astId": 1596,
        "contract": "contracts/MetisERC721.sol:MetisERC721",
        "label": "allbidstoken",
        "offset": 0,
        "slot": "17",
        "type": "t_mapping(t_uint256,t_struct(Bid)1610_storage)"
      },
      {
        "astId": 1599,
        "contract": "contracts/MetisERC721.sol:MetisERC721",
        "label": "bidCount",
        "offset": 0,
        "slot": "18",
        "type": "t_uint256"
      }
    ],
    "types": {
      "t_address": {
        "encoding": "inplace",
        "label": "address",
        "numberOfBytes": "20"
      },
      "t_array(t_string_storage)2_storage": {
        "base": "t_string_storage",
        "encoding": "inplace",
        "label": "string[2]",
        "numberOfBytes": "64"
      },
      "t_bool": {
        "encoding": "inplace",
        "label": "bool",
        "numberOfBytes": "1"
      },
      "t_mapping(t_address,t_bool)": {
        "encoding": "mapping",
        "key": "t_address",
        "label": "mapping(address => bool)",
        "numberOfBytes": "32",
        "value": "t_bool"
      },
      "t_mapping(t_address,t_mapping(t_address,t_bool))": {
        "encoding": "mapping",
        "key": "t_address",
        "label": "mapping(address => mapping(address => bool))",
        "numberOfBytes": "32",
        "value": "t_mapping(t_address,t_bool)"
      },
      "t_mapping(t_address,t_uint256)": {
        "encoding": "mapping",
        "key": "t_address",
        "label": "mapping(address => uint256)",
        "numberOfBytes": "32",
        "value": "t_uint256"
      },
      "t_mapping(t_string_memory_ptr,t_string_storage)": {
        "encoding": "mapping",
        "key": "t_string_memory_ptr",
        "label": "mapping(string => string)",
        "numberOfBytes": "32",
        "value": "t_string_storage"
      },
      "t_mapping(t_uint256,t_address)": {
        "encoding": "mapping",
        "key": "t_uint256",
        "label": "mapping(uint256 => address)",
        "numberOfBytes": "32",
        "value": "t_address"
      },
      "t_mapping(t_uint256,t_array(t_string_storage)2_storage)": {
        "encoding": "mapping",
        "key": "t_uint256",
        "label": "mapping(uint256 => string[2])",
        "numberOfBytes": "32",
        "value": "t_array(t_string_storage)2_storage"
      },
      "t_mapping(t_uint256,t_string_storage)": {
        "encoding": "mapping",
        "key": "t_uint256",
        "label": "mapping(uint256 => string)",
        "numberOfBytes": "32",
        "value": "t_string_storage"
      },
      "t_mapping(t_uint256,t_struct(Bid)1610_storage)": {
        "encoding": "mapping",
        "key": "t_uint256",
        "label": "mapping(uint256 => struct MetisERC721.Bid)",
        "numberOfBytes": "32",
        "value": "t_struct(Bid)1610_storage"
      },
      "t_string_memory_ptr": {
        "encoding": "bytes",
        "label": "string",
        "numberOfBytes": "32"
      },
      "t_string_storage": {
        "encoding": "bytes",
        "label": "string",
        "numberOfBytes": "32"
      },
      "t_struct(Bid)1610_storage": {
        "encoding": "inplace",
        "label": "struct MetisERC721.Bid",
        "members": [
          {
            "astId": 1601,
            "contract": "contracts/MetisERC721.sol:MetisERC721",
            "label": "TokenID",
            "offset": 0,
            "slot": "0",
            "type": "t_uint256"
          },
          {
            "astId": 1603,
            "contract": "contracts/MetisERC721.sol:MetisERC721",
            "label": "bid",
            "offset": 0,
            "slot": "1",
            "type": "t_string_storage"
          },
          {
            "astId": 1605,
            "contract": "contracts/MetisERC721.sol:MetisERC721",
            "label": "bidderHash",
            "offset": 0,
            "slot": "2",
            "type": "t_address"
          },
          {
            "astId": 1607,
            "contract": "contracts/MetisERC721.sol:MetisERC721",
            "label": "date",
            "offset": 0,
            "slot": "3",
            "type": "t_string_storage"
          },
          {
            "astId": 1609,
            "contract": "contracts/MetisERC721.sol:MetisERC721",
            "label": "status",
            "offset": 0,
            "slot": "4",
            "type": "t_string_storage"
          }
        ],
        "numberOfBytes": "160"
      },
      "t_uint256": {
        "encoding": "inplace",
        "label": "uint256",
        "numberOfBytes": "32"
      }
    }
  }
}