{
  "_format": "hh-sol-artifact-1",
  "contractName": "MetisERC721",
  "sourceName": "contracts/MetisERC721.sol",
  "abi": [
    {
      "inputs": [
        {
          "internalType": "string",
          "name": "name",
          "type": "string"
        },
        {
          "internalType": "string",
          "name": "symbol",
          "type": "string"
        }
      ],
      "stateMutability": "nonpayable",
      "type": "constructor"
    },
    {
      "anonymous": false,
      "inputs": [
        {
          "indexed": true,
          "internalType": "address",
          "name": "owner",
          "type": "address"
        },
        {
          "indexed": true,
          "internalType": "address",
          "name": "approved",
          "type": "address"
        },
        {
          "indexed": true,
          "internalType": "uint256",
          "name": "tokenId",
          "type": "uint256"
        }
      ],
      "name": "Approval",
      "type": "event"
    },
    {
      "anonymous": false,
      "inputs": [
        {
          "indexed": true,
          "internalType": "address",
          "name": "owner",
          "type": "address"
        },
        {
          "indexed": true,
          "internalType": "address",
          "name": "operator",
          "type": "address"
        },
        {
          "indexed": false,
          "internalType": "bool",
          "name": "approved",
          "type": "bool"
        }
      ],
      "name": "ApprovalForAll",
      "type": "event"
    },
    {
      "anonymous": false,
      "inputs": [
        {
          "indexed": true,
          "internalType": "address",
          "name": "from",
          "type": "address"
        },
        {
          "indexed": true,
          "internalType": "address",
          "name": "to",
          "type": "address"
        },
        {
          "indexed": true,
          "internalType": "uint256",
          "name": "tokenId",
          "type": "uint256"
        }
      ],
      "name": "Transfer",
      "type": "event"
    },
    {
      "inputs": [
        {
          "internalType": "uint256",
          "name": "tokenId",
          "type": "uint256"
        },
        {
          "internalType": "string",
          "name": "_tokenURI",
          "type": "string"
        }
      ],
      "name": "_setTokenURI",
      "outputs": [],
      "stateMutability": "nonpayable",
      "type": "function"
    },
    {
      "inputs": [
        {
          "internalType": "uint256",
          "name": "",
          "type": "uint256"
        }
      ],
      "name": "allbidstoken",
      "outputs": [
        {
          "internalType": "uint256",
          "name": "TokenID",
          "type": "uint256"
        },
        {
          "internalType": "string",
          "name": "bid",
          "type": "string"
        },
        {
          "internalType": "address",
          "name": "bidderHash",
          "type": "address"
        },
        {
          "internalType": "string",
          "name": "date",
          "type": "string"
        },
        {
          "internalType": "string",
          "name": "status",
          "type": "string"
        }
      ],
      "stateMutability": "view",
      "type": "function"
    },
    {
      "inputs": [
        {
          "internalType": "address",
          "name": "to",
          "type": "address"
        },
        {
          "internalType": "uint256",
          "name": "tokenId",
          "type": "uint256"
        }
      ],
      "name": "approve",
      "outputs": [],
      "stateMutability": "nonpayable",
      "type": "function"
    },
    {
      "inputs": [
        {
          "internalType": "address",
          "name": "owner",
          "type": "address"
        }
      ],
      "name": "balanceOf",
      "outputs": [
        {
          "internalType": "uint256",
          "name": "",
          "type": "uint256"
        }
      ],
      "stateMutability": "view",
      "type": "function"
    },
    {
      "inputs": [],
      "name": "bidCount",
      "outputs": [
        {
          "internalType": "uint256",
          "name": "",
          "type": "uint256"
        }
      ],
      "stateMutability": "view",
      "type": "function"
    },
    {
      "inputs": [
        {
          "internalType": "address",
          "name": "_claimer",
          "type": "address"
        },
        {
          "internalType": "string",
          "name": "_tokenURI",
          "type": "string"
        }
      ],
      "name": "claimToken",
      "outputs": [
        {
          "internalType": "uint256",
          "name": "",
          "type": "uint256"
        }
      ],
      "stateMutability": "nonpayable",
      "type": "function"
    },
    {
      "inputs": [
        {
          "internalType": "uint256",
          "name": "_tokenId",
          "type": "uint256"
        },
        {
          "internalType": "string",
          "name": "_bid",
          "type": "string"
        },
        {
          "internalType": "string",
          "name": "_updatedURI",
          "type": "string"
        },
        {
          "internalType": "address",
          "name": "bidder",
          "type": "address"
        }
      ],
      "name": "createBid",
      "outputs": [],
      "stateMutability": "nonpayable",
      "type": "function"
    },
    {
      "inputs": [
        {
          "internalType": "uint256",
          "name": "tokenId",
          "type": "uint256"
        }
      ],
      "name": "getApproved",
      "outputs": [
        {
          "internalType": "address",
          "name": "",
          "type": "address"
        }
      ],
      "stateMutability": "view",
      "type": "function"
    },
    {
      "inputs": [
        {
          "internalType": "address",
          "name": "owner",
          "type": "address"
        },
        {
          "internalType": "address",
          "name": "operator",
          "type": "address"
        }
      ],
      "name": "isApprovedForAll",
      "outputs": [
        {
          "internalType": "bool",
          "name": "",
          "type": "bool"
        }
      ],
      "stateMutability": "view",
      "type": "function"
    },
    {
      "inputs": [],
      "name": "name",
      "outputs": [
        {
          "internalType": "string",
          "name": "",
          "type": "string"
        }
      ],
      "stateMutability": "view",
      "type": "function"
    },
    {
      "inputs": [
        {
          "internalType": "uint256",
          "name": "tokenId",
          "type": "uint256"
        }
      ],
      "name": "ownerOf",
      "outputs": [
        {
          "internalType": "address",
          "name": "",
          "type": "address"
        }
      ],
      "stateMutability": "view",
      "type": "function"
    },
    {
      "inputs": [
        {
          "internalType": "address",
          "name": "from",
          "type": "address"
        },
        {
          "internalType": "address",
          "name": "to",
          "type": "address"
        },
        {
          "internalType": "uint256",
          "name": "tokenId",
          "type": "uint256"
        }
      ],
      "name": "safeTransferFrom",
      "outputs": [],
      "stateMutability": "nonpayable",
      "type": "function"
    },
    {
      "inputs": [
        {
          "internalType": "address",
          "name": "from",
          "type": "address"
        },
        {
          "internalType": "address",
          "name": "to",
          "type": "address"
        },
        {
          "internalType": "uint256",
          "name": "tokenId",
          "type": "uint256"
        },
        {
          "internalType": "bytes",
          "name": "_data",
          "type": "bytes"
        }
      ],
      "name": "safeTransferFrom",
      "outputs": [],
      "stateMutability": "nonpayable",
      "type": "function"
    },
    {
      "inputs": [
        {
          "internalType": "address",
          "name": "operator",
          "type": "address"
        },
        {
          "internalType": "bool",
          "name": "approved",
          "type": "bool"
        }
      ],
      "name": "setApprovalForAll",
      "outputs": [],
      "stateMutability": "nonpayable",
      "type": "function"
    },
    {
      "inputs": [
        {
          "internalType": "bytes4",
          "name": "interfaceId",
          "type": "bytes4"
        }
      ],
      "name": "supportsInterface",
      "outputs": [
        {
          "internalType": "bool",
          "name": "",
          "type": "bool"
        }
      ],
      "stateMutability": "view",
      "type": "function"
    },
    {
      "inputs": [],
      "name": "symbol",
      "outputs": [
        {
          "internalType": "string",
          "name": "",
          "type": "string"
        }
      ],
      "stateMutability": "view",
      "type": "function"
    },
    {
      "inputs": [
        {
          "internalType": "uint256",
          "name": "tokenId",
          "type": "uint256"
        }
      ],
      "name": "tokenURI",
      "outputs": [
        {
          "internalType": "string",
          "name": "",
          "type": "string"
        }
      ],
      "stateMutability": "view",
      "type": "function"
    },
    {
      "inputs": [],
      "name": "totalSupply",
      "outputs": [
        {
          "internalType": "uint256",
          "name": "",
          "type": "uint256"
        }
      ],
      "stateMutability": "view",
      "type": "function"
    },
    {
      "inputs": [
        {
          "internalType": "address",
          "name": "from",
          "type": "address"
        },
        {
          "internalType": "address",
          "name": "to",
          "type": "address"
        },
        {
          "internalType": "uint256",
          "name": "tokenId",
          "type": "uint256"
        }
      ],
      "name": "transferFrom",
      "outputs": [],
      "stateMutability": "nonpayable",
      "type": "function"
    }
  ],
  "bytecode": "0x608060405260006009553480156200001657600080fd5b50604051620030fe380380620030fe83398181016040528101906200003c9190620001a8565b81818160009080519060200190620000569291906200007a565b5080600190805190602001906200006f9291906200007a565b5050505050620003b1565b8280546200008890620002c2565b90600052602060002090601f016020900481019282620000ac5760008555620000f8565b82601f10620000c757805160ff1916838001178555620000f8565b82800160010185558215620000f8579182015b82811115620000f7578251825591602001919060010190620000da565b5b5090506200010791906200010b565b5090565b5b80821115620001265760008160009055506001016200010c565b5090565b6000620001416200013b8462000256565b6200022d565b90508281526020810184848401111562000160576200015f62000391565b5b6200016d8482856200028c565b509392505050565b600082601f8301126200018d576200018c6200038c565b5b81516200019f8482602086016200012a565b91505092915050565b60008060408385031215620001c257620001c16200039b565b5b600083015167ffffffffffffffff811115620001e357620001e262000396565b5b620001f18582860162000175565b925050602083015167ffffffffffffffff81111562000215576200021462000396565b5b620002238582860162000175565b9150509250929050565b6000620002396200024c565b9050620002478282620002f8565b919050565b6000604051905090565b600067ffffffffffffffff8211156200027457620002736200035d565b5b6200027f82620003a0565b9050602081019050919050565b60005b83811015620002ac5780820151818401526020810190506200028f565b83811115620002bc576000848401525b50505050565b60006002820490506001821680620002db57607f821691505b60208210811415620002f257620002f16200032e565b5b50919050565b6200030382620003a0565b810181811067ffffffffffffffff821117156200032557620003246200035d565b5b80604052505050565b7f4e487b7100000000000000000000000000000000000000000000000000000000600052602260045260246000fd5b7f4e487b7100000000000000000000000000000000000000000000000000000000600052604160045260246000fd5b600080fd5b600080fd5b600080fd5b600080fd5b6000601f19601f8301169050919050565b612d3d80620003c16000396000f3fe608060405234801561001057600080fd5b50600436106101215760003560e01c80636352211e116100ad578063a22cb46511610071578063a22cb46514610330578063b40a56271461034c578063b88d4fde1461036a578063c87b56dd14610386578063e985e9c5146103b657610121565b80636352211e1461026657806370a08231146102965780638b591073146102c6578063931b3385146102e257806395d89b411461031257610121565b8063081812fc116100f4578063081812fc146101c4578063095ea7b3146101f457806318160ddd1461021057806323b872dd1461022e57806342842e0e1461024a57610121565b80630153886814610126578063019524e71461014257806301ffc9a71461017657806306fdde03146101a6575b600080fd5b610140600480360381019061013b9190611e71565b6103e6565b005b61015c60048036038101906101579190611e44565b61045a565b60405161016d9594939291906124b7565b60405180910390f35b610190600480360381019061018b9190611dea565b610648565b60405161019d919061227f565b60405180910390f35b6101ae61072a565b6040516101bb919061229a565b60405180910390f35b6101de60048036038101906101d99190611e44565b6107bc565b6040516101eb9190612218565b60405180910390f35b61020e60048036038101906102099190611daa565b610841565b005b610218610959565b604051610225919061249c565b60405180910390f35b61024860048036038101906102439190611c38565b610963565b005b610264600480360381019061025f9190611c38565b6109c3565b005b610280600480360381019061027b9190611e44565b6109e3565b60405161028d9190612218565b60405180910390f35b6102b060048036038101906102ab9190611bcb565b610a95565b6040516102bd919061249c565b60405180910390f35b6102e060048036038101906102db9190611ecd565b610b4d565b005b6102fc60048036038101906102f79190611d4e565b610cfa565b604051610309919061249c565b60405180910390f35b61031a610d37565b604051610327919061229a565b60405180910390f35b61034a60048036038101906103459190611d0e565b610dc9565b005b610354610ddf565b604051610361919061249c565b60405180910390f35b610384600480360381019061037f9190611c8b565b610de5565b005b6103a0600480360381019061039b9190611e44565b610e47565b6040516103ad919061229a565b60405180910390f35b6103d060048036038101906103cb9190611bf8565b610f34565b6040516103dd919061227f565b60405180910390f35b6103ef82610fc8565b61042e576040517f08c379a0000000000000000000000000000000000000000000000000000000008152600401610425906123fc565b60405180910390fd5b806007600084815260200190815260200160002090805190602001906104559291906119df565b505050565b60086020528060005260406000206000915090508060000154908060010180546104839061271e565b80601f01602080910402602001604051908101604052809291908181526020018280546104af9061271e565b80156104fc5780601f106104d1576101008083540402835291602001916104fc565b820191906000526020600020905b8154815290600101906020018083116104df57829003601f168201915b5050505050908060020160009054906101000a900473ffffffffffffffffffffffffffffffffffffffff16908060030180546105379061271e565b80601f01602080910402602001604051908101604052809291908181526020018280546105639061271e565b80156105b05780601f10610585576101008083540402835291602001916105b0565b820191906000526020600020905b81548152906001019060200180831161059357829003601f168201915b5050505050908060040180546105c59061271e565b80601f01602080910402602001604051908101604052809291908181526020018280546105f19061271e565b801561063e5780601f106106135761010080835404028352916020019161063e565b820191906000526020600020905b81548152906001019060200180831161062157829003601f168201915b5050505050905085565b60007f80ac58cd000000000000000000000000000000000000000000000000000000007bffffffffffffffffffffffffffffffffffffffffffffffffffffffff1916827bffffffffffffffffffffffffffffffffffffffffffffffffffffffff1916148061071357507f5b5e139f000000000000000000000000000000000000000000000000000000007bffffffffffffffffffffffffffffffffffffffffffffffffffffffff1916827bffffffffffffffffffffffffffffffffffffffffffffffffffffffff1916145b80610723575061072282611034565b5b9050919050565b6060600080546107399061271e565b80601f01602080910402602001604051908101604052809291908181526020018280546107659061271e565b80156107b25780601f10610787576101008083540402835291602001916107b2565b820191906000526020600020905b81548152906001019060200180831161079557829003601f168201915b5050505050905090565b60006107c782610fc8565b610806576040517f08c379a00000000000000000000000000000000000000000000000000000000081526004016107fd906123dc565b60405180910390fd5b6004600083815260200190815260200160002060009054906101000a900473ffffffffffffffffffffffffffffffffffffffff169050919050565b600061084c826109e3565b90508073ffffffffffffffffffffffffffffffffffffffff168373ffffffffffffffffffffffffffffffffffffffff1614156108bd576040517f08c379a00000000000000000000000000000000000000000000000000000000081526004016108b49061245c565b60405180910390fd5b8073ffffffffffffffffffffffffffffffffffffffff166108dc61109e565b73ffffffffffffffffffffffffffffffffffffffff16148061090b575061090a8161090561109e565b610f34565b5b61094a576040517f08c379a00000000000000000000000000000000000000000000000000000000081526004016109419061235c565b60405180910390fd5b61095483836110a6565b505050565b6000600654905090565b61097461096e61109e565b8261115f565b6109b3576040517f08c379a00000000000000000000000000000000000000000000000000000000081526004016109aa9061247c565b60405180910390fd5b6109be83838361123d565b505050565b6109de83838360405180602001604052806000815250610de5565b505050565b6000806002600084815260200190815260200160002060009054906101000a900473ffffffffffffffffffffffffffffffffffffffff169050600073ffffffffffffffffffffffffffffffffffffffff168173ffffffffffffffffffffffffffffffffffffffff161415610a8c576040517f08c379a0000000000000000000000000000000000000000000000000000000008152600401610a839061239c565b60405180910390fd5b80915050919050565b60008073ffffffffffffffffffffffffffffffffffffffff168273ffffffffffffffffffffffffffffffffffffffff161415610b06576040517f08c379a0000000000000000000000000000000000000000000000000000000008152600401610afd9061237c565b60405180910390fd5b600360008373ffffffffffffffffffffffffffffffffffffffff1673ffffffffffffffffffffffffffffffffffffffff168152602001908152602001600020549050919050565b60096000815480929190610b6090612781565b919050555081600760008681526020019081526020016000209080519060200190610b8c9291906119df565b506040518060a001604052808581526020018481526020018273ffffffffffffffffffffffffffffffffffffffff1681526020016040518060400160405280600481526020017f646174650000000000000000000000000000000000000000000000000000000081525081526020016040518060400160405280600381526020017f4269640000000000000000000000000000000000000000000000000000000000815250815250600860006009548152602001908152602001600020600082015181600001556020820151816001019080519060200190610c6f9291906119df565b5060408201518160020160006101000a81548173ffffffffffffffffffffffffffffffffffffffff021916908373ffffffffffffffffffffffffffffffffffffffff1602179055506060820151816003019080519060200190610cd39291906119df565b506080820151816004019080519060200190610cf09291906119df565b5090505050505050565b6000610d0883600654611499565b610d14600654836103e6565b60066000815480929190610d2790612781565b9190505550600654905092915050565b606060018054610d469061271e565b80601f0160208091040260200160405190810160405280929190818152602001828054610d729061271e565b8015610dbf5780601f10610d9457610100808354040283529160200191610dbf565b820191906000526020600020905b815481529060010190602001808311610da257829003601f168201915b5050505050905090565b610ddb610dd461109e565b8383611667565b5050565b60095481565b610df6610df061109e565b8361115f565b610e35576040517f08c379a0000000000000000000000000000000000000000000000000000000008152600401610e2c9061247c565b60405180910390fd5b610e41848484846117d4565b50505050565b6060610e5282610fc8565b610e91576040517f08c379a0000000000000000000000000000000000000000000000000000000008152600401610e889061243c565b60405180910390fd5b600760008381526020019081526020016000208054610eaf9061271e565b80601f0160208091040260200160405190810160405280929190818152602001828054610edb9061271e565b8015610f285780601f10610efd57610100808354040283529160200191610f28565b820191906000526020600020905b815481529060010190602001808311610f0b57829003601f168201915b50505050509050919050565b6000600560008473ffffffffffffffffffffffffffffffffffffffff1673ffffffffffffffffffffffffffffffffffffffff16815260200190815260200160002060008373ffffffffffffffffffffffffffffffffffffffff1673ffffffffffffffffffffffffffffffffffffffff16815260200190815260200160002060009054906101000a900460ff16905092915050565b60008073ffffffffffffffffffffffffffffffffffffffff166002600084815260200190815260200160002060009054906101000a900473ffffffffffffffffffffffffffffffffffffffff1673ffffffffffffffffffffffffffffffffffffffff1614159050919050565b60007f01ffc9a7000000000000000000000000000000000000000000000000000000007bffffffffffffffffffffffffffffffffffffffffffffffffffffffff1916827bffffffffffffffffffffffffffffffffffffffffffffffffffffffff1916149050919050565b600033905090565b816004600083815260200190815260200160002060006101000a81548173ffffffffffffffffffffffffffffffffffffffff021916908373ffffffffffffffffffffffffffffffffffffffff160217905550808273ffffffffffffffffffffffffffffffffffffffff16611119836109e3565b73ffffffffffffffffffffffffffffffffffffffff167f8c5be1e5ebec7d5bd14f71427d1e84f3dd0314c0f7b2291e5b200ac8c7c3b92560405160405180910390a45050565b600061116a82610fc8565b6111a9576040517f08c379a00000000000000000000000000000000000000000000000000000000081526004016111a09061233c565b60405180910390fd5b60006111b4836109e3565b90508073ffffffffffffffffffffffffffffffffffffffff168473ffffffffffffffffffffffffffffffffffffffff16148061122357508373ffffffffffffffffffffffffffffffffffffffff1661120b846107bc565b73ffffffffffffffffffffffffffffffffffffffff16145b8061123457506112338185610f34565b5b91505092915050565b8273ffffffffffffffffffffffffffffffffffffffff1661125d826109e3565b73ffffffffffffffffffffffffffffffffffffffff16146112b3576040517f08c379a00000000000000000000000000000000000000000000000000000000081526004016112aa9061241c565b60405180910390fd5b600073ffffffffffffffffffffffffffffffffffffffff168273ffffffffffffffffffffffffffffffffffffffff161415611323576040517f08c379a000000000000000000000000000000000000000000000000000000000815260040161131a906122fc565b60405180910390fd5b61132e838383611830565b6113396000826110a6565b6001600360008573ffffffffffffffffffffffffffffffffffffffff1673ffffffffffffffffffffffffffffffffffffffff16815260200190815260200160002060008282546113899190612634565b925050819055506001600360008473ffffffffffffffffffffffffffffffffffffffff1673ffffffffffffffffffffffffffffffffffffffff16815260200190815260200160002060008282546113e091906125de565b92505081905550816002600083815260200190815260200160002060006101000a81548173ffffffffffffffffffffffffffffffffffffffff021916908373ffffffffffffffffffffffffffffffffffffffff160217905550808273ffffffffffffffffffffffffffffffffffffffff168473ffffffffffffffffffffffffffffffffffffffff167fddf252ad1be2c89b69c2b068fc378daa952ba7f163c4a11628f55a4df523b3ef60405160405180910390a4505050565b600073ffffffffffffffffffffffffffffffffffffffff168273ffffffffffffffffffffffffffffffffffffffff161415611509576040517f08c379a0000000000000000000000000000000000000000000000000000000008152600401611500906123bc565b60405180910390fd5b61151281610fc8565b15611552576040517f08c379a0000000000000000000000000000000000000000000000000000000008152600401611549906122dc565b60405180910390fd5b61155e60008383611830565b6001600360008473ffffffffffffffffffffffffffffffffffffffff1673ffffffffffffffffffffffffffffffffffffffff16815260200190815260200160002060008282546115ae91906125de565b92505081905550816002600083815260200190815260200160002060006101000a81548173ffffffffffffffffffffffffffffffffffffffff021916908373ffffffffffffffffffffffffffffffffffffffff160217905550808273ffffffffffffffffffffffffffffffffffffffff16600073ffffffffffffffffffffffffffffffffffffffff167fddf252ad1be2c89b69c2b068fc378daa952ba7f163c4a11628f55a4df523b3ef60405160405180910390a45050565b8173ffffffffffffffffffffffffffffffffffffffff168373ffffffffffffffffffffffffffffffffffffffff1614156116d6576040517f08c379a00000000000000000000000000000000000000000000000000000000081526004016116cd9061231c565b60405180910390fd5b80600560008573ffffffffffffffffffffffffffffffffffffffff1673ffffffffffffffffffffffffffffffffffffffff16815260200190815260200160002060008473ffffffffffffffffffffffffffffffffffffffff1673ffffffffffffffffffffffffffffffffffffffff16815260200190815260200160002060006101000a81548160ff0219169083151502179055508173ffffffffffffffffffffffffffffffffffffffff168373ffffffffffffffffffffffffffffffffffffffff167f17307eab39ab6107e8899845ad3d59bd9653f200f220920489ca2b5937696c31836040516117c7919061227f565b60405180910390a3505050565b6117df84848461123d565b6117eb84848484611835565b61182a576040517f08c379a0000000000000000000000000000000000000000000000000000000008152600401611821906122bc565b60405180910390fd5b50505050565b505050565b60006118568473ffffffffffffffffffffffffffffffffffffffff166119cc565b156119bf578373ffffffffffffffffffffffffffffffffffffffff1663150b7a0261187f61109e565b8786866040518563ffffffff1660e01b81526004016118a19493929190612233565b602060405180830381600087803b1580156118bb57600080fd5b505af19250505080156118ec57506040513d601f19601f820116820180604052508101906118e99190611e17565b60015b61196f573d806000811461191c576040519150601f19603f3d011682016040523d82523d6000602084013e611921565b606091505b50600081511415611967576040517f08c379a000000000000000000000000000000000000000000000000000000000815260040161195e906122bc565b60405180910390fd5b805181602001fd5b63150b7a0260e01b7bffffffffffffffffffffffffffffffffffffffffffffffffffffffff1916817bffffffffffffffffffffffffffffffffffffffffffffffffffffffff1916149150506119c4565b600190505b949350505050565b600080823b905060008111915050919050565b8280546119eb9061271e565b90600052602060002090601f016020900481019282611a0d5760008555611a54565b82601f10611a2657805160ff1916838001178555611a54565b82800160010185558215611a54579182015b82811115611a53578251825591602001919060010190611a38565b5b509050611a619190611a65565b5090565b5b80821115611a7e576000816000905550600101611a66565b5090565b6000611a95611a9084612544565b61251f565b905082815260208101848484011115611ab157611ab061285c565b5b611abc8482856126dc565b509392505050565b6000611ad7611ad284612575565b61251f565b905082815260208101848484011115611af357611af261285c565b5b611afe8482856126dc565b509392505050565b600081359050611b1581612cab565b92915050565b600081359050611b2a81612cc2565b92915050565b600081359050611b3f81612cd9565b92915050565b600081519050611b5481612cd9565b92915050565b600082601f830112611b6f57611b6e612857565b5b8135611b7f848260208601611a82565b91505092915050565b600082601f830112611b9d57611b9c612857565b5b8135611bad848260208601611ac4565b91505092915050565b600081359050611bc581612cf0565b92915050565b600060208284031215611be157611be0612866565b5b6000611bef84828501611b06565b91505092915050565b60008060408385031215611c0f57611c0e612866565b5b6000611c1d85828601611b06565b9250506020611c2e85828601611b06565b9150509250929050565b600080600060608486031215611c5157611c50612866565b5b6000611c5f86828701611b06565b9350506020611c7086828701611b06565b9250506040611c8186828701611bb6565b9150509250925092565b60008060008060808587031215611ca557611ca4612866565b5b6000611cb387828801611b06565b9450506020611cc487828801611b06565b9350506040611cd587828801611bb6565b925050606085013567ffffffffffffffff811115611cf657611cf5612861565b5b611d0287828801611b5a565b91505092959194509250565b60008060408385031215611d2557611d24612866565b5b6000611d3385828601611b06565b9250506020611d4485828601611b1b565b9150509250929050565b60008060408385031215611d6557611d64612866565b5b6000611d7385828601611b06565b925050602083013567ffffffffffffffff811115611d9457611d93612861565b5b611da085828601611b88565b9150509250929050565b60008060408385031215611dc157611dc0612866565b5b6000611dcf85828601611b06565b9250506020611de085828601611bb6565b9150509250929050565b600060208284031215611e0057611dff612866565b5b6000611e0e84828501611b30565b91505092915050565b600060208284031215611e2d57611e2c612866565b5b6000611e3b84828501611b45565b91505092915050565b600060208284031215611e5a57611e59612866565b5b6000611e6884828501611bb6565b91505092915050565b60008060408385031215611e8857611e87612866565b5b6000611e9685828601611bb6565b925050602083013567ffffffffffffffff811115611eb757611eb6612861565b5b611ec385828601611b88565b9150509250929050565b60008060008060808587031215611ee757611ee6612866565b5b6000611ef587828801611bb6565b945050602085013567ffffffffffffffff811115611f1657611f15612861565b5b611f2287828801611b88565b935050604085013567ffffffffffffffff811115611f4357611f42612861565b5b611f4f87828801611b88565b9250506060611f6087828801611b06565b91505092959194509250565b611f7581612668565b82525050565b611f848161267a565b82525050565b6000611f95826125a6565b611f9f81856125bc565b9350611faf8185602086016126eb565b611fb88161286b565b840191505092915050565b6000611fce826125b1565b611fd881856125cd565b9350611fe88185602086016126eb565b611ff18161286b565b840191505092915050565b60006120096032836125cd565b91506120148261287c565b604082019050919050565b600061202c601c836125cd565b9150612037826128cb565b602082019050919050565b600061204f6024836125cd565b915061205a826128f4565b604082019050919050565b60006120726019836125cd565b915061207d82612943565b602082019050919050565b6000612095602c836125cd565b91506120a08261296c565b604082019050919050565b60006120b86038836125cd565b91506120c3826129bb565b604082019050919050565b60006120db602a836125cd565b91506120e682612a0a565b604082019050919050565b60006120fe6029836125cd565b915061210982612a59565b604082019050919050565b60006121216020836125cd565b915061212c82612aa8565b602082019050919050565b6000612144602c836125cd565b915061214f82612ad1565b604082019050919050565b6000612167602c836125cd565b915061217282612b20565b604082019050919050565b600061218a6029836125cd565b915061219582612b6f565b604082019050919050565b60006121ad602f836125cd565b91506121b882612bbe565b604082019050919050565b60006121d06021836125cd565b91506121db82612c0d565b604082019050919050565b60006121f36031836125cd565b91506121fe82612c5c565b604082019050919050565b612212816126d2565b82525050565b600060208201905061222d6000830184611f6c565b92915050565b60006080820190506122486000830187611f6c565b6122556020830186611f6c565b6122626040830185612209565b81810360608301526122748184611f8a565b905095945050505050565b60006020820190506122946000830184611f7b565b92915050565b600060208201905081810360008301526122b48184611fc3565b905092915050565b600060208201905081810360008301526122d581611ffc565b9050919050565b600060208201905081810360008301526122f58161201f565b9050919050565b6000602082019050818103600083015261231581612042565b9050919050565b6000602082019050818103600083015261233581612065565b9050919050565b6000602082019050818103600083015261235581612088565b9050919050565b60006020820190508181036000830152612375816120ab565b9050919050565b60006020820190508181036000830152612395816120ce565b9050919050565b600060208201905081810360008301526123b5816120f1565b9050919050565b600060208201905081810360008301526123d581612114565b9050919050565b600060208201905081810360008301526123f581612137565b9050919050565b600060208201905081810360008301526124158161215a565b9050919050565b600060208201905081810360008301526124358161217d565b9050919050565b60006020820190508181036000830152612455816121a0565b9050919050565b60006020820190508181036000830152612475816121c3565b9050919050565b60006020820190508181036000830152612495816121e6565b9050919050565b60006020820190506124b16000830184612209565b92915050565b600060a0820190506124cc6000830188612209565b81810360208301526124de8187611fc3565b90506124ed6040830186611f6c565b81810360608301526124ff8185611fc3565b905081810360808301526125138184611fc3565b90509695505050505050565b600061252961253a565b90506125358282612750565b919050565b6000604051905090565b600067ffffffffffffffff82111561255f5761255e612828565b5b6125688261286b565b9050602081019050919050565b600067ffffffffffffffff8211156125905761258f612828565b5b6125998261286b565b9050602081019050919050565b600081519050919050565b600081519050919050565b600082825260208201905092915050565b600082825260208201905092915050565b60006125e9826126d2565b91506125f4836126d2565b9250827fffffffffffffffffffffffffffffffffffffffffffffffffffffffffffffffff03821115612629576126286127ca565b5b828201905092915050565b600061263f826126d2565b915061264a836126d2565b92508282101561265d5761265c6127ca565b5b828203905092915050565b6000612673826126b2565b9050919050565b60008115159050919050565b60007fffffffff0000000000000000000000000000000000000000000000000000000082169050919050565b600073ffffffffffffffffffffffffffffffffffffffff82169050919050565b6000819050919050565b82818337600083830152505050565b60005b838110156127095780820151818401526020810190506126ee565b83811115612718576000848401525b50505050565b6000600282049050600182168061273657607f821691505b6020821081141561274a576127496127f9565b5b50919050565b6127598261286b565b810181811067ffffffffffffffff8211171561277857612777612828565b5b80604052505050565b600061278c826126d2565b91507fffffffffffffffffffffffffffffffffffffffffffffffffffffffffffffffff8214156127bf576127be6127ca565b5b600182019050919050565b7f4e487b7100000000000000000000000000000000000000000000000000000000600052601160045260246000fd5b7f4e487b7100000000000000000000000000000000000000000000000000000000600052602260045260246000fd5b7f4e487b7100000000000000000000000000000000000000000000000000000000600052604160045260246000fd5b600080fd5b600080fd5b600080fd5b600080fd5b6000601f19601f8301169050919050565b7f4552433732313a207472616e7366657220746f206e6f6e20455243373231526560008201527f63656976657220696d706c656d656e7465720000000000000000000000000000602082015250565b7f4552433732313a20746f6b656e20616c7265616479206d696e74656400000000600082015250565b7f4552433732313a207472616e7366657220746f20746865207a65726f2061646460008201527f7265737300000000000000000000000000000000000000000000000000000000602082015250565b7f4552433732313a20617070726f766520746f2063616c6c657200000000000000600082015250565b7f4552433732313a206f70657261746f7220717565727920666f72206e6f6e657860008201527f697374656e7420746f6b656e0000000000000000000000000000000000000000602082015250565b7f4552433732313a20617070726f76652063616c6c6572206973206e6f74206f7760008201527f6e6572206e6f7220617070726f76656420666f7220616c6c0000000000000000602082015250565b7f4552433732313a2062616c616e636520717565727920666f7220746865207a6560008201527f726f206164647265737300000000000000000000000000000000000000000000602082015250565b7f4552433732313a206f776e657220717565727920666f72206e6f6e657869737460008201527f656e7420746f6b656e0000000000000000000000000000000000000000000000602082015250565b7f4552433732313a206d696e7420746f20746865207a65726f2061646472657373600082015250565b7f4552433732313a20617070726f76656420717565727920666f72206e6f6e657860008201527f697374656e7420746f6b656e0000000000000000000000000000000000000000602082015250565b7f4552433732314d657461646174613a2055524920736574206f66206e6f6e657860008201527f697374656e7420746f6b656e0000000000000000000000000000000000000000602082015250565b7f4552433732313a207472616e73666572206f6620746f6b656e2074686174206960008201527f73206e6f74206f776e0000000000000000000000000000000000000000000000602082015250565b7f4552433732314d657461646174613a2055524920717565727920666f72206e6f60008201527f6e6578697374656e7420746f6b656e0000000000000000000000000000000000602082015250565b7f4552433732313a20617070726f76616c20746f2063757272656e74206f776e6560008201527f7200000000000000000000000000000000000000000000000000000000000000602082015250565b7f4552433732313a207472616e736665722063616c6c6572206973206e6f74206f60008201527f776e6572206e6f7220617070726f766564000000000000000000000000000000602082015250565b612cb481612668565b8114612cbf57600080fd5b50565b612ccb8161267a565b8114612cd657600080fd5b50565b612ce281612686565b8114612ced57600080fd5b50565b612cf9816126d2565b8114612d0457600080fd5b5056fea264697066735822122082a65a602d4c570fece66f9c486ddd784b772371c4582befd73b92e8bb83c2d564736f6c63430008060033",
  "linkReferences": {},
  "deployedLinkReferences": {}
}