{
  "_format": "hh-sol-artifact-1",
  "contractName": "MetisERC721",
  "sourceName": "contracts/MetisERC721.sol",
  "abi": [
    {
      "inputs": [
        {
          "internalType": "string",
          "name": "name",
          "type": "string"
        },
        {
          "internalType": "string",
          "name": "symbol",
          "type": "string"
        }
      ],
      "stateMutability": "nonpayable",
      "type": "constructor"
    },
    {
      "anonymous": false,
      "inputs": [
        {
          "indexed": true,
          "internalType": "address",
          "name": "owner",
          "type": "address"
        },
        {
          "indexed": true,
          "internalType": "address",
          "name": "approved",
          "type": "address"
        },
        {
          "indexed": true,
          "internalType": "uint256",
          "name": "tokenId",
          "type": "uint256"
        }
      ],
      "name": "Approval",
      "type": "event"
    },
    {
      "anonymous": false,
      "inputs": [
        {
          "indexed": true,
          "internalType": "address",
          "name": "owner",
          "type": "address"
        },
        {
          "indexed": true,
          "internalType": "address",
          "name": "operator",
          "type": "address"
        },
        {
          "indexed": false,
          "internalType": "bool",
          "name": "approved",
          "type": "bool"
        }
      ],
      "name": "ApprovalForAll",
      "type": "event"
    },
    {
      "anonymous": false,
      "inputs": [
        {
          "indexed": true,
          "internalType": "address",
          "name": "from",
          "type": "address"
        },
        {
          "indexed": true,
          "internalType": "address",
          "name": "to",
          "type": "address"
        },
        {
          "indexed": true,
          "internalType": "uint256",
          "name": "tokenId",
          "type": "uint256"
        }
      ],
      "name": "Transfer",
      "type": "event"
    },
    {
      "inputs": [
        {
          "internalType": "uint256",
          "name": "eventId",
          "type": "uint256"
        },
        {
          "internalType": "string",
          "name": "_eventURI",
          "type": "string"
        }
      ],
      "name": "_setEventURI",
      "outputs": [],
      "stateMutability": "nonpayable",
      "type": "function"
    },
    {
      "inputs": [
        {
          "internalType": "uint256",
          "name": "tokenId",
          "type": "uint256"
        },
        {
          "internalType": "string",
          "name": "_tokenURI",
          "type": "string"
        }
      ],
      "name": "_setTokenURI",
      "outputs": [],
      "stateMutability": "nonpayable",
      "type": "function"
    },
    {
      "inputs": [
        {
          "internalType": "uint256",
          "name": "",
          "type": "uint256"
        }
      ],
      "name": "allbidstoken",
      "outputs": [
        {
          "internalType": "uint256",
          "name": "TokenID",
          "type": "uint256"
        },
        {
          "internalType": "string",
          "name": "bid",
          "type": "string"
        },
        {
          "internalType": "address",
          "name": "bidderHash",
          "type": "address"
        },
        {
          "internalType": "string",
          "name": "date",
          "type": "string"
        },
        {
          "internalType": "string",
          "name": "status",
          "type": "string"
        }
      ],
      "stateMutability": "view",
      "type": "function"
    },
    {
      "inputs": [
        {
          "internalType": "address",
          "name": "to",
          "type": "address"
        },
        {
          "internalType": "uint256",
          "name": "tokenId",
          "type": "uint256"
        }
      ],
      "name": "approve",
      "outputs": [],
      "stateMutability": "nonpayable",
      "type": "function"
    },
    {
      "inputs": [
        {
          "internalType": "address",
          "name": "owner",
          "type": "address"
        }
      ],
      "name": "balanceOf",
      "outputs": [
        {
          "internalType": "uint256",
          "name": "",
          "type": "uint256"
        }
      ],
      "stateMutability": "view",
      "type": "function"
    },
    {
      "inputs": [],
      "name": "bidCount",
      "outputs": [
        {
          "internalType": "uint256",
          "name": "",
          "type": "uint256"
        }
      ],
      "stateMutability": "view",
      "type": "function"
    },
    {
      "inputs": [
        {
          "internalType": "address",
          "name": "_claimer",
          "type": "address"
        },
        {
          "internalType": "string",
          "name": "_tokenURI",
          "type": "string"
        }
      ],
      "name": "claimToken",
      "outputs": [
        {
          "internalType": "uint256",
          "name": "",
          "type": "uint256"
        }
      ],
      "stateMutability": "nonpayable",
      "type": "function"
    },
    {
      "inputs": [
        {
          "internalType": "uint256",
          "name": "_tokenId",
          "type": "uint256"
        },
        {
          "internalType": "string",
          "name": "_bid",
          "type": "string"
        },
        {
          "internalType": "string",
          "name": "_updatedURI",
          "type": "string"
        },
        {
          "internalType": "address",
          "name": "bidder",
          "type": "address"
        }
      ],
      "name": "createBid",
      "outputs": [],
      "stateMutability": "nonpayable",
      "type": "function"
    },
    {
      "inputs": [
        {
          "internalType": "address",
          "name": "_claimer",
          "type": "address"
        },
        {
          "internalType": "string",
          "name": "_eventURI",
          "type": "string"
        }
      ],
      "name": "createEvent",
      "outputs": [
        {
          "internalType": "uint256",
          "name": "",
          "type": "uint256"
        }
      ],
      "stateMutability": "nonpayable",
      "type": "function"
    },
    {
      "inputs": [
        {
          "internalType": "uint256",
          "name": "eventId",
          "type": "uint256"
        }
      ],
      "name": "eventURI",
      "outputs": [
        {
          "internalType": "string",
          "name": "",
          "type": "string"
        }
      ],
      "stateMutability": "view",
      "type": "function"
    },
    {
      "inputs": [
        {
          "internalType": "uint256",
          "name": "tokenId",
          "type": "uint256"
        }
      ],
      "name": "getApproved",
      "outputs": [
        {
          "internalType": "address",
          "name": "",
          "type": "address"
        }
      ],
      "stateMutability": "view",
      "type": "function"
    },
    {
      "inputs": [
        {
          "internalType": "address",
          "name": "owner",
          "type": "address"
        },
        {
          "internalType": "address",
          "name": "operator",
          "type": "address"
        }
      ],
      "name": "isApprovedForAll",
      "outputs": [
        {
          "internalType": "bool",
          "name": "",
          "type": "bool"
        }
      ],
      "stateMutability": "view",
      "type": "function"
    },
    {
      "inputs": [],
      "name": "name",
      "outputs": [
        {
          "internalType": "string",
          "name": "",
          "type": "string"
        }
      ],
      "stateMutability": "view",
      "type": "function"
    },
    {
      "inputs": [
        {
          "internalType": "uint256",
          "name": "tokenId",
          "type": "uint256"
        }
      ],
      "name": "ownerOf",
      "outputs": [
        {
          "internalType": "address",
          "name": "",
          "type": "address"
        }
      ],
      "stateMutability": "view",
      "type": "function"
    },
    {
      "inputs": [
        {
          "internalType": "address",
          "name": "from",
          "type": "address"
        },
        {
          "internalType": "address",
          "name": "to",
          "type": "address"
        },
        {
          "internalType": "uint256",
          "name": "tokenId",
          "type": "uint256"
        }
      ],
      "name": "safeTransferFrom",
      "outputs": [],
      "stateMutability": "nonpayable",
      "type": "function"
    },
    {
      "inputs": [
        {
          "internalType": "address",
          "name": "from",
          "type": "address"
        },
        {
          "internalType": "address",
          "name": "to",
          "type": "address"
        },
        {
          "internalType": "uint256",
          "name": "tokenId",
          "type": "uint256"
        },
        {
          "internalType": "bytes",
          "name": "_data",
          "type": "bytes"
        }
      ],
      "name": "safeTransferFrom",
      "outputs": [],
      "stateMutability": "nonpayable",
      "type": "function"
    },
    {
      "inputs": [
        {
          "internalType": "address",
          "name": "operator",
          "type": "address"
        },
        {
          "internalType": "bool",
          "name": "approved",
          "type": "bool"
        }
      ],
      "name": "setApprovalForAll",
      "outputs": [],
      "stateMutability": "nonpayable",
      "type": "function"
    },
    {
      "inputs": [
        {
          "internalType": "bytes4",
          "name": "interfaceId",
          "type": "bytes4"
        }
      ],
      "name": "supportsInterface",
      "outputs": [
        {
          "internalType": "bool",
          "name": "",
          "type": "bool"
        }
      ],
      "stateMutability": "view",
      "type": "function"
    },
    {
      "inputs": [],
      "name": "symbol",
      "outputs": [
        {
          "internalType": "string",
          "name": "",
          "type": "string"
        }
      ],
      "stateMutability": "view",
      "type": "function"
    },
    {
      "inputs": [
        {
          "internalType": "uint256",
          "name": "tokenId",
          "type": "uint256"
        }
      ],
      "name": "tokenURI",
      "outputs": [
        {
          "internalType": "string",
          "name": "",
          "type": "string"
        }
      ],
      "stateMutability": "view",
      "type": "function"
    },
    {
      "inputs": [],
      "name": "totalEvent",
      "outputs": [
        {
          "internalType": "uint256",
          "name": "",
          "type": "uint256"
        }
      ],
      "stateMutability": "view",
      "type": "function"
    },
    {
      "inputs": [],
      "name": "totalSupply",
      "outputs": [
        {
          "internalType": "uint256",
          "name": "",
          "type": "uint256"
        }
      ],
      "stateMutability": "view",
      "type": "function"
    },
    {
      "inputs": [
        {
          "internalType": "address",
          "name": "from",
          "type": "address"
        },
        {
          "internalType": "address",
          "name": "to",
          "type": "address"
        },
        {
          "internalType": "uint256",
          "name": "tokenId",
          "type": "uint256"
        }
      ],
      "name": "transferFrom",
      "outputs": [],
      "stateMutability": "nonpayable",
      "type": "function"
    }
  ],
  "bytecode": "0x60806040526000600b553480156200001657600080fd5b50604051620032dc380380620032dc83398181016040528101906200003c9190620001a8565b81818160009080519060200190620000569291906200007a565b5080600190805190602001906200006f9291906200007a565b5050505050620003b1565b8280546200008890620002c2565b90600052602060002090601f016020900481019282620000ac5760008555620000f8565b82601f10620000c757805160ff1916838001178555620000f8565b82800160010185558215620000f8579182015b82811115620000f7578251825591602001919060010190620000da565b5b5090506200010791906200010b565b5090565b5b80821115620001265760008160009055506001016200010c565b5090565b6000620001416200013b8462000256565b6200022d565b90508281526020810184848401111562000160576200015f62000391565b5b6200016d8482856200028c565b509392505050565b600082601f8301126200018d576200018c6200038c565b5b81516200019f8482602086016200012a565b91505092915050565b60008060408385031215620001c257620001c16200039b565b5b600083015167ffffffffffffffff811115620001e357620001e262000396565b5b620001f18582860162000175565b925050602083015167ffffffffffffffff81111562000215576200021462000396565b5b620002238582860162000175565b9150509250929050565b6000620002396200024c565b9050620002478282620002f8565b919050565b6000604051905090565b600067ffffffffffffffff8211156200027457620002736200035d565b5b6200027f82620003a0565b9050602081019050919050565b60005b83811015620002ac5780820151818401526020810190506200028f565b83811115620002bc576000848401525b50505050565b60006002820490506001821680620002db57607f821691505b60208210811415620002f257620002f16200032e565b5b50919050565b6200030382620003a0565b810181811067ffffffffffffffff821117156200032557620003246200035d565b5b80604052505050565b7f4e487b7100000000000000000000000000000000000000000000000000000000600052602260045260246000fd5b7f4e487b7100000000000000000000000000000000000000000000000000000000600052604160045260246000fd5b600080fd5b600080fd5b600080fd5b600080fd5b6000601f19601f8301169050919050565b612f1b80620003c16000396000f3fe608060405234801561001057600080fd5b506004361061014d5760003560e01c8063652d4725116100c3578063a0fd0c6a1161007c578063a0fd0c6a146103c6578063a22cb465146103f6578063b40a562714610412578063b88d4fde14610430578063c87b56dd1461044c578063e985e9c51461047c5761014d565b8063652d4725146102de57806370a082311461030e5780637eadfa6a1461033e5780638b5910731461035c578063931b33851461037857806395d89b41146103a85761014d565b8063095ea7b311610115578063095ea7b31461022057806318160ddd1461023c5780631cd043d61461025a57806323b872dd1461027657806342842e0e146102925780636352211e146102ae5761014d565b80630153886814610152578063019524e71461016e57806301ffc9a7146101a257806306fdde03146101d2578063081812fc146101f0575b600080fd5b61016c6004803603810190610167919061204f565b6104ac565b005b61018860048036038101906101839190612022565b610520565b604051610199959493929190612695565b60405180910390f35b6101bc60048036038101906101b79190611fc8565b61070e565b6040516101c9919061245d565b60405180910390f35b6101da6107f0565b6040516101e79190612478565b60405180910390f35b61020a60048036038101906102059190612022565b610882565b60405161021791906123f6565b60405180910390f35b61023a60048036038101906102359190611f88565b610907565b005b610244610a1f565b604051610251919061267a565b60405180910390f35b610274600480360381019061026f919061204f565b610a29565b005b610290600480360381019061028b9190611e16565b610a55565b005b6102ac60048036038101906102a79190611e16565b610ab5565b005b6102c860048036038101906102c39190612022565b610ad5565b6040516102d591906123f6565b60405180910390f35b6102f860048036038101906102f39190611f2c565b610b87565b604051610305919061267a565b60405180910390f35b61032860048036038101906103239190611da9565b610bc4565b604051610335919061267a565b60405180910390f35b610346610c7c565b604051610353919061267a565b60405180910390f35b610376600480360381019061037191906120ab565b610c86565b005b610392600480360381019061038d9190611f2c565b610e33565b60405161039f919061267a565b60405180910390f35b6103b0610e70565b6040516103bd9190612478565b60405180910390f35b6103e060048036038101906103db9190612022565b610f02565b6040516103ed9190612478565b60405180910390f35b610410600480360381019061040b9190611eec565b610fa7565b005b61041a610fbd565b604051610427919061267a565b60405180910390f35b61044a60048036038101906104459190611e69565b610fc3565b005b61046660048036038101906104619190612022565b611025565b6040516104739190612478565b60405180910390f35b61049660048036038101906104919190611dd6565b611112565b6040516104a3919061245d565b60405180910390f35b6104b5826111a6565b6104f4576040517f08c379a00000000000000000000000000000000000000000000000000000000081526004016104eb906125da565b60405180910390fd5b8060086000848152602001908152602001600020908051906020019061051b929190611bbd565b505050565b600a602052806000526040600020600091509050806000015490806001018054610549906128fc565b80601f0160208091040260200160405190810160405280929190818152602001828054610575906128fc565b80156105c25780601f10610597576101008083540402835291602001916105c2565b820191906000526020600020905b8154815290600101906020018083116105a557829003601f168201915b5050505050908060020160009054906101000a900473ffffffffffffffffffffffffffffffffffffffff16908060030180546105fd906128fc565b80601f0160208091040260200160405190810160405280929190818152602001828054610629906128fc565b80156106765780601f1061064b57610100808354040283529160200191610676565b820191906000526020600020905b81548152906001019060200180831161065957829003601f168201915b50505050509080600401805461068b906128fc565b80601f01602080910402602001604051908101604052809291908181526020018280546106b7906128fc565b80156107045780601f106106d957610100808354040283529160200191610704565b820191906000526020600020905b8154815290600101906020018083116106e757829003601f168201915b5050505050905085565b60007f80ac58cd000000000000000000000000000000000000000000000000000000007bffffffffffffffffffffffffffffffffffffffffffffffffffffffff1916827bffffffffffffffffffffffffffffffffffffffffffffffffffffffff191614806107d957507f5b5e139f000000000000000000000000000000000000000000000000000000007bffffffffffffffffffffffffffffffffffffffffffffffffffffffff1916827bffffffffffffffffffffffffffffffffffffffffffffffffffffffff1916145b806107e957506107e882611212565b5b9050919050565b6060600080546107ff906128fc565b80601f016020809104026020016040519081016040528092919081815260200182805461082b906128fc565b80156108785780601f1061084d57610100808354040283529160200191610878565b820191906000526020600020905b81548152906001019060200180831161085b57829003601f168201915b5050505050905090565b600061088d826111a6565b6108cc576040517f08c379a00000000000000000000000000000000000000000000000000000000081526004016108c3906125ba565b60405180910390fd5b6004600083815260200190815260200160002060009054906101000a900473ffffffffffffffffffffffffffffffffffffffff169050919050565b600061091282610ad5565b90508073ffffffffffffffffffffffffffffffffffffffff168373ffffffffffffffffffffffffffffffffffffffff161415610983576040517f08c379a000000000000000000000000000000000000000000000000000000000815260040161097a9061263a565b60405180910390fd5b8073ffffffffffffffffffffffffffffffffffffffff166109a261127c565b73ffffffffffffffffffffffffffffffffffffffff1614806109d157506109d0816109cb61127c565b611112565b5b610a10576040517f08c379a0000000000000000000000000000000000000000000000000000000008152600401610a079061253a565b60405180910390fd5b610a1a8383611284565b505050565b6000600654905090565b80600960008481526020019081526020016000209080519060200190610a50929190611bbd565b505050565b610a66610a6061127c565b8261133d565b610aa5576040517f08c379a0000000000000000000000000000000000000000000000000000000008152600401610a9c9061265a565b60405180910390fd5b610ab083838361141b565b505050565b610ad083838360405180602001604052806000815250610fc3565b505050565b6000806002600084815260200190815260200160002060009054906101000a900473ffffffffffffffffffffffffffffffffffffffff169050600073ffffffffffffffffffffffffffffffffffffffff168173ffffffffffffffffffffffffffffffffffffffff161415610b7e576040517f08c379a0000000000000000000000000000000000000000000000000000000008152600401610b759061257a565b60405180910390fd5b80915050919050565b6000610b9583600754611677565b610ba160075483610a29565b60076000815480929190610bb49061295f565b9190505550600754905092915050565b60008073ffffffffffffffffffffffffffffffffffffffff168273ffffffffffffffffffffffffffffffffffffffff161415610c35576040517f08c379a0000000000000000000000000000000000000000000000000000000008152600401610c2c9061255a565b60405180910390fd5b600360008373ffffffffffffffffffffffffffffffffffffffff1673ffffffffffffffffffffffffffffffffffffffff168152602001908152602001600020549050919050565b6000600754905090565b600b6000815480929190610c999061295f565b919050555081600860008681526020019081526020016000209080519060200190610cc5929190611bbd565b506040518060a001604052808581526020018481526020018273ffffffffffffffffffffffffffffffffffffffff1681526020016040518060400160405280600481526020017f646174650000000000000000000000000000000000000000000000000000000081525081526020016040518060400160405280600381526020017f4269640000000000000000000000000000000000000000000000000000000000815250815250600a6000600b548152602001908152602001600020600082015181600001556020820151816001019080519060200190610da8929190611bbd565b5060408201518160020160006101000a81548173ffffffffffffffffffffffffffffffffffffffff021916908373ffffffffffffffffffffffffffffffffffffffff1602179055506060820151816003019080519060200190610e0c929190611bbd565b506080820151816004019080519060200190610e29929190611bbd565b5090505050505050565b6000610e4183600654611677565b610e4d600654836104ac565b60066000815480929190610e609061295f565b9190505550600654905092915050565b606060018054610e7f906128fc565b80601f0160208091040260200160405190810160405280929190818152602001828054610eab906128fc565b8015610ef85780601f10610ecd57610100808354040283529160200191610ef8565b820191906000526020600020905b815481529060010190602001808311610edb57829003601f168201915b5050505050905090565b6060600960008381526020019081526020016000208054610f22906128fc565b80601f0160208091040260200160405190810160405280929190818152602001828054610f4e906128fc565b8015610f9b5780601f10610f7057610100808354040283529160200191610f9b565b820191906000526020600020905b815481529060010190602001808311610f7e57829003601f168201915b50505050509050919050565b610fb9610fb261127c565b8383611845565b5050565b600b5481565b610fd4610fce61127c565b8361133d565b611013576040517f08c379a000000000000000000000000000000000000000000000000000000000815260040161100a9061265a565b60405180910390fd5b61101f848484846119b2565b50505050565b6060611030826111a6565b61106f576040517f08c379a00000000000000000000000000000000000000000000000000000000081526004016110669061261a565b60405180910390fd5b60086000838152602001908152602001600020805461108d906128fc565b80601f01602080910402602001604051908101604052809291908181526020018280546110b9906128fc565b80156111065780601f106110db57610100808354040283529160200191611106565b820191906000526020600020905b8154815290600101906020018083116110e957829003601f168201915b50505050509050919050565b6000600560008473ffffffffffffffffffffffffffffffffffffffff1673ffffffffffffffffffffffffffffffffffffffff16815260200190815260200160002060008373ffffffffffffffffffffffffffffffffffffffff1673ffffffffffffffffffffffffffffffffffffffff16815260200190815260200160002060009054906101000a900460ff16905092915050565b60008073ffffffffffffffffffffffffffffffffffffffff166002600084815260200190815260200160002060009054906101000a900473ffffffffffffffffffffffffffffffffffffffff1673ffffffffffffffffffffffffffffffffffffffff1614159050919050565b60007f01ffc9a7000000000000000000000000000000000000000000000000000000007bffffffffffffffffffffffffffffffffffffffffffffffffffffffff1916827bffffffffffffffffffffffffffffffffffffffffffffffffffffffff1916149050919050565b600033905090565b816004600083815260200190815260200160002060006101000a81548173ffffffffffffffffffffffffffffffffffffffff021916908373ffffffffffffffffffffffffffffffffffffffff160217905550808273ffffffffffffffffffffffffffffffffffffffff166112f783610ad5565b73ffffffffffffffffffffffffffffffffffffffff167f8c5be1e5ebec7d5bd14f71427d1e84f3dd0314c0f7b2291e5b200ac8c7c3b92560405160405180910390a45050565b6000611348826111a6565b611387576040517f08c379a000000000000000000000000000000000000000000000000000000000815260040161137e9061251a565b60405180910390fd5b600061139283610ad5565b90508073ffffffffffffffffffffffffffffffffffffffff168473ffffffffffffffffffffffffffffffffffffffff16148061140157508373ffffffffffffffffffffffffffffffffffffffff166113e984610882565b73ffffffffffffffffffffffffffffffffffffffff16145b8061141257506114118185611112565b5b91505092915050565b8273ffffffffffffffffffffffffffffffffffffffff1661143b82610ad5565b73ffffffffffffffffffffffffffffffffffffffff1614611491576040517f08c379a0000000000000000000000000000000000000000000000000000000008152600401611488906125fa565b60405180910390fd5b600073ffffffffffffffffffffffffffffffffffffffff168273ffffffffffffffffffffffffffffffffffffffff161415611501576040517f08c379a00000000000000000000000000000000000000000000000000000000081526004016114f8906124da565b60405180910390fd5b61150c838383611a0e565b611517600082611284565b6001600360008573ffffffffffffffffffffffffffffffffffffffff1673ffffffffffffffffffffffffffffffffffffffff16815260200190815260200160002060008282546115679190612812565b925050819055506001600360008473ffffffffffffffffffffffffffffffffffffffff1673ffffffffffffffffffffffffffffffffffffffff16815260200190815260200160002060008282546115be91906127bc565b92505081905550816002600083815260200190815260200160002060006101000a81548173ffffffffffffffffffffffffffffffffffffffff021916908373ffffffffffffffffffffffffffffffffffffffff160217905550808273ffffffffffffffffffffffffffffffffffffffff168473ffffffffffffffffffffffffffffffffffffffff167fddf252ad1be2c89b69c2b068fc378daa952ba7f163c4a11628f55a4df523b3ef60405160405180910390a4505050565b600073ffffffffffffffffffffffffffffffffffffffff168273ffffffffffffffffffffffffffffffffffffffff1614156116e7576040517f08c379a00000000000000000000000000000000000000000000000000000000081526004016116de9061259a565b60405180910390fd5b6116f0816111a6565b15611730576040517f08c379a0000000000000000000000000000000000000000000000000000000008152600401611727906124ba565b60405180910390fd5b61173c60008383611a0e565b6001600360008473ffffffffffffffffffffffffffffffffffffffff1673ffffffffffffffffffffffffffffffffffffffff168152602001908152602001600020600082825461178c91906127bc565b92505081905550816002600083815260200190815260200160002060006101000a81548173ffffffffffffffffffffffffffffffffffffffff021916908373ffffffffffffffffffffffffffffffffffffffff160217905550808273ffffffffffffffffffffffffffffffffffffffff16600073ffffffffffffffffffffffffffffffffffffffff167fddf252ad1be2c89b69c2b068fc378daa952ba7f163c4a11628f55a4df523b3ef60405160405180910390a45050565b8173ffffffffffffffffffffffffffffffffffffffff168373ffffffffffffffffffffffffffffffffffffffff1614156118b4576040517f08c379a00000000000000000000000000000000000000000000000000000000081526004016118ab906124fa565b60405180910390fd5b80600560008573ffffffffffffffffffffffffffffffffffffffff1673ffffffffffffffffffffffffffffffffffffffff16815260200190815260200160002060008473ffffffffffffffffffffffffffffffffffffffff1673ffffffffffffffffffffffffffffffffffffffff16815260200190815260200160002060006101000a81548160ff0219169083151502179055508173ffffffffffffffffffffffffffffffffffffffff168373ffffffffffffffffffffffffffffffffffffffff167f17307eab39ab6107e8899845ad3d59bd9653f200f220920489ca2b5937696c31836040516119a5919061245d565b60405180910390a3505050565b6119bd84848461141b565b6119c984848484611a13565b611a08576040517f08c379a00000000000000000000000000000000000000000000000000000000081526004016119ff9061249a565b60405180910390fd5b50505050565b505050565b6000611a348473ffffffffffffffffffffffffffffffffffffffff16611baa565b15611b9d578373ffffffffffffffffffffffffffffffffffffffff1663150b7a02611a5d61127c565b8786866040518563ffffffff1660e01b8152600401611a7f9493929190612411565b602060405180830381600087803b158015611a9957600080fd5b505af1925050508015611aca57506040513d601f19601f82011682018060405250810190611ac79190611ff5565b60015b611b4d573d8060008114611afa576040519150601f19603f3d011682016040523d82523d6000602084013e611aff565b606091505b50600081511415611b45576040517f08c379a0000000000000000000000000000000000000000000000000000000008152600401611b3c9061249a565b60405180910390fd5b805181602001fd5b63150b7a0260e01b7bffffffffffffffffffffffffffffffffffffffffffffffffffffffff1916817bffffffffffffffffffffffffffffffffffffffffffffffffffffffff191614915050611ba2565b600190505b949350505050565b600080823b905060008111915050919050565b828054611bc9906128fc565b90600052602060002090601f016020900481019282611beb5760008555611c32565b82601f10611c0457805160ff1916838001178555611c32565b82800160010185558215611c32579182015b82811115611c31578251825591602001919060010190611c16565b5b509050611c3f9190611c43565b5090565b5b80821115611c5c576000816000905550600101611c44565b5090565b6000611c73611c6e84612722565b6126fd565b905082815260208101848484011115611c8f57611c8e612a3a565b5b611c9a8482856128ba565b509392505050565b6000611cb5611cb084612753565b6126fd565b905082815260208101848484011115611cd157611cd0612a3a565b5b611cdc8482856128ba565b509392505050565b600081359050611cf381612e89565b92915050565b600081359050611d0881612ea0565b92915050565b600081359050611d1d81612eb7565b92915050565b600081519050611d3281612eb7565b92915050565b600082601f830112611d4d57611d4c612a35565b5b8135611d5d848260208601611c60565b91505092915050565b600082601f830112611d7b57611d7a612a35565b5b8135611d8b848260208601611ca2565b91505092915050565b600081359050611da381612ece565b92915050565b600060208284031215611dbf57611dbe612a44565b5b6000611dcd84828501611ce4565b91505092915050565b60008060408385031215611ded57611dec612a44565b5b6000611dfb85828601611ce4565b9250506020611e0c85828601611ce4565b9150509250929050565b600080600060608486031215611e2f57611e2e612a44565b5b6000611e3d86828701611ce4565b9350506020611e4e86828701611ce4565b9250506040611e5f86828701611d94565b9150509250925092565b60008060008060808587031215611e8357611e82612a44565b5b6000611e9187828801611ce4565b9450506020611ea287828801611ce4565b9350506040611eb387828801611d94565b925050606085013567ffffffffffffffff811115611ed457611ed3612a3f565b5b611ee087828801611d38565b91505092959194509250565b60008060408385031215611f0357611f02612a44565b5b6000611f1185828601611ce4565b9250506020611f2285828601611cf9565b9150509250929050565b60008060408385031215611f4357611f42612a44565b5b6000611f5185828601611ce4565b925050602083013567ffffffffffffffff811115611f7257611f71612a3f565b5b611f7e85828601611d66565b9150509250929050565b60008060408385031215611f9f57611f9e612a44565b5b6000611fad85828601611ce4565b9250506020611fbe85828601611d94565b9150509250929050565b600060208284031215611fde57611fdd612a44565b5b6000611fec84828501611d0e565b91505092915050565b60006020828403121561200b5761200a612a44565b5b600061201984828501611d23565b91505092915050565b60006020828403121561203857612037612a44565b5b600061204684828501611d94565b91505092915050565b6000806040838503121561206657612065612a44565b5b600061207485828601611d94565b925050602083013567ffffffffffffffff81111561209557612094612a3f565b5b6120a185828601611d66565b9150509250929050565b600080600080608085870312156120c5576120c4612a44565b5b60006120d387828801611d94565b945050602085013567ffffffffffffffff8111156120f4576120f3612a3f565b5b61210087828801611d66565b935050604085013567ffffffffffffffff81111561212157612120612a3f565b5b61212d87828801611d66565b925050606061213e87828801611ce4565b91505092959194509250565b61215381612846565b82525050565b61216281612858565b82525050565b600061217382612784565b61217d818561279a565b935061218d8185602086016128c9565b61219681612a49565b840191505092915050565b60006121ac8261278f565b6121b681856127ab565b93506121c68185602086016128c9565b6121cf81612a49565b840191505092915050565b60006121e76032836127ab565b91506121f282612a5a565b604082019050919050565b600061220a601c836127ab565b915061221582612aa9565b602082019050919050565b600061222d6024836127ab565b915061223882612ad2565b604082019050919050565b60006122506019836127ab565b915061225b82612b21565b602082019050919050565b6000612273602c836127ab565b915061227e82612b4a565b604082019050919050565b60006122966038836127ab565b91506122a182612b99565b604082019050919050565b60006122b9602a836127ab565b91506122c482612be8565b604082019050919050565b60006122dc6029836127ab565b91506122e782612c37565b604082019050919050565b60006122ff6020836127ab565b915061230a82612c86565b602082019050919050565b6000612322602c836127ab565b915061232d82612caf565b604082019050919050565b6000612345602c836127ab565b915061235082612cfe565b604082019050919050565b60006123686029836127ab565b915061237382612d4d565b604082019050919050565b600061238b602f836127ab565b915061239682612d9c565b604082019050919050565b60006123ae6021836127ab565b91506123b982612deb565b604082019050919050565b60006123d16031836127ab565b91506123dc82612e3a565b604082019050919050565b6123f0816128b0565b82525050565b600060208201905061240b600083018461214a565b92915050565b6000608082019050612426600083018761214a565b612433602083018661214a565b61244060408301856123e7565b81810360608301526124528184612168565b905095945050505050565b60006020820190506124726000830184612159565b92915050565b6000602082019050818103600083015261249281846121a1565b905092915050565b600060208201905081810360008301526124b3816121da565b9050919050565b600060208201905081810360008301526124d3816121fd565b9050919050565b600060208201905081810360008301526124f381612220565b9050919050565b6000602082019050818103600083015261251381612243565b9050919050565b6000602082019050818103600083015261253381612266565b9050919050565b6000602082019050818103600083015261255381612289565b9050919050565b60006020820190508181036000830152612573816122ac565b9050919050565b60006020820190508181036000830152612593816122cf565b9050919050565b600060208201905081810360008301526125b3816122f2565b9050919050565b600060208201905081810360008301526125d381612315565b9050919050565b600060208201905081810360008301526125f381612338565b9050919050565b600060208201905081810360008301526126138161235b565b9050919050565b600060208201905081810360008301526126338161237e565b9050919050565b60006020820190508181036000830152612653816123a1565b9050919050565b60006020820190508181036000830152612673816123c4565b9050919050565b600060208201905061268f60008301846123e7565b92915050565b600060a0820190506126aa60008301886123e7565b81810360208301526126bc81876121a1565b90506126cb604083018661214a565b81810360608301526126dd81856121a1565b905081810360808301526126f181846121a1565b90509695505050505050565b6000612707612718565b9050612713828261292e565b919050565b6000604051905090565b600067ffffffffffffffff82111561273d5761273c612a06565b5b61274682612a49565b9050602081019050919050565b600067ffffffffffffffff82111561276e5761276d612a06565b5b61277782612a49565b9050602081019050919050565b600081519050919050565b600081519050919050565b600082825260208201905092915050565b600082825260208201905092915050565b60006127c7826128b0565b91506127d2836128b0565b9250827fffffffffffffffffffffffffffffffffffffffffffffffffffffffffffffffff03821115612807576128066129a8565b5b828201905092915050565b600061281d826128b0565b9150612828836128b0565b92508282101561283b5761283a6129a8565b5b828203905092915050565b600061285182612890565b9050919050565b60008115159050919050565b60007fffffffff0000000000000000000000000000000000000000000000000000000082169050919050565b600073ffffffffffffffffffffffffffffffffffffffff82169050919050565b6000819050919050565b82818337600083830152505050565b60005b838110156128e75780820151818401526020810190506128cc565b838111156128f6576000848401525b50505050565b6000600282049050600182168061291457607f821691505b60208210811415612928576129276129d7565b5b50919050565b61293782612a49565b810181811067ffffffffffffffff8211171561295657612955612a06565b5b80604052505050565b600061296a826128b0565b91507fffffffffffffffffffffffffffffffffffffffffffffffffffffffffffffffff82141561299d5761299c6129a8565b5b600182019050919050565b7f4e487b7100000000000000000000000000000000000000000000000000000000600052601160045260246000fd5b7f4e487b7100000000000000000000000000000000000000000000000000000000600052602260045260246000fd5b7f4e487b7100000000000000000000000000000000000000000000000000000000600052604160045260246000fd5b600080fd5b600080fd5b600080fd5b600080fd5b6000601f19601f8301169050919050565b7f4552433732313a207472616e7366657220746f206e6f6e20455243373231526560008201527f63656976657220696d706c656d656e7465720000000000000000000000000000602082015250565b7f4552433732313a20746f6b656e20616c7265616479206d696e74656400000000600082015250565b7f4552433732313a207472616e7366657220746f20746865207a65726f2061646460008201527f7265737300000000000000000000000000000000000000000000000000000000602082015250565b7f4552433732313a20617070726f766520746f2063616c6c657200000000000000600082015250565b7f4552433732313a206f70657261746f7220717565727920666f72206e6f6e657860008201527f697374656e7420746f6b656e0000000000000000000000000000000000000000602082015250565b7f4552433732313a20617070726f76652063616c6c6572206973206e6f74206f7760008201527f6e6572206e6f7220617070726f76656420666f7220616c6c0000000000000000602082015250565b7f4552433732313a2062616c616e636520717565727920666f7220746865207a6560008201527f726f206164647265737300000000000000000000000000000000000000000000602082015250565b7f4552433732313a206f776e657220717565727920666f72206e6f6e657869737460008201527f656e7420746f6b656e0000000000000000000000000000000000000000000000602082015250565b7f4552433732313a206d696e7420746f20746865207a65726f2061646472657373600082015250565b7f4552433732313a20617070726f76656420717565727920666f72206e6f6e657860008201527f697374656e7420746f6b656e0000000000000000000000000000000000000000602082015250565b7f4552433732314d657461646174613a2055524920736574206f66206e6f6e657860008201527f697374656e7420746f6b656e0000000000000000000000000000000000000000602082015250565b7f4552433732313a207472616e73666572206f6620746f6b656e2074686174206960008201527f73206e6f74206f776e0000000000000000000000000000000000000000000000602082015250565b7f4552433732314d657461646174613a2055524920717565727920666f72206e6f60008201527f6e6578697374656e7420746f6b656e0000000000000000000000000000000000602082015250565b7f4552433732313a20617070726f76616c20746f2063757272656e74206f776e6560008201527f7200000000000000000000000000000000000000000000000000000000000000602082015250565b7f4552433732313a207472616e736665722063616c6c6572206973206e6f74206f60008201527f776e6572206e6f7220617070726f766564000000000000000000000000000000602082015250565b612e9281612846565b8114612e9d57600080fd5b50565b612ea981612858565b8114612eb457600080fd5b50565b612ec081612864565b8114612ecb57600080fd5b50565b612ed7816128b0565b8114612ee257600080fd5b5056fea264697066735822122082138d5bad76d6ba582adc97ab925375ebf05a19a09f45afafd123cd490875b464736f6c63430008060033",
  "linkReferences": {},
  "deployedLinkReferences": {}
}